:020000040000FA
:10100000807E01202D940000B10C050001940000A9
:101010000194000001940000019400000000000011
:10102000000000000000000000000000E98D00004A
:101030000194000000000000598D000001940000A0
:10104000598F00008D1A0500598F0000598F00003C
:10105000598F0000598F0000598F0000598F0000F0
:10106000551A0500598F0000598F0000731A0500AA
:10107000598F0000598F0000598F0000598F0000D0
:10108000598F0000598F0000598F0000598F0000C0
:10109000598F0000598F0000598F0000598F0000B0
:1010A000598F0000598F0000598F0000598F0000A0
:1010B000598F0000598F0000598F0000598F000090
:1010C000598F0000598F0000598F0000598F000080
:1010D000598F0000598F0000598F0000598F000070
:1010E000598F0000598F0000598F0000598F000060
:1010F000598F0000598F0000598F0000598F000050
:101100007BB972B90029BEBF00204FF0004106E054
:1011100008BF00281CBF6FF000414FF0FF3000F007
:1011200057B8ADF1080C6DE904CE002909DB002B9E
:101130001ADB03F03BFCDDF804E0DDE9022304B038
:101140007047404261EB4101002B1BDB03F02EFC9A
:10115000DDF804E0DDE9022304B0404261EB410127
:10116000524263EB43037047524263EB430303F085
:101170001DFCDDF804E0DDE9022304B0404261EB30
:1011800041017047524263EB430303F00FFCDDF86B
:1011900004E0DDE9022304B0524263EB43037047ED
:1011A00053B94AB9002908BF00281CBF4FF0FF31CE
:1011B0004FF0FF3000F00CB8ADF1080C6DE904CE33
:1011C00003F0F4FBDDF804E0DDE9022304B070472E
:1011D000704700BF70B5174C6078002823D10120FC
:1011E000607004F0B9F86FF0270528B904F0CAF868
:1011F00010B904F0D1F820B10F486060A570082044
:1012000010E004F07EF840B904F085F828B904F045
:1012100099F810B904F0AAF830B10748313060608D
:10122000A5700420E07070BD4FF48F71742002F03F
:10123000D9FF00000004002074560000084991F90D
:101240000320904203DA91F90220904201DC10461B
:1012500070474968801A085C0249085670470000C8
:1012600000040020665600002DE9F0411C4690461F
:101270000D4606466FF01507042804D81CB103F08C
:10128000E5FCA84202D83846BDE8F0810548424650
:1012900050F8260018B14057824200DD0246227005
:1012A0000020F1E7A40D0020002819D0037813498D
:1012B000134A13B1012B0ED011E00379012B00D09A
:1012C0006BB943790BB1012B09D18368643B8B4225
:1012D00005D2C0680EE00379012B02D00BB10020CB
:1012E000704743790BB1012BF9D1C368643B8B4242
:1012F000F5D280689042F2D8012070473D86010007
:10130000FF3F420F10B5054C206810B18047002008
:101310002060BDE8104001F0FDBC00000804002082
:101320002DE9F0410E46050004D000F047F80746CD
:1013300000240BE06FF01500BDE8F081204600F0BE
:1013400043F890F8260030B1641CE4B2BC42F5D3F7
:101350006FF00B00F0E72746FF2CF9D0204600F095
:1013600033F8044603F03EFE84F82870214608480E
:1013700001F0A8FC84F82700202806D0012025626F
:1013800084F8260037700020D6E76FF02200D3E7FC
:101390000F4D000010B5820702D06FF00D0010BD98
:1013A000054A1170506028B101EB41010A0100218A
:1013B00004F076F8002010BD0C04002001480078ED
:1013C000704700000C04002005490A78904201D3C0
:1013D00000207047496800EB400001EB00107047A7
:1013E0000C0400200E4910B591F82D00202812D0D1
:1013F00091F82D00A1F58062C0EBC00002EB8000E7
:1014000091F82D104068C1EBC10152F82120BDE8D0
:1014100010400421104740F6BC01702002F0E2FEAB
:10142000B811002070B50546202A28D019481A4C5A
:1014300000EB831C03EB43030CEB42002344202905
:1014400022D00CEB410140784C7848702046014690
:101450000CEB4100914205704078F8D193F82220BE
:10146000202A1ABF0CEB4202547083F8214020223C
:101470000CEB410C8CF8012083F8221070BD4FF466
:101480002671702002F0AEFE93F82040407883F879
:101490002000DBE738110020B81100202DE9FF4FB4
:1014A0008DB015460C4601F01DFE284420F07F400B
:1014B00008902168081A0002C11700EB11600012A1
:1014C000002800F3F080DDF84080CD4808EB4801AB
:1014D0000844099090F820502020CA4E0DF1180AB7
:1014E0000DF11C098DF81800202D1CBFC64800EB1B
:1014F000881B38D0C5EBC50006EB800000F1080161
:10150000C0682768381A0002C21700EB1260001288
:1015100029D4E08900B3C889F0B90868039002F0C3
:10152000DBFCB0F5C67F08BF0D200BD0A0F54070E6
:10153000563808BF1C2005D0A0F500709F3814BF96
:1015400000203220411C0398381A0002C21700EB19
:1015500012600012884206DB0BEB45008AF800504F
:101560004578202DC6D19AF8000089F80000202D7A
:101570001CBFA54800EB881B00F03E81C5EBC500F1
:1015800006EB80076168D7F8088007F10800A8EB30
:1015900001010902CA1701EB1261091227D4C0899F
:1015A000002800F02981E089002840F02581D4F846
:1015B00000A002F091FCB0F5C67F08BF0D200BD053
:1015C000A0F54070563808BF1C2005D0A0F500706B
:1015D0009F3814BF00203220411CA8EB0A000002F3
:1015E000C21700EB12600012884280F2058189F870
:1015F0000050387E217C884206D90BEB45004578A7
:10160000202DBBD100F0F8B89DF81C00C0EBC00045
:1016100006EB8000C18AC568E1BBE189D1B3876868
:1016200002F05AFCB0F5C67F08BF0D200BD0A0F524
:101630004070563808BF1C2005D0A0F500709F38B8
:1016400014BF00203220411CE81B0002C21700EB2F
:101650001260001288421DDA02F03EFCB0F5C67F2F
:1016600008BF0D200BD0A0F54070563808BF1C20D5
:1016700005D0A0F500709F3814BF002032209DF8DF
:101680001C10401CC1EBC10106EB810189680844B4
:1016900020F07F450898281A0002C11700EB11605E
:1016A0000012002803DD11B00020BDE8F08F206893
:1016B000A84202D9A168491CA16061680DF1180A0D
:1016C000081A284425F07F4120F07F40C4E900102B
:1016D00010980B9009980DF11C0890F820502020CC
:1016E0008DF81800202D3CD047490B9801EB801B4A
:1016F000C5EBC50006EB800000F10801C068276853
:10170000381A0002C21700EB1260001229D4E089D7
:1017100000B3C889F0B9D1F8009002F0DDFBB0F554
:10172000C67F08BF0D200BD0A0F54070563808BF0B
:101730001C2005D0A0F500709F3814BF0020322077
:10174000411CA7EB09000002C21700EB1260001257
:10175000884206DB0BEB45008AF800504578202DC7
:10176000C6D19AF8000088F800000B98202D1CBF05
:10177000254901EB801B3FD0C5EBC50006EB800778
:101780006068D7F8089007F10801A9EB0000000293
:10179000C21700EB1260001222D4C88960B3E0893E
:1017A00050BBD4F800A002F097FBB0F5C67F08BF8D
:1017B0000D200BD0A0F54070563808BF1C2005D076
:1017C000A0F500709F3814BF00203220411CA9EB07
:1017D0000A000002C21700EB1260001288420BDA06
:1017E00088F80050387E217C88427FF60DAF0BEBE5
:1017F00045004578202DBFD111B00120BDE8F08F04
:10180000B8110020B80D0020381100202DE9F84F44
:101810000F46064601EB47004B499946084492465D
:1018200090F8204020201070A1F58068202C1CBF6B
:10183000464800EB871B38D0C4EBC40008EB80009F
:1018400000F10801C0683568281A0002C21700EBD1
:101850001260001229D4F08900B3C889F0B9086871
:10186000009002F039FBB0F5C67F08BF0D200BD009
:10187000A0F54070563808BF1C2005D0A0F50070B8
:101880009F3814BF00203220411C0098281A000203
:10189000C21700EB12600012884206DB0BEB44001B
:1018A0008AF800404478202CC6D19AF8000089F8C4
:1018B0000000202C1CBF254800EB871A40D000BF39
:1018C000C4EBC40008EB80077068BD6807F108012D
:1018D000281A0002C21700EB1260001222D4C88935
:1018E00070B3F08960BBD6F800B002F0F5FAB0F53D
:1018F000C67F08BF0D200BD0A0F54070563808BF3A
:101900001C2005D0A0F500709F3814BF00203220A5
:10191000411CA5EB0B000002C21700EB1260001285
:1019200088420DDA89F80040387E317C884202D83E
:101930000020BDE8F88F0AEB44004478202CBFD18A
:101940000120BDE8F88F0000B811002038110020F8
:101950002DE9F74F98B015468B4601F071FE04460D
:1019600002F0ECF80646BBF1010F18BFBBF1020F05
:1019700005D040F692114FF0700002F033FCFF49A1
:1019800001200860FE498968086000208DF8560033
:101990000E90401E0F90FB49C5EBC50001EB800186
:1019A00001F10800896990E80D1010AF149187E8E3
:1019B0000D1003F0B9FB0246BDF84E809DF84C00B7
:1019C000F14B4044411C50189A424FD8EF4DA94268
:1019D00053DC6A42914258DB591C8142DCBF00F55E
:1019E000F700A0F1F85005DD0028BCBFA0F5F70016
:1019F00000F1F8500C90E648B8F1000F808BADF87C
:101A0000540004BF00200B900BD001200B90E04845
:101A100090F82A0028B902F06DFB002808BF0127C2
:101A200000D0002702F058FAB0F5C67F08BF0D209D
:101A30000BD0A0F54070563808BF1C2005D0A0F58B
:101A400000709F3814BF002032204FF00009CA46B2
:101A50000990464537D90C99DFF82C936FEA060CAC
:101A60006B4616AA01EB0C00494504D940F29E5181
:101A7000702002F0B7FBAC4504DD40F29F517020AE
:101A800002F0B0FBC3498C4504DA4FF4B461702016
:101A900002F0A8FBC0498142DCBF00F5F700A0F1CD
:101AA000F85005DD0028BCBFA0F5F70000F1F850A4
:101AB000194601F033FB0098109920F07F40009008
:101AC000081A20F07F49002F18BFDDF824A005D1A7
:101AD0009DF85400002818BF4FF0020AB4F1807F2F
:101AE00008D01098001B0002C11700EB1160001213
:101AF000012802DA0320189D0DE057B1A44890F8A0
:101B00002B0030B19DF8540010F1000A18BF4FF0BF
:101B1000020A2546002082441098A0EB090020F01C
:101B20007F42501E20F07F40411B0902CB1701EB82
:101B300013610912514504DBB9F1000F18BF10926F
:101B40002DE0B9F1000F05D09DF8550020B901F046
:101B5000EBFF08B1AFB90CE02FB99DF85400002895
:101B600018BFAAF1020A4FF000098DF854904E46B2
:101B700007E09DF8540020B100208DF85400AAF130
:101B8000020A1098A0EB0900401E20F07F40411B84
:101B90000902CA1701EB1261091251457EDB0A974F
:101BA00005464FF000090B9F01F022FC281A0002A5
:101BB000C11700EB11604FEA202A02F08DF9B0F551
:101BC000C67F08BF0D200BD0A0F54070563808BF67
:101BD0001C2005D0A0F500709F3814BF00203220D3
:101BE0000B30824520DABBF1010F02D00A9840B1D8
:101BF00012E0B4F1807F1CD140F61311702002F086
:101C0000F1FAB4F1807F07D0601B0002C11700EB2E
:101C100011600012042804DD2C46204601F00EFC61
:101C200007E0002863DC04E02C46204601F006FCB7
:101C3000B946B4F1807F55D01098119A001B121B41
:101C400020F07F4022F07F42012850D3B0F5000FF2
:101C500098BFB2F5000F4AD8204603F065FA0C99F8
:101C60004A4A0D1A4FF0000AAA1A7AF1000218D354
:101C7000464B421AD31A7AF1000312D3424BAB42BD
:101C80003EBFC0F5902000F1F450451809D39342AF
:101C900031D2C1F5902101F1F45100E027E0084470
:101CA00045423B4FB87F58B3BBF1010F05D002202E
:101CB00001F000FE012001F0FDFDB0452CD2A5EBA6
:101CC00006014FF0020001F03FFD90B3B8F1000FA4
:101CD0001CBFA5EB0801012034D000BF01F034FD8A
:101CE00038B32FE040F62621702002F07BFA1BB0BB
:101CF0000020BDE8F08F40F6FA21702002F072FA61
:101D0000B04534BF304640461E30A842CCDB40F6DA
:101D10003A21702002F066FA0CD9A5EB08010120E7
:101D200001F012FD28B1002E1CBFA91B022009D012
:101D3000D4E733E056EA080004D040F6761170206C
:101D400002F050FA2946002001F0FEFC30B30B9857
:101D50000126002804BF97F82B00002802D0B9F113
:101D6000000F34D097F82A0018B102F0BBF887F8BA
:101D70002AA0B9F1000F2DD0099810E00805004005
:101D800014040020B80D0020FF7F841E0040420F85
:101D9000B811002000C0BDF00080841E0DE0201AA4
:101DA00020F07F41052001F0CFFC58B397F82B00BD
:101DB000002808BF87F82B6014E0022001F07AFDAC
:101DC000012001F077FD1BB00020BDE8F08F97F8EF
:101DD0002A0090B197F82B0020B1052001F06AFD90
:101DE00087F82BA0A5EB0800A0F1190100290EDC53
:101DF00040F66321702002F0F5F902F08FF887F8C1
:101E00002A60B6E74FF43E71702002F0EBF9032030
:101E100001F09AFCB8B10E488068C0F800A00D48E7
:101E2000C0F800A00DF1380898E87F10386079609C
:101E3000BA60FB603C617D61BE61C7F81CC01BB02D
:101E40000120BDE8F08F40F66B21702002F0CAF946
:101E500014040020080500402DE9FF4F0D461446EC
:101E600006464FF0000A2A894168504662F31F4037
:101E7000AA7AD14662F30709EA7A83B062F30F299E
:101E80002A78C4F800A062F31749C4F804A0C4F883
:101E90001090C4E902109D4F7068A0FB078930685C
:101EA00003F042F910EB08014AEB090228784FEAE7
:101EB0006709C9F1000B70B1E08994F81180C04343
:101EC000D5F804A004F10C0248457CDD40F29F5196
:101ED000702002F087F9DFF838C2D5E9040311EB6E
:101EE0000C0A42F1000CB0EB0A0A73EB0C0C72D234
:101EF000411A73EB02016ED3B0EB0806B7422BD840
:101F0000E089A6F1F458A8F59028C143814A08EB6E
:101F1000010042452BD34945D8DC594566DB874251
:101F2000DCBF00F5F700A0F1F85005DD0028BCBFCC
:101F3000A0F5F70000F1F8506A4601A901F0EEF8AB
:101F4000E0899DF80010301A401A401EB84202D3B2
:101F5000A068401CA0604646E0896E4BC1436D6896
:101F600094F81180701804F10C029E4204D940F2DA
:101F70009E51702002F036F94945A7DC594535DB02
:101F80008742DCBF00F5F700A0F1F85005DD00281E
:101F9000BCBFA0F5F70000F1F850214601F0BEF8F3
:101FA000206820F07F417019401C2160B8F1000FBB
:101FB00008BF7A3004D0B8F1010F08BF48303AD1D9
:101FC00001F090F801E00EE005E020F07F40606055
:101FD00007B0BDE8F08F3068401E20F07F402060E1
:101FE00000F57A70F3E70146584504DA4FF4B4611E
:101FF000702002F0F7F88742DCBFA1F1F450A0F5A1
:10200000902005DD0028BCBF01F1F45000F59020C0
:10201000214601F083F82068B8F1000F20F07F41DD
:102020000AF10100216008BF7A3009D0B8F1010F30
:1020300008BF483004D040F23961702002F0D2F875
:1020400001F050F820F07F416160B4F80E9001AAD1
:1020500069464846376801F061F801F06FFD01F00C
:1020600041F880462C4890F82D1020292AD0C068CD
:10207000401D20F07F4000BFD4E90021891A0144AF
:1020800021F07F41C4E900013168814202D9A06892
:10209000401CA060326828692146069BFFF7FEF9C4
:1020A00000281CBF07B0BDE8F08FD4E90010401A2B
:1020B000316821603168084420F07F40606007B0DB
:1020C000BDE8F08F0937B9F1000F16D002F012F811
:1020D00098B901F001FFB0F5C67F08BF0D200BD005
:1020E000A0F54070563808BF1C2005D0A0F5007040
:1020F0009F3814BF0020322007440098804584BFD9
:10210000A8EB0000074427F07F40B5E70080841E5D
:102110000040420FFF7F841EB811002070B51E4D95
:1021200095F82D00202818BF70BD95F82C2002EBE3
:102130004200284490F82040202C27D0174B03EB76
:10214000821101EB4401497880F82010FF2085F8C6
:10215000290085F82D402146022000F091F800204A
:1021600085F82800A8770E49C4EBC40001EB800075
:10217000007E002808BF02F0B1FB00200949496831
:10218000002908BF70BDBDE87040084740F23231F9
:10219000702002F027F80000B8110020381100204C
:1021A000B80D0020140400202DE9F05FDFF8C08096
:1021B00098F82C5005EB4500404490F82140202C25
:1021C00008BFBDE8F09FDFF8ACB0DFF8ACA0AAF51F
:1021D00060790AEB8517072617F8140001280ED03E
:1021E000042808BF02260AD005280CBF03260628AB
:1021F00005D040F6DD014FF0700001F0F3FFBBF1B8
:10220000000F18BFAFF30080EFF3108072B607EB3A
:1022100044014A7805EB4501414481F8212091F8B9
:102220002220A24204BF202281F82220C0B12A46E7
:102230002146012000F024F8C4EBC40109EB810021
:1022400059F8212040683146904798F82C5005EB0A
:102250004500404490F82140202CBAD1BDE8F09FC1
:102260000648002818BFAFF3008062B6DFE7000021
:10227000B81100200000000038110020000000000C
:10228000DFF858C010B500230CEB821C07281FD2C2
:10229000DFE800F0050505050404040001230CF83F
:1022A0001100002B08BF10BD02EB42020C48024493
:1022B00092F8220020280EBF82F821100CEB40007B
:1022C000417020200CEB4103587082F8221010BDA1
:1022D00040F26E21702001F085FF000038110020CF
:1022E000B81100202DE9F05F0F468046DFF858A1B5
:1022F00001EB47005044B8F1010F90F8204025460B
:1023000018BFB8F1020F05D040F6A1214FF07000C0
:1023100001F068FF4FF0000B202D42D09AF81E000C
:102320000026002808BF022601F062F8DFF81CC171
:10233000C4EBC4010CEB81018A68C968121A091A3E
:1023400022F07F4221F07F41964299BFB2F5000F03
:10235000B1F5000F3E4A02EB871920D9224609EB5E
:1023600042014C78202C12D0C4EBC4010CEB81014B
:102370008B68C9681B1A091A23F07F4321F07F413B
:102380009E429CBFB3F5000FB1F5000FE6D8202A9E
:1023900005D03B4620210420FFF744F80446AC4218
:1023A00016D12C48002818BFAFF3008001F020F8A8
:1023B00003469AF82E0020280DD0DAF80800991C60
:1023C000081A0002C11700EB11600012002802DD9C
:1023D0000020BDE8F09F202D14D02A464146184623
:1023E000FFF7B6FA00281EBF8AF82E500220BDE87B
:1023F000F09F3B462A4620210420FFF713F80020D7
:10240000BDE8F09F9AF82A0018B101F06BFD8AF838
:102410002AB09AF82B0020B1052001F04BFA8AF877
:102420002BB0042001F046FA01F0B4FA20208AF81B
:102430002E0009488068C0F800B00848C0F800B015
:102440000120BDE8F09F0000B8110020B80D002069
:10245000381100200000000014040020080500408E
:102460002DE9F04F694E07468DB096F82D0088464D
:10247000202855D096F82D0006F10804C0EBC000C6
:10248000A6F5806909EB800A20208DF8200096F8D7
:102490002C000AAA00EB4000304409A990F8205013
:1024A000F06802903068384400F038FEDAF80C002A
:1024B0000999652F084438D3554A0021D21B71EB86
:1024C000010232D32268821A22F07F42B2F5000F55
:1024D0002BD820F07F406060304684F8108090F860
:1024E0002C000DF1200A202D1CBF4A4901EB801B56
:1024F00050D000BFC5EBC50009EB80086168D8F873
:10250000086008F10800711A0902CA1701EB12618C
:1025100009122DD4C08900283CD0E08948B139E0A7
:1025200040F66831702001F05DFE0DB00120BDE87D
:10253000F08F20680C9001F0CFFCB0F5C67F08BF8B
:102540000D200BD0A0F54070563808BF1C2005D0D8
:10255000A0F500709F3814BF00203220411C0C9859
:10256000301A0002C21700EB12600012884211DA22
:102570008AF8005098F81810207C814205D80298FB
:1025800060600DB00220BDE8F08F0BEB4500457890
:10259000202DAFD1052001F08DF91C4C4FF0FF30FC
:1025A000606094F82C309DF820202021202A03D050
:1025B0000520FEF737FF04E003EB4300204490F8CA
:1025C000200094F82C20134901EB821194F82D205F
:1025D00001EB42014870206838442060FF2084F8F5
:1025E0002900607E012805D1E068401E20F07F4070
:1025F00000F0C4FF9DF82000202803D00648407852
:1026000001F0C4FE0DB00020BDE8F08FB81100202D
:102610000040420F381100201404002070B5244AF5
:1026200092F82D1020293AD092F82D10A2F580634F
:10263000C1EBC10103EB810C92F82C1092F82C40F5
:1026400001EB4101114491F82010A2F1800505EB46
:102650008414202928D0C1EBC10503EB85052D7E0C
:10266000854284BF04EB41014978F2D8C1EBC10136
:1026700003EB8101DCF80C0089681468081A000279
:10268000C11700EB1160001207D402F04DFD04F1F8
:102690006501884224BF001B70BD002070BD40F65C
:1026A0003A31702001F09EFD4FF0FF3070BD000008
:1026B000B811002070B5C0EBC001094800EB8104DF
:1026C00008492069A0FB0156A06802F02DFDE18AAF
:1026D000227D401C11440844401946F1000170BDA0
:1026E000B80D00200080841EF8B56B4D6B4A05F5CF
:1026F0008064012694F82A1008287CD2DFE800F0D4
:10270000047097A9C741AEB319B901F007FC84F86A
:102710002A60E08A10B101F0EDFC80B1FFF7FEFC09
:10272000FF2084F827006168B1F1FF3F03D0052046
:1027300001F00AF840B1607E012810D109E040F6AE
:102740006901702001F04EFD40F66E01702001F02D
:1027500049FDE068401E20F07F4000F00FFF94F834
:102760002D0094F82D10C0EBC00005EB80004068F0
:10277000C1EBC10155F8212001B00121BDE8F040B5
:10278000104794F82B0040B119B901F0C7FB84F849
:102790002A60002084F82B00F8BDFFF7BFFC4FF043
:1027A000FF30606094F827008DF800009DF800006D
:1027B00088B194F82D0094F82D10C0EBC00005EB03
:1027C00080004068C1EBC10155F8212001B006210D
:1027D000BDE8F040104740F68501702001F002FD91
:1027E000FFF79CFC84F8266001F084FC20B194F88B
:1027F0002A0030B109E04AE040F69301702001F070
:10280000F1FC01F08BFB84F82A6094F82D0094F819
:102810002D10C0EBC00005EB80004068C1EBC1018A
:1028200055F8212001B00021BDE8F040104701F02B
:1028300067F9E08A10B101F05DFC28B101F074F98C
:10284000002818BF6677F8BD40F69D01702001F0A2
:10285000C9FC1348066090680660F8BD1078BDE8B2
:10286000F84001F093BDFFF759FC94F82D0094F85F
:102870002D10C0EBC00005EB80004068C1EBC1012A
:1028800055F8212001B00521BDE8F04010474FF474
:102890000B61702001F0A6FCB80D0020140400208C
:1028A000080500402DE9F34F8246ED488DB00068E1
:1028B000EC4DC005C00D0ED0103840B20028B8BF96
:1028C00000F00F0000F1E020ACBF90F8000490F899
:1028D000140D40090DD00E984FF0000B0078002821
:1028E00018BF012818D040F23B714FF0700001F082
:1028F00079FC95F82D004FF0010B202807D00E9899
:10290000007848B140F23771702001F06BFC40F262
:102910003471702001F066FCD34C24B1002140F2E8
:102920003E70AFF300800020CDE90A00CF49CAEB2A
:10293000CA0001EB80004FF00109009024B1002192
:1029400040F24970AFF30080B9F1000F0AD000BF28
:1029500095F82C604FF0000885F82980BBF1000F36
:1029600007D038E0C248002818BFAFF3008062B635
:10297000EEE73746012020EA0706BE48402200EB7A
:10298000871100EB861002F011FD24B1002140F206
:102990005E50AFF3008007EB470106EB4600294489
:1029A00028440A8C028491F8221080F8221024B165
:1029B000002140F26250AFF3008024B1002140F2C8
:1029C0005370AFF3008095F829008DF818009DF83A
:1029D00018000028B2D124B1002140F25D70AFF39D
:1029E000008006A800F00AFDDDE90601CDE9080136
:1029F000334601AA08A80E99FFF72EFA24B1002148
:102A000040F26470AFF300809A4A089902EB86178F
:102A100001A817F81A20012A18BF022A38D1CDF8C8
:102A20002C80019A029BA2EB010222F07F42A3EBD1
:102A3000010121F07F41022A60D3B2F5000F98BF57
:102A4000B1F5000F5AD84FF0010807AB06AA31467E
:102A5000FEF7DCFE002859D09DF818109DF81C20C8
:102A600033468A4256D00520FEF7DCFC07EB4A01CC
:102A700048709DF8180020281CBF07EB400080F824
:102A800001A053D0324651465FF00300FFF7F8FB38
:102A900024B1002140F26970AFF30080764800282D
:102AA00018BFAFF30080EFF3108972B624B1002194
:102AB00040F26F70AFF3008095F829008DF8180090
:102AC0009DF8180000287FF439AF24B1002140F2AE
:102AD0007770AFF300809DE88F1000F10800B8F127
:102AE000000F80E88E1051D024B1002140F2847094
:102AF000AFF30080BBF1000F39D11FE032465146E1
:102B00000420FFF7BDFB4FF00108C1E732465146F4
:102B10000420BBE7202919BF07EB4100407806EBF2
:102B20004600284408BF90F820009FE706EB4601C6
:102B3000294481F820A0CDF82C80A3E70B9810F051
:102B4000FF0F14D095F82D00202810D124B10021BA
:102B500040F28970AFF3008031460220FFF7C2FBDC
:102B60000A9020B90E980078E8B101282AD024B143
:102B7000002140F2A670AFF30080FF20BBF1000FF0
:102B800018BF85F8290026D04FF0010824B1002194
:102B900040F2B770AFF300800A98384E022823D075
:102BA000012829D02DE024B1002140F29170AFF32B
:102BB000008095F82C2051460420FFF761FB4FF070
:102BC0000108E3E7002C3FF4B9AE002140F29C700D
:102BD000AFF30080B2E695F82C200121914385F8EF
:102BE0002C1085F82900CFE7A8680899401A02F050
:102BF0009BFA716821B904E071684FF0FF3001B1B0
:102C00008847B9F1000F24D024B1002140F2C770E9
:102C1000AFF30080B8F1000F11D095F82C0000EB55
:102C20004000284490F82100202808D024B1002139
:102C300040F2CE70AFF30080707801F0A7FB24B1B2
:102C4000002140F2D370AFF300800FB04046BDE8E2
:102C5000F08F0748002818BFAFF3008062B6D3E7B3
:102C600004ED00E0B811002000000000B80D0020C5
:102C700000000000381100200000000014040020B3
:102C800010B5202811D20E4991F82C30A1F1800204
:102C900002EB831C1CF810303BB191F82C3002EB96
:102CA000831212F81020012A01D0002010BD91F8E3
:102CB0002C2001460020FFF7E3FA012010BD0000A0
:102CC000B811002070B50D46064601F001FA0F4814
:102CD00090F82C200024803800EB821010F814109B
:102CE00029B1611CCCB2202CF8D3202070BD08483B
:102CF000C4EBC40140F8216000EB8100214645602F
:102D00000120FFF7BDFA204670BD0000B811002079
:102D1000B80D00202DE9F04F83B000F069FB0546A7
:102D200000F038FE844C6068B0F1FF3F1CBF4FF0EC
:102D3000FF306060A07FDFF8049290B9D4E9021000
:102D4000401A20F07F404FF40C7102F020FAE16845
:102D50000844281A0002C11700EB11600012C00FCE
:102D600012D0607E20B394F827008DF800009DF803
:102D70000000E8B100F06AFC94F82800F0B140F2DD
:102D8000F531702001F02EFA94F82D0094F82D10F2
:102D9000C0EBC00009EB80004068C1EBC10159F8ED
:102DA00021200821904740F2DD31702001F01AFA0D
:102DB000E81C20F07F4000F041FBDDE7012084F8B3
:102DC000280094F82D00202821D094F82D80202070
:102DD00084F82D0084F82E00002084F8260084F862
:102DE0002700206000F0B0FE207794F82C6006EBFE
:102DF0004600071997F82000202858D0C0EBC000E3
:102E000009EB800999F81A00012805D04FE04FF42A
:102E10007E71702001F0E6F9B9F816B001AA694692
:102E2000584600F07BF900F089FE00F05BF994F859
:102E30002D00202804D0E068401D20F07F401DE0D8
:102E400005F1090ABBF1000F16D001F053F998B94A
:102E500001F042F8B0F5C67F08BF0D200BD0A0F5F9
:102E60004070563808BF1C2005D0A0F500709F3870
:102E700014BF0020322082442AF07F40D9F8082075
:102E8000811A0902CB1701EB1361091200290EDC2C
:102E900009F10803824202D29968491E9960D3E978
:102EA0000021891A1860084420F07F40586031469C
:102EB0000120FFF717FA5FEA0009F8D0204800EB7D
:102EC000861010F81800022804D132464146062028
:102ED000FFF7D6F9FF2084F8290097F82100194E52
:102EE00020281CBF707801F051FA207F20B100F03B
:102EF00007FE002020776077B9F1020F11D0B9F1F9
:102F0000010F1CBF03B0BDE8F08F4FF0FF307168B8
:102F1000002904BF03B0BDE8F08F03B0BDE8F04F57
:102F20000847A068401B02F0FFF871680029F4D13F
:102F300003B0BDE8F08F0000B8110020B80D0020EC
:102F4000381100201404002070B5424C054682B0B0
:102F500094F82D00202808D06068B0F1FF3F09D018
:102F600040F6D921702001F03DF940F6D8217020BB
:102F700001F038F994F82D003749C0EBC00001EB9F
:102F80008006B06802F0D0F80246F08A317D334BFB
:102F90000844401C11189A4217D8314A90421BDC51
:102FA000C2F1000C60451EDB56008E42DCBF01F50D
:102FB000F701A1F1F85105DD0029BCBFA1F5F7012A
:102FC00001F1F8514819994204D940F29E517020FC
:102FD00001F008F9954204DD40F29F51702001F0A4
:102FE00001F9654504DA4FF4B461702001F0FAF894
:102FF0008642DCBF00F5F700A0F1F85005DD00289F
:10300000BCBFA0F5F70000F1F85001AA694600F036
:1030100085F89DF804000F288CBF0120002000993E
:10302000084420F07F41616094F827008DF800008B
:103030009DF80000002804BF02B070BD052000F01C
:1030400083FB00281CBF02B070BD4FF42E617020BE
:1030500001F0C8F8B8110020B80D0020FF7F841ED1
:103060000040420F70B51C4C202184F8201084F8D9
:10307000211084F82210002084F82C0084F82D10F0
:10308000421EC4E90002A07784F8260084F82700D5
:103090002077607784F82E1084F82A0084F82B00BB
:1030A000A4F182011022887001F8040F521EFAD197
:1030B00000F054FD094D012684F82860FF20287097
:1030C000074801F045F9687001F0A0F9A86000F028
:1030D000CFFC84F82F6070BDB811002014040020CC
:1030E000A9210000410B48F2376251430A0C094BF9
:1030F000510202FB03020848504300F586306E304F
:10310000400D5B4210FB03F3B2EB532F88BF491C09
:1031100008447047F7C2FFFF6F0C0100430B48F2F1
:10312000376C03FB0CF330B41B0CDFF844C05C02BB
:1031300003FB0C030F4858434FEA505C04EB0C00B0
:1031400043F609541CFB04F404F5807C43F608554F
:10315000A3EB5C2C2C440CF0FF0CB3EB542F84BF7E
:103160004FF0000C401C086082F800C030BC704773
:10317000F7C2FFFF6F0C01002DE9F0413B4DD5F880
:103180000403DFF8EC8010F4803F4FF400664FF04A
:10319000E0274FF0000419D036480068B0B1C5F8F8
:1031A0004041C7F88062D5F84005D8F80010401AB1
:1031B00020F07F40022802D3B0F5000F06D94FF46B
:1031C0008030C5F808030420FFF78EFAD5F8040311
:1031D00010F4003F1AD028480068B8B1C5F844413F
:1031E000C7F880622548D0F84005D8F80010401A8A
:1031F00020F07F40022802D3B0F5000F06D94FF42B
:103200000030C5F808030520FFF76EFAD5F804036F
:1032100010F4802F1AD01A480068B8B1C5F8484198
:10322000C7F880621748D0F84005D8F80010401A57
:1032300020F07F40022802D3B0F5000F06D94FF4EA
:103240008020C5F808030620FFF74EFAD5F80401E0
:10325000002808BFBDE8F081C5F80441C7F88062C6
:103260000948C168491CC160BDE8F08100B0004058
:1032700004B5004040B1004044B1004004B00040FB
:1032800048B1004008B00040200400202DE9F04182
:10329000384D2878042868D0A81C0122017859B13B
:1032A000012908BF6A7002D06978002958D002212C
:1032B0000170407800F0FEFA2F4CD4F804034FF070
:1032C000000810F4002F4FF480774FF0E0260AD06A
:1032D0002A48006838B1032000F0ECFAC6F8807282
:1032E0000320FFF701FAD4F8040310F4802F0AD06A
:1032F0002348006838B1022000F0DCFAC6F880727A
:103300000220FFF7F1F9D4F8040310F4003F0AD0CB
:103310001C48006838B1012000F0CCFAC6F8807271
:103320000120FFF7E1F9D4F8040310F4803F08BF4F
:10333000BDE8F08114480068002808BFBDE8F081AE
:10334000002000F0B7FAC6F8807204202870C5F893
:103350000480C4F80082BDE8F0410020FFF7C4B942
:1033600040F2A3416C2000F03DFFBDE8F041072092
:10337000FFF7BAB920040020008000404C810040D3
:1033800048810040448100404081004001221102F8
:103390004FF0E0230020C3F8801103F5C073BFF3A2
:1033A0004F8FBFF36F8FC3F800110E4941F8042F00
:1033B000431EC1F80433C1F83C05C1F83C010A4B77
:1033C000C3F84005C1F840011B1DC3F84005C1F812
:1033D00044011B1DC3F84005C1F84801CA600349F8
:1033E00048707047008000400480004020040020A6
:1033F000014800687047000004B5004030B4EFF3A6
:10340000108C72B600250B4B0B4A00BFD3F8041585
:10341000D3F804412CB1D168491CD160C3F80451E0
:10342000F4E7D268BCF1000F00D162B6C0E9001227
:1034300030BC704700B00040200400202DE9F04768
:10344000464E0546B71E3378B968012B04BFA94222
:10345000BDE8F0874FF04040414A1060424A414881
:10346000C2F8080302F1040C4FF00004002B62D0F4
:103470003E48C2F84803CCF84045C2F8444100BF7A
:10348000D2F848014FF0E0294FF00108002801BFB1
:10349000D2F8040100284FF40060C9F880024FF40C
:1034A0008030C2F80803C2F84803C2F840413048EF
:1034B000D0F800C0A5EB0C0C2CF07F4CBCF1020F37
:1034C00044D3BCF5000F41D8C2F840554FF4803CBE
:1034D000C2F844C32BB102688A1A22F07F42022A42
:1034E000F9D3C7F804803C70FFF750FF2148D0F8AB
:1034F000041564F30101C0F80415D0F80825022171
:1035000061F30102C0F808250421C0F81015C0F8C5
:103510000C807968C0F800128015C9F88002C9F8DB
:1035200000011549C00508600420BD60707086F870
:103530000080BDE8F087C2F84803C2F84045C2F8F1
:103540004041CCF84045C2F8444199E70020C2F818
:10355000400540F297216C2000F044FE2204002038
:1035600008F50140FDFFFBFF00B00040FDFFFAFF42
:1035700004B500400080004004F5014070B52A4CBD
:10358000A168814214BF01220022DFF8A0C09CF88C
:103590000050022D02D0002A34D002E0002A08BFD9
:1035A00070BD62789AB3224B4FF080421A60214B73
:1035B0009213C3F80823C3F848230022C3F840211C
:1035C0001D4A1668861B26F07F46022E24D3B6F5C8
:1035D000000F21D8C3F840054FF48036C3F8446388
:1035E0002DB11368CB1A23F07F43022BF9D3134B71
:1035F00002214A071A60A06004208CF801008CF8B0
:10360000001070BD40F2A5216C2000F0EBFD40F2EF
:10361000A9216C2000F0E6FD0020C3F8400540F22F
:10362000B5216C2000F0DEFD2004002022040020E3
:1036300008F5014000B0004004B5004004F5014029
:103640000148806870470000200400202DE9F04107
:103650003648354AC0F80823DFF8D4C0031D0021DE
:103660009CF8004084B1334AC0F84823C3F84015A1
:10367000C0F84411D0F848210123002A04BFD0F833
:103680000401002811D10AE0C0F84823C0F8401511
:10369000C0F84011C3F84015C0F84411EAE74FF0F4
:1036A000E0224FF40060C2F88002022C04D040F205
:1036B000C1216C2000F096FD1F4E30681F4CC01CCD
:1036C00020F07F40A2681E4D90420BD03768D71B78
:1036D00027F07F47042F05D3B7F5000F02D8FFF777
:1036E000ADFE1BE03068101A20F07F40022813D393
:1036F000B0F5000F10D8134A4FF08040106063609F
:1037000021706B60EB604000111F086004208CF892
:1037100001008CF8003001E0636021706068C5F83A
:103720000002BDE8F0810000FDFFFBFF00B000409B
:1037300022040020FDFFFAFF04B500402004002011
:103740000080004008F501402DE9F041544A002571
:10375000012492F800C053784FF4A07607287DD258
:10376000DFE800F004040404585858004D4A9768F4
:10377000B7F1807F04BF5278002A03D0BCF1020F5A
:1037800005D026E040F251316C2000F02BFD1A1FCD
:10379000D2B206EB820202F1804606F530460022E4
:1037A000BCF1010F03D0BCF1020F08D00EE0042BD6
:1037B00024BF3768002F08BF4FF0004206E0042BFB
:1037C00024BF3768002F08BF42F0804212F0804FBC
:1037D000E5D1DFF8D4C000F1100204FA02F2CCF80F
:1037E00008234FF0400303EB8003DBB263441C600B
:1037F0000CEB8000D0F84035A1EB030323F07F43AE
:10380000032B26BFC0F84015CCF80423C0F8405560
:1038100037D23CE0BCF1000F06D0834204D140F225
:1038200071316C2000F0DEFC021FD3B2032B04D3F5
:103830004FF4E6716C2000F0D5FCDFF870C003F1A6
:10384000100204FA02F2CCF80823CCF8482306EB65
:1038500083034CF80350164B1B6800E01AE0001F6E
:10386000CB1A23F07F43C0B20CEB8000022B0BD3AA
:10387000B3F5000F08D8C0F84015CCF80423CCF8F5
:1038800044230120BDE8F0810021C0F8401500204C
:10389000BDE8F08140F275316C2000F0A3FC00001F
:1038A00022040020200400200080004000B00040DE
:1038B00004B500402DE9F843012600274FF4A07815
:1038C000072851D2DFE800F0040404041919190094
:1038D00000F1100106FA01F22649C1F8082301EBB4
:1038E00080030022C3F8402508EB80028F50224954
:1038F00051F820000090BDE8F883204D011FCCB2A4
:10390000297879B16A7882420CD11D4A4FF0404043
:103910001060012908BFFFF739FD2F7019494FF0DA
:1039200080708860184904F1100006FA00F0C1F8B0
:103930000803C1F84803A0000844D0F84005134A22
:103940001268801A20F07F40022807D301EB84021E
:103950000020C2F8400508EB84000F500C4850F8D6
:1039600024000090BDE8F88340F2F9316C2000F0AB
:1039700039FC00000080004040810040220400200B
:1039800008F501402004002000B0004004B50040CC
:1039900040B100402548244AC0F808232449031DAB
:1039A00091F800C00021BCF1000F10D0214AC0F8EE
:1039B0004823C3F84015C0F8441100BFD0F848218F
:1039C000002A04BFD0F80401002811D10AE0C0F891
:1039D0004823C0F84015C0F84011C3F84015C0F89E
:1039E0004411EBE74FF0E0224FF40060C2F8800290
:1039F00011484FF0FF32C0F80823C0F84015C0F856
:103A0000401100F10402C2F84015C0F8441102F15F
:103A10000402C2F84015C0F8481102F10402C2F8CD
:103A20004015C0F84C117047FDFFFBFF00B000408F
:103A300022040020FDFFFAFF0080004010B5072897
:103A40000DD2DFE800F0040404040606060006496F
:103A500002E0001F0549C0B201EB800010BD40F23A
:103A600099316C2000F0BEFB4081004040B1004025
:103A700070B51F48002404210470801E0170890560
:103A8000C4608160FFF782FC01254FF0E02CEB025F
:103A9000CCF88031BFF34F8FBFF36F8FCCF88032FB
:103AA00014484560856014490A68002AFCD1511EFB
:103AB000C0F80813C0F84813C0F84045C0F84041AA
:103AC0000E49C1F84045C0F84441091DC1F84045C0
:103AD000C0F84841C0F80441CCF8003105604FF40B
:103AE0008271C0F844130221C0F8041370BD0000B5
:103AF0002204002000B0004004B5004004B00040A3
:103B0000084890F900000028B8BF704700F01F0176
:103B1000012202FA01F14009800000F1E020C0F822
:103B200000127047840400200348007803280CBF6B
:103B300001200020704700008004002001484088D8
:103B4000704700008004002003480078022816BF58
:103B50000328012000207047800400200248002133
:103B60000170418070470000800400202DE9F04181
:103B7000164C607A002827D04FF480718D052846B6
:103B800001F029FB80464FF48271284601F023FBA7
:103B900000260746B8F1000F09D00120C5F8080338
:103BA000207920B12671E06908B18047E66137B11C
:103BB000C5F804610220C5F8080300F047FA404642
:103BC000BDE8F04100F058B8BDE8F08130040020B5
:103BD00010B501F0AAFB30B901F0C8FB18B901F02B
:103BE000DBFB002802D002490220086010BD000063
:103BF000340C004070B500F091F900F07BFA094CEC
:103C00004FF0804530B1FFF7E3FF01202861042029
:103C1000A07204E00320A0720120C5F80403002074
:103C2000E07170BD3004002070B5124CA079E0B195
:103C3000E179401E814218DA00F05CFA054600F096
:103C400045FBA179012902D9E179491CE1710DB146
:103C5000616900E02169411A022902DA11F1020FBB
:103C600007DC0DB1606100E02061BDE87040FFF746
:103C7000C1BF70BD300400202DE9F04706464FF06B
:103C800080454FF48671284601F0A5FA80464FF42E
:103C90008871284601F09FFA274C8246277804F164
:103CA000080001F00CFB10B140F2B91116E04FF022
:103CB000010946B1A07A032805D10420A072FFF7BC
:103CC00087FFC5F810900026B8F1000F18D0C5F88E
:103CD0000C61A07A042804D040F2CB116D2000F0D2
:103CE00081FA01F022FB28B901F040FB10B901F084
:103CF00053FB08B1114806600220A07200F0F2F8F0
:103D0000BAF1000F08D0C5F81061A07A022801D1DD
:103D1000FFF78AFFC5F814903FB12670A07A0228F9
:103D200001D1FFF767FF00F0DDF8BDE8F04702487A
:103D3000083001F0DBBA000030040020340C0040F1
:103D40002DE9F0475F4C00270646A761427881784D
:103D50000078E0726271A171E7714FF001084FF0D5
:103D60008045052825D2DFE800F010030620220058
:103D7000C4F8188009E000F0D1F80121284601F0CC
:103D80002FFA0028F9D00220A06101F055FAB0B155
:103D900000F0CAF9217E01F0030188420FD1B07909
:103DA00050B10220C5F8040370E04748ECE74748EB
:103DB000EAE740F23A314DE000F08AF966E0C5F8F2
:103DC0000C804FF4827AC5F80471A069C5F8180513
:103DD00001F097FA40B901F09EFA28B901F0B2FA61
:103DE00010B901F0C3FA38B14FF08050D0F8440256
:103DF0003749C0F34230086001F083FA40B901F05E
:103E00008AFA28B901F09EFA10B901F0AFFA18B198
:103E10002F491031C1F80080C5F808800220C5F88C
:103E20000403B07990BBD5F8040310F0020F0FD053
:103E3000DFF8A090D9F80010C94341F3001101F157
:103E40000108D9F8001041F01001C9F8001007E08E
:103E500040F2FB216D2000F0C5F900BF00F0ECFA44
:103E60005146284601F0B7F90028F7D000F030F9A4
:103E7000B8F1000F05D1D9F8001021F01001C9F8F0
:103E800000100220C5F80803C5F80471A07970B1CC
:103E9000307860B900F02EF9064600F017FA6FF09E
:103EA000004116B1C4E9041001E0C4E90401012194
:103EB000284601F095F908B100F016F9A772BDE89F
:103EC000F087000030040020010002000100030020
:103ED0003C05004010ED00E00148C089704700003B
:103EE0003004002010B5EFF3108472B60A48417810
:103EF00029B14178491E4170417829B108E04FF459
:103F00008E716D2000F06EF9807808B900F000F92C
:103F1000002C00D162B610BD3004002010B5EFF3C4
:103F2000108472B606484178491C417040780128D7
:103F300001D101F06CF9002C00D162B610BD000077
:103F400030040020054810B5C17821B1002101716D
:103F5000C170FFF7C7FF002010BD00003004002033
:103F600070B50C4CE17861B90125E570E061FFF7AF
:103F7000D5FF00F0BFF830B1E06910B180470020F4
:103F8000E061002070BD4FF080402571C0F80453FF
:103F9000F7E70000300400202DE9F04105006FF044
:103FA00015003FD0297804293CD8002969783BD0F6
:103FB000002937D1A978002934D1002001F0D6F8A2
:103FC000002001F0C6F84FF080484FF0FF31C8F8EC
:103FD00008130026C8F80061C8F80461C8F80C612D
:103FE000C8F81061144C6670A888A08101F006F929
:103FF000012708B1E77067700121404601F0F0F831
:1040000008B100F071F840F2F550E0812846FFF762
:1040100097FE6772002001F09CF84FF0E0213046D7
:10402000C1F80071BDE8F0810029FBD02029F9D842
:10403000A9782129C1D9F5E7300400200248807A07
:10404000002800D00120704730040020F8B51F4D33
:10405000E87A00280FD1287E00F0030001F0DCF898
:10406000002808D0EFF3108172B6FFF7E7FF18B110
:10407000002900D162B6F8BD0126AE7201B962B660
:1040800018204FF08044C4F80803A6614FF4207054
:10409000ADF80000BDF80000411EADF80010F9D2E7
:1040A0000027C4F80C71C4F810710848083001F0FA
:1040B00019F92F70FFF79EFD6661687900F07F00A7
:1040C000C4F838051820C4F80403F8BD30040020F3
:1040D00010B5044C207E00F0030001F09DF800288C
:1040E000F8D010BD3004002001490120087070474D
:1040F000850400204FF08040D0F8000118B9034833
:104100000078002800D001207047000085040020BE
:104110004FF08040012141600021C0F800110148AA
:1041200001707047850400200248006800F0030019
:10413000704700001C04004010B531B1012907D0C0
:1041400040F2023105A000F021F8D0F8140401E09B
:10415000D0F8080400F0010010BD00006E72665F28
:10416000636C6F636B2E6800BFF34F8F0548016867
:10417000054A01F4E06111430160BFF34F8F00BFB6
:10418000FDE700000CED00E00400FA0572B6034AFA
:10419000526802B19047FFF7E7FF0000500400208B
:1041A000064810B50021016001210160084601F0B8
:1041B0005AF8BDE81040012001F048B8FC1F00404B
:1041C000074810B501214160891EC0F808130C2072
:1041D00001F049F8BDE810400C2001F037B80000AC
:1041E00000C000400EB572B60F4A5568D5B1002226
:1041F00003466E460A2403E0B0FBF4F0521CD2B230
:104200000028F9D1B05409E0B3FBF4F004FB1030FE
:10421000B3FBF4F3521ED2B23030B054002AF3D1C3
:104220003046A847FFF7A0FF500400202DE9F041D9
:10423000184C0646174660780D4618B14FF0FF300F
:10424000BDE8F081FCF7C6FF06B9134E6760257024
:10425000FFF7A6FFFFF7B4FF3046FFF79DFE06000D
:10426000EED1FEF7FFFEFFF7F1FE00F0C2FE28469A
:1042700000F0ECFF0120002D09DB05F01F0100FA22
:1042800001F16A09920002F1E022C2F800116070A7
:104290003046D5E75004002088520000014840789D
:1042A0007047000050040020074890F900000028E3
:1042B00009DB00F01F02012191404009800000F15C
:1042C000E020C0F800127047500400202DE9F041B2
:1042D00001264FF0E02231034FF000084046C2F8BB
:1042E0008011BFF34F8FBFF36F8F164CC4F80001DE
:1042F0000C2000F0D7FF144D2868C04340F300178E
:10430000286840F010002860C4F8046326607F1C11
:1043100002E000BF00F090F8D4F800010028F9D0C6
:104320001FB9286820F010002860084805686660FA
:10433000C4F80863C4F800810C2000F0B3FF2846DD
:10434000BDE8F08100C0004010ED00E008C500406D
:1043500010B5024605200C4904E000BF01EBC00384
:104360001B7933B1401EC0B2F8D248216920FFF753
:1043700039FF41F8302001EBC00100224A718A71F7
:1043800001220A7110BD0000E811002010B50528B7
:1043900001D3582106E00A4901EBC0000179012947
:1043A00003D059216920FFF71DFF41798279491C0B
:1043B000C9B28A4200D04171BDE81040FFF774BF16
:1043C000E811002070B505250E4E0F4C16E021783F
:1043D00006EBC1000279012A08D1427983799A4219
:1043E00004D04279827156F8310080472078401C11
:1043F000C0B22070052801D3002020706D1EEDB2E0
:10440000E5D270BDE81100208604002000B500F060
:1044100078FF40B900F07FFF28B900F093FF10B992
:1044200000F0A4FF08B1024800BD024800BD000032
:104430000C05004000E7014010B500F097FF30B3D5
:10444000EFF31080C8B1002172B612480268036809
:10445000C2F3001243F0100303604FF0E023D3F8DF
:104460000042D3F804321C4300D040BF20BF00BF3D
:1044700000BF00BF00BF12B105E00121E4E7026800
:1044800022F010020260002900D062B610BD20BFE9
:1044900010BD000010ED00E0014909688968084777
:1044A0005804002001490968096908475804002098
:1044B0000148006840680047580400200149096825
:1044C0000968084758040020755500006D55000024
:1044D000615500007155000069550000094810B58C
:1044E0008178042908D010290AD0202908D040F268
:1044F000CD116B20FFF776FE102181701FF0FEFCBE
:1045000010BD00005C0400200B4810B5017831B1EB
:10451000EFF3108472B68178102905D008E040F2DC
:104520001B316B20FFF75EFE08218170FEF7F2FB66
:10453000002C00D162B610BD5C04002070B5124C96
:10454000207858B1EFF3108572B6607948B102282F
:1045500009D04FF439716B20FFF744FE40F2D121AE
:10456000F9E7012003E0A1780020042901D060715F
:1045700002E060711FF0B2FC05B962B6E078BDE8F8
:104580007040FFF703BF00005C0400200E4810B528
:10459000017859B1EFF3108172B642794AB1012A1C
:1045A00009D04FF443716B20FFF71CFE4FF43F71AD
:1045B000F9E7022200E00022427101B962B6C07838
:1045C000BDE81040FFF7E2BE5C04002010B5134CBC
:1045D000207810B140F28D211DE000206070012094
:1045E000A0700F484FF4C851016005210181B72127
:1045F00041810C4941600C48FFF7AAFEE0700021A0
:104600000A48FEF75FFB2071202802D001202070AD
:1046100010BD4FF427716B20FFF7E4FD5C04002010
:10462000980D0020FF3F420F5547000085460000CF
:10463000114810B58178042901D0002010BD80797F
:10464000A8B1FEF7D5FE441C012000F07AFD001B46
:104650000002C11700EB11600012002800DC0020EE
:104660000649A0FB0101C00B40EA414010BD0448CF
:1046700001684089081A10BD5C04002040420F0008
:10468000980D002070B50E46FEF7B2FE00252E4CA8
:10469000082E31D2DFE806F030043B3B211C4C41B0
:1046A0000121022000F000F9607858B10420A070C8
:1046B00026480068A060A571607902283FD01FF0ED
:1046C0000DFC3CE02020A070BDE87040FEF722BB4E
:1046D00040F215216B20FFF785FD607800280BD094
:1046E000A078042809D04FF0E0210220C1F8800111
:1046F000BFF34F8FBFF36F8F70BD00F073F818B129
:104700001348D0F84401B0B90DF03EFA70BD012154
:10471000022004E00120A07070BD0121282000F0DB
:10472000C3F860780028F5D0BDE8704000F096B876
:1047300000F058F818B1BDE87040FFF7CFBEBDE8F3
:10474000704000F057B800005C040020980D002075
:1047500000B0004070B5EFF3108472B6204D002019
:1047600069796871C1B3012906D0022918D084F390
:1047700010884FF4D77128E084F31088687810B15E
:1047800040F25B1121E00021142000F08DF801209F
:104790006870A878012821D1BDE8704000F05EB8AB
:1047A000697849B16870A878082815D007DC022814
:1047B00012D0042807D10BE04FF4B67105E01028A1
:1047C00006D0202808D04FF4C4716B20FFF70AFDF3
:1047D0002020A870FEF79EFA84F3108870BD0000B8
:1047E0005C04002002488079012800D00020704736
:1047F0005C04002070B50320FDF710FF154D2968FB
:10480000814200D8084606460321FDF729FE124CD6
:10481000012130B1012818D04FF4A7716B20FFF7A8
:10482000E1FC2868B042A06806D1FEF78DFB28683D
:10483000A1680844A06070BD3044A060A17169897E
:10484000401ABDE87040FEF77FBBA1716889A1687E
:10485000081AF6E7980D00205C04002010B5182215
:1048600000210F4800F01CFE0D48012101700021BD
:1048700001810321817200F118010A6842604968D0
:10488000016108480221817005490079FEF70AF8A4
:10489000002804D14FF483716B20FFF7A3FC10BDF7
:1048A000800D00205C0400200B4A10B5927812B1F4
:1048B000531E1A4201D0E02109E021B102409006C6
:1048C00008D1E52103E08243900603D1E9216B2062
:1048D000FFF788FC10BD00005C04002001490120A6
:1048E0008870704768040020F75500002F560000BC
:1048F000195600000756000013560000015600002C
:10490000F5550000F35500002B5600001F5600001F
:104910000D560000FB550000ED550000E555000068
:10492000E9550000DF55000001480068C06B0047F2
:104930007C040020014A1268126B10477C0400209E
:1049400001490968896908477C040020014800681A
:10495000006800477C040020014800684069004767
:104960007C040020014A1268D26810477C040020B1
:1049700001480068006900477C040020014A126871
:10498000926810477C04002001490968496A084779
:104990007C040020014B1B685B6818477C040020E6
:1049A0000148007870470000870400202DE9F04797
:1049B00086468C460846089E154674461946002BC6
:1049C00040F0C2808542B2FA82F245D94AB1C2F1C2
:1049D000200300FA02FC2EFA03F3954043EA0C0C84
:1049E00094404FEA154EA8B2BCFBFEF8230C0EFB18
:1049F00018CC08FB00F943EA0C43994528D9EB1879
:104A000008F1FF3704D2994502D9A8F102072B44D7
:104A1000A3EB0903A4B2B3FBFEFC0EFB1C330CFB9F
:104A200000F044EA0344A04214D92C190CF1FF33DE
:104A300004D2A04202D9ACF102032C44241A43EA66
:104A400007401EB1D440002334607360BDE8F08796
:104A50004746DDE76346F1E792BB431B01214FEA7E
:104A6000154EAFB2B3FBFEFC200C0EFB1C330CFB4F
:104A700007F840EA0343984562D9EB180CF1FF3080
:104A800004D2984502D9ACF102002B44A3EB0803F1
:104A9000A4B2B3FBFEFC0EFB1C330CFB07F744EA8D
:104AA0000344A7424ED92C190CF1FF3304D2A7427C
:104AB00002D9ACF102032C44E41B43EA0040C0E7F6
:104AC000C2F1200320FA03F1954090402EFA03F33F
:104AD00003434FEA154EAFB2B1FBFEFC0EFB1C10B8
:104AE000190C0CFB07F841EA0041884504FA02F46E
:104AF00022D969180CF1FF3004D2884502D9ACF1F3
:104B000002002944A1EB08019BB2B1FBFEFC0EFBA5
:104B10001C110CFB07F743EA01439F420ED9EB1827
:104B20000CF1FF3104D29F4202D9ACF102012B44B7
:104B3000DB1B41EA004192E76046E3E76146F7E7A5
:104B40006046A3E76346B7E7834206D916B900215A
:104B500008467BE7C6E900E0F9E7B3FA83F78FB9C7
:104B6000834201D3724508D8BEEB020460EB030315
:104B700001209C461EB9002168E73846FAE7C6E9DD
:104B8000004CF8E7C7F1200CBB4022FA0CF41C43A0
:104B90002EFA0CF120FA0CF3B84001434FEA144905
:104BA0000EFA07F5B3FBF9F81FFA84FE09FB18307B
:104BB0000B0C08FB0EFA43EA00439A4502FA07F28F
:104BC00040D9E31808F1FF3004D29A4502D9A8F180
:104BD00002002344A3EB0A0389B2B3FBF9F809FBF3
:104BE000183308FB0EFE41EA03418E452CD96118AB
:104BF00008F1FF3304D28E4502D9A8F10203214403
:104C000043EA0040A0FB0298A1EB0E014145CE46CD
:104C1000434602D306D14D4504D2B9EB020E68EBF0
:104C200004030138002EA6D0B5EB0E0261EB0301A0
:104C300001FA0CFC22FA07F34CEA0303F940C6E937
:104C4000003198E74046C5E74346D9E7042802D239
:104C50004FF02800704702D14FF0100070474FF01E
:104C6000000070472DE9F0410D0004464FF00206A8
:104C70004FF0010708D02878D0B1012807D00228CA
:104C800014D003283ED116E080F829700EE0686841
:104C9000C82803D30321FDF7E3FB08B1002607E092
:104CA0002046696800F043F9012601E0FCF72AFB81
:104CB0003046BDE8F08194F824000028F6D16868F9
:104CC000FCF7F2FAF0B16968087830B194F8260080
:104CD000052808D04FF4BE7111E0204600F02FF9EE
:104CE00084F82570E2E7204600F042F994F82700A6
:104CF000214600F00AF80028D8D14FF4BF716A208D
:104D0000FFF770FA84F82970D0E7FDF7CBBD2DE9E5
:104D1000F0410D4604000CD094F8286000270220D2
:104D2000092D70D2DFE805F008113535657088A5CA
:104D300093004FF4CB71F7E094F8260004287AD062
:104D40000328FCD040F2A111EEE094F826000428DC
:104D500004D0032802D040F2A511E5E0052084F834
:104D6000260084F8297094F82400B0BB0021204666
:104D700000F0DDF82078012806D0D4E90401C4E968
:104D800006010021226A48E094F82700FDF792FC12
:104D9000F5E794F82610042904D0032902D040F244
:104DA000C311C1E094F8242022B12146304600F01E
:104DB000FEF8B1E0042900D0012084F82600226A20
:104DC000022D0BD006213046904700286DD0007888
:104DD00000286AD040F2DD11A6E034E0052130461B
:104DE000904700287CD00078002879D04FF4EC71EF
:104DF0009AE094F82600052802D04FF4F27193E06F
:104E00000221226A09E07EE094F82600052802D0FB
:104E10004FF4F57188E0226A01213046904701463F
:104E20002046FFF71FFF022876D0E8B301286DD097
:104E300040F22A2178E071E094F82600052802D09B
:104E40004FF4F87170E0BDE8F041FCF75BBA94F8FC
:104E50002600052802D040F2F51165E0226A0A21F9
:104E60003046904701462046FFF7FCFE4FF4FC71A8
:104E70005AE094F82610052907D094F825200AB1A5
:104E8000032902D04FF4FE714EE094F8241029B1AA
:104E900021463046BDE8F04100F089B894F8291069
:104EA00099B184F8297001E033E035E084F82600F8
:104EB000226A082130469047002811D00078002847
:104EC0000ED04FF402712FE00AE094F8251061B182
:104ED00094F827002146FFF718FF18B184F82570D1
:104EE000BDE8F0814FF403711EE084F82600226AC9
:104EF0000721304690470028F2D000780028EFD0F4
:104F00004FF4057110E040F219210DE00421226AEE
:104F100083E70321226A80E7002DE1D100F0FBF84E
:104F20000028DDD040F233216A20FFF75BF902460A
:104F300003784068084450605938FEF705B80122EC
:104F400002700022C2720A7972B1002202814A798B
:104F500062B1032282728A686A324260C968016162
:104F6000032180F8261070472B22EFE70222F1E799
:104F700010B500220270C2720A79A2B10022028129
:104F80004A7992B103228272CA686A324260D0E9D9
:104F900006428968CB1761185A41C0E904120421FE
:104FA00080F8261010BD2B22E9E70222EBE770B54E
:104FB00005460C4691F82700FDF762FE78B12046C1
:104FC00000F010F8226A092128469047002808D0EE
:104FD0000078002805D0DC216A20FFF703F9D821EA
:104FE000FAE770BD002180F8261000F8241F4170F8
:104FF000704770B5FCF7E2F90546002406E020464C
:10500000FCF7E2F9FFF7EEFF641CE4B2AC42F6D322
:1050100070BD2DE9F0410D46FCF7D6F9040008D02B
:1050200094F826006FF02206012806D0022811D13C
:1050300003E06FF00100BDE8F0816FF015075DB18E
:105040002846FCF731F938B1287838B194F82600B1
:10505000022808D03046EEE73846ECE729462046DD
:10506000FFF76DFF03E029462046FFF781FF94F824
:1050700027002146FFF749FE08B10020DBE740F298
:10508000B1216A20FFF7AEF810B50446FCF79CF991
:10509000010005D091F824006FF0220278B902E0F7
:1050A0006FF0010010BD91F8260040B1022808D031
:1050B000012806D0012081F82400002010BD1046F0
:1050C00010BD2046FFF773FFF7E72DE9F0410E46CC
:1050D0000746FCF773F9054600240BE02046FCF771
:1050E00073F990F8260018B14FF0FF30BDE8F08159
:1050F000641CE4B2AC42F1D3082E02D96FF0150063
:10510000F4E717B13146384601E000210846BDE812
:10511000F041FCF73FB910B50020FEF78FFC0068A6
:10512000002818BF012010BD410A43F6095251431F
:10513000C0F3080010FB02F000F5807001EB502076
:105140007047800000F1804000F53040D0F8400505
:105150007047002809DB00F01F020121914040093F
:10516000800000F1E020C0F88012704700280DDBBD
:1051700000F01F02012191404009800000F1E02071
:10518000C0F88011BFF34F8FBFF36F8F704770B5BA
:105190000246002000291DD0A2FB0101400A40EA7E
:1051A000C150490A401C41F1000140F2A17283182C
:1051B00041F100015B1C41F100040021D3F1FF33F8
:1051C000A14103D272216D20FFF70CF800F5F460C5
:1051D000B0FBF2F070BD4058002800D001207047AD
:1051E000D0F80C24D0F80C0402F00102C00303D55F
:1051F0008A4201D1012070470020704710B501217B
:105200008807FEF799FF002800D0012010BD4FF05D
:1052100080400121016070474FF08041D1F818248F
:10522000D1F8181402F00302C90303D5824201D158
:10523000012070470020704710B500214FF08040DA
:10524000FEF77AFF002800D0012010BD002809DBFE
:1052500000F01F02012191404009800000F1E02090
:10526000C0F88012704700280DDB00F01F020121FA
:1052700091404009800000F1E020C0F88011BFF3A8
:105280004F8FBFF36F8F704700100200FA000000CD
:10529000B8ED4DAAF20E0232EAB5DE2F50D1B75A60
:1052A000B5D2C741002809DB00F01F02012191405F
:1052B0004009800000F1E020C0F880127047EFF351
:1052C000108172B60278012A01D0012200E000228A
:1052D0000123037001B962B60AB1002070476FF074
:1052E000220070470021017008467047EFF31081DB
:1052F00072B60022027001B962B600207047FFF753
:1053000061B84FF08050D0F830010F2801D0002054
:105310007047012070474FF08050D0F830010A28C4
:1053200001D0002070470120704700B5FFF7F3FF60
:1053300020B14FF08050D0F8340108B1002000BDFA
:10534000012000BD4FF08050D0F830010E2801D070
:1053500000207047012070474FF08050D0F8300196
:10536000102801D000207047012070474FF0805076
:10537000D0F83001062803D0401C01D0002070472F
:10538000012070474FF08050D0F830010D2801D037
:1053900000207047012070474FF08050D0F8300156
:1053A000082801D00020704701207047F0B480EA3F
:1053B000010C03461CF0030F3CD113F0030F0BD07C
:1053C000002A04BFF0BC704711F801CB03F801CBF1
:1053D000521E13F0030FF3D1032A4FD9B2F1004F3D
:1053E0004CD2C2F1000C4FEAEC740CEB947C4FEA07
:1053F000AC0CCCF1000CBCF1000F1BDD0D1F1C1F11
:105400001CF0010F03D055F8046F44F8046F5FEAF5
:105410006C0607D06F68676055F8087F44F8087F0E
:10542000761EF7D101EB8C0103EB8C03CCF1000C61
:1054300002EB8C02002A04BFF0BC7047B2F1004FAF
:1054400026D2002ADCBFF0BC7047491E5B1E12F05A
:10545000010F03D011F801CF03F801CF521004BFA0
:10546000F0BC704791F801C083F801C011F802CF79
:1054700003F802CF521EF5D1F0BC7047042AD9D3ED
:1054800051F804CB121F43F804CB042AF8D2D1E719
:1054900011F801CB03F801CB521EF9D1F0BC7047D3
:1054A00070B4034601F0FF0C10F0030F09D0002A7E
:1054B00004BF70BC704703F801CB521E13F0030FFA
:1054C000F5D1C9B241EA012141EA0145032A39D99E
:1054D000B2F1004F36D25142CC1701EB94718910D2
:1054E0004E42002E11DD191F16F0010F18BF41F8B2
:1054F000045F741004D04D6041F8085F641EFAD157
:10550000714203EB860302EB8102002A04BF70BCE8
:105510007047B2F1004F1DD2002ADCBF70BC70474B
:10552000591E12F0010F18BF01F801CF521004BF2D
:1055300070BC704781F801C001F802CF521EF9D14A
:1055400070BC7047042AE0D3121F43F8045B042A9E
:10555000FAD2DAE703F801CB521EFBD170BC7047D8
:10556000072101700020704700207047002070471D
:105570000020704708B1002070476FF01500704799
:1055800010B50446FFF754F8A04201D9012010BD20
:10559000002010BD7CB504460B3815460F2801D9F4
:1055A0004E2108E0C0B20A46014601AB0420FBF7D9
:1055B0005BFE18B157216420FEF714FE04EB840251
:1055C00069469DF9040002F62E12FFF7E3F99DF8F3
:1055D00000102970BDF80110A5F801107CBD4FF036
:1055E000FF30704700207047002070474FF0FF30B9
:1055F0007047704770470020704700210170704766
:105600004FF0FF3070474FF0FF30704700210170BE
:1056100070474FF0FF3070474FF0FF307047007811
:10562000002801D06FF0150070470020704700225D
:1056300000F002B8FBF7CEBD70B514460D46001B56
:105640006FF07F01884201DA084602E07F2800DD22
:105650007F2040B2FBF7F2FD28706C7000212044DF
:10566000A97040B270BDD8ECF0F4F8FC000203045D
:105670000506070800000000000000000000000010
:10568000000000000000000001010101020202020E
:1056900003030303040404040505050506060708BF
:1056A000090A0B0C0D0000000000000000000000C3
:1056B00000000000000000000001010101020202E0
:1056C0000203030303040404040505050506060696
:1056D00008090000000000002DE9F04F9FB082464D
:1056E000039116461C460025307810B9284600F074
:1056F00085BD731C2528069306D00399D047002842
:10570000C0F27C85013527E21822002110A84BF059
:1057100018FB7378252B7DD00023701C98469E467D
:105720009C461F46014610F8012B2B2A00F0A18051
:1057300000F29880202A00F09F80232A00F09F80AA
:105740002BB19DF8483043F040038DF84830B8F154
:10575000000F05D09DF8483043F020038DF8483005
:10576000BEF1000F05D09DF8483043F010038DF8CE
:105770004830BCF1000F05D09DF8483043F00803D5
:105780008DF848302FB19DF8483043F004038DF870
:1057900048309DF8483003F04400442803D16FF3AB
:1057A00086138DF848309DF848302A2A43F080034C
:1057B0008DF848307FD19DF8492042F001024B1C02
:1057C0008DF849201A782E2A9DF849200CBF012116
:1057D000002161F341028DF8492078D15A782A2AB4
:1057E0006ED0013300224FF00A0C194611F8010B5C
:1057F000A0F13007092F40F2AD809DF848101492B7
:10580000C1F3400040EAD2700A4660F341028DF8CD
:1058100048205CE0B21C06928DF84B309DF8493070
:10582000D90740F1508154F8042B0492002A08DA79
:105830009DF8482042F004028DF84820049A524214
:1058400004925A0740F1478154F8047B002F80F2FC
:1058500046819DF849306FF341038DF849304FF090
:10586000FF373CE12D2A0DD0302A7FF469AF0123A8
:1058700058E74FF0010C55E74FF0010E52E74FF09B
:1058800001084FE701274DE70EFB0272303A03464D
:10589000184610F8017BA7F1300CBCF1090FF3D9C1
:1058A00099428FD09DF848101392D20F62F34101B4
:1058B0008DF8481086E70B4600224FF00A0EE7E706
:1058C0009DF8492042F004028DF8492002331A78ED
:1058D0006C2A5FD043D8682A49D06A2A63D04C2A00
:1058E00069D013F8012B0693782A8DF84B2000F22B
:1058F000A9806D2A6CD8692A00F2A480572A00F288
:105900008480412A04D0A2F14503022B00F29A8040
:105910009DF84A3002F0DF020421A2F1410761F351
:1059200002037A429DF849108DF84A307A4162F3B9
:10593000C7110A068DF84910CBB200F1C28003F0FE
:105940007802182A40F0AC806FF3C6038DF8493016
:1059500000239BE00CFB0202303A0B4645E7742A19
:1059600025D07A2ABDD19DF8492006210CE05A782D
:10597000682A9DF8492006D1012161F3C6028DF8FD
:1059800049200233ADE7022161F3C6028DF84920B8
:105990000133A6E75A786C2A9DF8492001D10421E9
:1059A000EBE70321F0E79DF849200521ECE79DF89E
:1059B00049200721E8E7BDF8482022F4F04222F010
:1059C000020242F4804242F00202ADF84820DFE7D2
:1059D0006E3AD3B201229A4040F282431A429DF8B5
:1059E000493036D112F0240F5ED1D1072AD59DF867
:1059F0004A2003F07803A3F14000032161F302027F
:105A000043428DF84A20434140E0A2F15801C9B217
:105A1000012000FA01F111F4624F7FF479AF40F6F2
:105A2000010319429DF8493019D111F4043F09D0FE
:105A30009DF84A2060F3020203F07803402B8DF8B2
:105A40004A2085D19DF8483043F001038DF8483055
:105A50007EE79DF84A20022161F30202ECE79DF8FF
:105A60004A10022003F0780360F30201402B8DF806
:105A70004A1002BF9DF8481041F001018DF848100E
:105A8000632A7FF465AF003B18BF01239DF84820CF
:105A9000C2F340010B4363F341028DF84820BDE699
:105AA00013F0380FCED153E79DF84A20032113F0AD
:105AB000780F61F302028DF84A2014BF01230023FE
:105AC000E4E70123E2E79DF94820002AB4BF139AD6
:105AD0004FF0FF32B4E69F077FF5C1AE149F00235D
:105AE000CDE913339DF84A3003F00702042A9DF8EC
:105AF000492007D1900705D49DF949100029ACBF72
:105B000006270D2703F00703012BC2F3C30233D18D
:105B1000D31E042B04D8DFE803F0214646212100E0
:105B20002368012A4FEAE371CDE910311CD19DF9B8
:105B30004030D917CDE9103104349DF8483007932F
:105B4000990750D0069B0399324650464AF06BFEA7
:105B50000028C0F253830544069EC5E554F8043B73
:105B6000D917CDE91031E8E7022AE5D119B243F39C
:105B7000C033CDE91013DFE7022B24D1D31E042B51
:105B800004D8DFE803F0181010181800012A54F8A0
:105B9000043B4FF0000114D0022ACDE91031CCD1E2
:105BA0009BB21093C9E7073424F00704F4E802011C
:105BB000CDE91001C1E754F8043B10930023119381
:105BC000BBE7DBB2CDE7042B08D1073424F0070490
:105BD000D4E900010834CDE91001AEE7032BACD1C4
:105BE00054F8043BDDE79DF84BB0BBF1780FB3D818
:105BF000BBF1570F49D8BBF1250F00F09180BBF1E5
:105C0000240FA9D9BBF1410F03D0ABF14502022A01
:105C1000A2D8DDE91012002AC0F23681079B1E07C8
:105C200000F13581C3F300194FEA4919C2F30A5054
:105C3000C2F31302002840F02D8151EA020614BF7E
:105C400001260026D20242EA5152C902BBF1460F98
:105C500040EA010E42EAE07C08BF4FF0660B5EEAC4
:105C60000C0CCDE90C1200F09781002E40F044811D
:105C70000D9A42F00042A0F2FE380D920020DDE9BC
:105C80000C1206464FF0050C50E1ABF158012029EB
:105C90003FF662AF01A050F821F000BF275E000080
:105CA000595B0000595B0000595B0000595B000024
:105CB000595B0000595B0000595B0000595B000014
:105CC000135C0000595B0000AB5D0000BF5D00008D
:105CD000135C0000135C0000135C0000595B0000C3
:105CE000BF5D0000595B0000595B0000595B00007C
:105CF000595B0000615E0000275E00002D5E000021
:105D0000595B0000595B0000275D0000595B0000F3
:105D1000275E0000595B0000595B0000275E000011
:105D200003995846EAE4002F109E3ADB3946304684
:105D30004AF0CCFF3718002E3FF40EAF4FF00009A9
:105D40009DF84A3013F01002059200F04C820230A8
:105D500013F04003DDF84C80089318BF149BCDF876
:105D60001C80404418BFC018049B002B40F356828F
:105D70009DF848201B1A04935307C2F3800B00F1CF
:105D80004D82500640F13D82B9F1000F07D00399D2
:105D90004846D0470028C0F231820135D94630222A
:105DA00030E230464AF08BFFC4E7109B8DF85C3040
:105DB0004FF000090DF15D0717AE0120C0E7079B0A
:105DC0001A0758BFC3F30019DDE9102354BF4FEA87
:105DD00049194FF02B09002B06DA524263EB4303BB
:105DE000CDE910234FF02D090DF175030093DDE986
:105DF000100117AB12AA4AF0D0FC0646002F0CDBAC
:105E00009DF848200DF175039B1B6FF386129F428E
:105E10008DF8482001D9FB1A1393002E3FF49CAE55
:105E20000DF1750756E04FF00009DDE710980028E6
:105E300000F0D4810DF17503009312AA17AB002175
:105E40004AF0ABFCBDF84A3003F0EF0343F4F043F3
:105E500043F010030646ADF84A304FF00009CDE795
:105E6000109B072A3FF678AEDFE802F00C04060C20
:105E700008080C0C1D706FE61D806DE6EA17C3E97B
:105E8000005269E61D6067E64FF02D09CEE64FF03F
:105E90002B09CBE640F2FF76B0422AD10A43ABF1A0
:105EA00041031ED11A2B35BF492369234E216E2190
:105EB00034BF462266228DF85C309DF848308DF85C
:105EC0005D106FF386138DF85E208DF848300DF16C
:105ED0005F0717AEB81BB9F1000F3FF431AF0130C7
:105EE0002EE7192B8BBF6E234E23612141211A46C9
:105EF000E1E70026A6E6013849185241002AFADAFD
:105F0000CDE90C12B4E6490841EAC2715208B2F177
:105F1000333F404608F10108F5D20CFB02FEA1FB1D
:105F20000C1200F102087244013E012018F1020F28
:105F3000E9DB08B1CDE90C12B8F1000FDDE90C2165
:105F40002DDCC8F10400A0F1200C08F11C08C240AF
:105F500001FA08F821FA0CFCC1400BF0DF0042EA1C
:105F60000802472842EA0C023AD1F01C01DBB74292
:105F70002BDAABF10203002F5FFA83FB7DDD9DF886
:105F80004800830607F1FF3777D43B1E18BF012373
:105F9000059307F101082DE04FF000086EE602328C
:105FA00041F100010CA8CDE90C214AF0C7FBDDE965
:105FB0000C2108F1FF38013692184941002908F1F7
:105FC000FF38F9DACDE90C21B6E79DF8483098069C
:105FD000A7EB06074FD43B1E18BF0123059304E02F
:105FE0000023BBF1660F0593D3D117EB06084FF0E2
:105FF000660B44D4B8F1100FA8BF4FF010089FED06
:10600000B27B8DED0E7B10200B90DDE90E03B8F115
:10601000000F37D1121841EB0301B1F1805F41D27B
:10602000CDE90C21079BBBF1660F03F0200240F085
:10603000B480002E41DC30218DF85C10002A65D13F
:10604000002F40F3B2812E228DF85D2086B172427E
:10605000BA42A8BF3A469DF84A101392002AA7EB0D
:106060000207D4BF0022012262F345118DF84A10C5
:106070000DF15E0839E00023B0E7002388E74FF018
:106080000008BCE7400840EAC3705B08CDE90E0396
:106090000EA8CDE9082108F1FF384AF04FFBDDE9F1
:1060A0000821B2E7520842EAC1720CA84908CDE9BA
:1060B0000C2101364AF042FBB4E70DF15C080B9964
:1060C000002909DD0BA90CA807924AF04FFB013EFD
:1060D00008F8010B079AF2D113969AB9002F40F3F2
:1060E00062812E2108F8011B0026002F17DD0B9A74
:1060F000002A14DD0BA90CA84AF038FB013F08F870
:10610000010BF2E72E2208F8012BEDE72E228DF885
:106110005D20002EACD0002F99DC0DF15E08059BB0
:10612000002B4ED1149747460BF0DF02452A23D1AE
:10613000002EBABF76422D232B23632EC8BF6421C5
:106140007B70D1BFBA1CB6FBF1F3FA1C03F130002F
:10615000C8BF01FB13664FF00A01C8BFB87087F8CB
:1061600000B0B6FBF1F3174603F1300001FB1363F7
:10617000303307F8020B5370139B002B2CDC149B5D
:10618000002BD4BF002301239DF84A2063F386121D
:1061900000238DF84A203B709BE60BA90CA80792C0
:1061A0004AF0E4FA079A8DF85C00302818BF06F12F
:1061B000FF3612B9002F40F3F8802E228DF85D20B3
:1061C00056E7474608F1FF3817F8012C302AF8D077
:1061D0002E2A08BF4746A7E70123D5E73C4F814653
:1061E0007E1F0520ACE51A0748BF0130B0E5104618
:1061F00009920399D0470028099A05DA1FB0BDE833
:10620000F08F2022DDF810B0594600290BF1FF3B3A
:10621000EDDC049BCDF810B02B445D1AB9F1000FF2
:1062200005D003994846D0470028E7DB0135089B95
:10623000002B7DD09DF94930002B28DBB3469BF81D
:106240000000A0F13003092BD9460BF1010B46D910
:106250009DF84A30AE1B99064E4407D44246002AA8
:1062600008F1FF3840DC079B33449E1A99F8000080
:106270002E280AD10399D0470028BFDBB8F1000FC0
:1062800006F1010636DC09F101094D463DE0B14653
:1062900099F800007028C84609F101091AD1AE1B0F
:1062A000149D46443544AB1B002B39DC03993B4617
:1062B000424650464AF0B7FA00289FDB3044049E1D
:1062C000054606446AE000BF000000000000000828
:1062D00069AE05000399D0470028D9DA8EE7039903
:1062E000D0470028ABDA89E703993020D04700284F
:1062F000B4DA83E703993020D04708F1FF38BBE7D1
:106300000399D0470028FFF679AF2878A0F1300331
:10631000092BA84605F10105F2D9A6EB0906BFE74E
:1063200003993020D0470028FFF668AF0136BAE75E
:106330009DF84A30DA0601D41B0706D503993020B0
:10634000D0470028FFF65AAF0135059B3BB10399B2
:106350009DF84B00D0470028FFF650AF0135A84408
:1063600006E003993020D0470028FFF647AF0135FB
:10637000A8EB0503002BF4DC03993B46324650465C
:106380004AF051FA0028FFF639AF284497E70399FD
:106390002020D0470028FFF631AF0135731B002BBA
:1063A000F5DCFFF7D9BB1646B9E60DF15D08B6E698
:1063B0002DE9F0472DED028B9FED358BDFF8E08066
:1063C000DFF8E0A082B006464FF000094FF0FF333F
:1063D0004FF0FF3206F595601BF02CF94368044638
:1063E00043B92D492D4890224AF0A4FA90212A4819
:1063F0004AF099FA1F78802F06D9274927489C220E
:106400004AF098FA9C21F2E700231A4639468DEDAE
:10641000008B306803F0BEFD61683A4601310546E5
:106420004AF058FF074610BB237C85F85030637C48
:1064300085F85130A27C95F8523062F3410385F81B
:106440005230D4E9020142464B46FAF7A9FE4FF416
:106450007A73C5E908015A43AA62306829464AF0AE
:10646000D2FC00280CDA452150464AF071FA00238C
:106470006068636008F0B2FC28464AF05CFEA5E75D
:106480006068676008F0AAFCA0E700BFAFF3008077
:10649000FFFFFFFFFFFFFFFF1DC10500CBAC0500A5
:1064A00040420F0055C105002DE9F04F3A4ED6F895
:1064B00004339B0785B00BD5D6F8043143B1374A76
:1064C0000023C6F80431D6F8043113680133136091
:1064D000334DDFF8D4A00024A946EFF3108172B643
:1064E0004FF4803303FA04FBD6F804331BEA030F9E
:1064F00009D181F310880134042C05F11005ECD189
:1065000005B0BDE8F08F0123A340264FBFF35B8F9A
:10651000DB4357E8002F02EA030047E8000CBCF118
:10652000000FF6D1BFF35B8F1AB95AF82430002B55
:10653000DFD020464BF0CEF981F3108806F094FAB4
:10654000EFF3108372B609EB0412D2E90278CDE9B9
:106550000278029FB8420398814102D283F31088E7
:10656000C9E79FED0B7B4FF0000CD5E90010C5F893
:1065700000C082ED027BC6F848B383F3108800297F
:10658000B9D00090DDE9022320468847B3E700BF79
:10659000FFFFFFFFFFFFFFFF001001407C420020D4
:1065A000C01C002070420020401101400146002222
:1065B000014806F077BF00BFBD0305002DE9F04795
:1065C0000121054651F0C1FE90F80090284651F097
:1065D0008AFD01218246002051F00EFD064638B9A1
:1065E000254845214AF0B4F94FF6EA70BDE8F08736
:1065F000012151F0CAFD05218046304651F0A5FE2B
:106600000446284651F079FD01281C4F30D19AF8F4
:106610000050012D13D0022D19D04DBB4BF073FA51
:1066200025706570A570E5703D703B7884F8049026
:10663000304688F800304FF0C5FAFF20D6E74BF01F
:106640004EFA002323706370A370E370ECE73B788D
:1066500083F00102012B3A7007D04BF040FA00237F
:1066600023706370A370E370DFE74BF04CFAF6E73A
:106670004FF0FF33F4E700BF84AC05009095002095
:10668000014603488368DB6C0BB101221847704751
:10669000CCA40500004870470002020010B5134C5E
:1066A00020464FF070FFF0B16368A1681B68226953
:1066B0001B030AD40E490F484FF437724AF03AF9D7
:1066C0000B484FF437714AF02EF9136843F4002356
:1066D00013600B68084A132120469847003818BFFA
:1066E0000120404210BD4FF0FF30FBE784A40500BD
:1066F0009AAC0500CBAC05001100060037B52B485D
:1067000049214AF025F9002001F056F9044648B124
:1067100010F1780F06D0264845214AF019F9204695
:1067200003B030BD0023019322484FF02CFF30B35B
:10673000204CA5682B6D4BBB1F4845214AF008F93A
:106740000820FFF79DFF1020FFF79AFF00214FF46C
:1067500000401CF0BBFA3AF08BFA07F07BFB1748BD
:1067600019F02EFEC6220121154806F017FE06F08C
:1067700027FF144849214AF0EBF80024CFE71248DC
:1067800045214AF0E5F86FF01204C8E701AA042198
:10679000204698470028CFD1019B002BD0D1002163
:1067A00040F6CD401CF092FAC4E700BFE3AC050010
:1067B00014AD0500CCA405004EAD0500BD6500007C
:1067C000AD6500008CAD050033AD0500014B1B68C5
:1067D000184700BFB004002007B50B460021024651
:1067E00000910348FEF778FF03B05DF804FB00BF9B
:1067F000CD67000038B551B302680B1F9B1AD9084A
:1068000023F0070313445C88E00708D410491148BB
:10681000AF224AF08FF8AF210D484AF084F81046B5
:1068200049F0F1FD084432F83050401B814206D057
:1068300007490848B7224AF07DF8B721ECE724F071
:1068400001045C80BDE83840104649F099BE38BD6F
:10685000D1AD0500CBAC05002DE9F8434B1E0B4034
:1068600006680F46144611D0C1F1000909EA010972
:106870004A46042A03F1FF3128BF042219420CD1F1
:106880001F46C4B900252846BDE8F88304290FD85F
:10689000BDE8F843114649F0A4BE2A492A484FF4FE
:1068A000A2724AF047F827484FF4A2714AF03BF829
:1068B00099460422E5E7B368B3EBD40FE2D904F1BB
:1068C0000B013944891AC908304649F0F2FD804667
:1068D0000028D7D009F1040505EBC0057B1E35441F
:1068E0001D447F423D40A5EB09052C442B1F073476
:1068F0009B1B24F00704A41BB0EBD30F4FEAD30774
:106900004FEAE40408D201463A46304649F01EFEFA
:106910004146304649F07CFD3946304649F073FD2A
:106920003844844207D23046224649F00FFE2146C1
:10693000304649F06DFD06EBC706738843F001034E
:106940007380A0E7D1AD0500CBAC0500B2F5802F78
:10695000F8B504460AD33349334840F2EB1249F004
:10696000E9FF40F2EB112F4849F0DDFF042A08D877
:106970002C492D484FF4F97249F0DCFF4FF4F971BE
:10698000F1E7043AC81D0A4420F0070022F007028C
:10699000121A172A4FEAD20308D82249224840F295
:1069A000FB1249F0C7FF40F2FB11DCE7B3FA83F1B9
:1069B000C1F12006C1F1240189000731C9084D1C2D
:1069C00020609D424FF000048360C46008D91549DF
:1069D00015484FF4037249F0ADFF4FF40371C2E75D
:1069E00000F10C0505EB860645F8044FB542FBD1D6
:1069F0004D0045F00105458000EBC1065D1A6F00B2
:106A000004807780861820F8311000EBC30374806F
:106A100085525A8842F001025A80BDE8F84049F098
:106A2000F7BC00BFD1AD0500CBAC05002DE9F84F98
:106A300004460846A38B1907164612D4022803F011
:106A4000070162D1204649F010FE88B101380428C0
:106A500000F22181DFE810F059001F017E00C40020
:106A6000F10001280CBF43F0100143F02001A18385
:106A700004F114001AF090FA002800F0A98086F3BF
:106A80001188BFF36F8FBDE8F88F03F00702501F26
:106A900001281ED80020062A2768C4E9000014D166
:106AA0003A4603E0E08B0130E0831268002AF9D116
:106AB00023F0070343F00202A283204649F0D5FDEC
:106AC00090B342F02002A2832EE023F007039AB293
:106AD000F2E7042A33D123F007039AB2A2832046B7
