:020000040000FA
:1010000000800120DD8F000069070500C98F000006
:10101000C98F0000C98F0000C98F000000000000C8
:10102000000000000000000000000000A59100008A
:10103000C98F00000000000015910000C98F00005A
:10104000C99400007F140500C9940000C9940000F1
:10105000C9940000C9940000C9940000C99400001C
:101060004F140500C9940000C994000069140500DC
:10107000C9940000C9940000C9940000C9940000FC
:10108000C9940000C9940000C9940000C9940000EC
:10109000C9940000C9940000C9940000C9940000DC
:1010A000C9940000C9940000C9940000C9940000CC
:1010B000C9940000C9940000C9940000C9940000BC
:1010C000C9940000C9940000C9940000C9940000AC
:1010D000C9940000C9940000C9940000C99400009C
:1010E000C9940000C9940000C9940000C99400008C
:1010F000C9940000C9940000C9940000C99400007C
:101100009FED177B70B5184A184D002342F220005E
:101110002021A97028806B76136082F82830AB718B
:1011200082ED027B85ED047B1C46EB71A9762B7664
:101130006A1802F814300134202CFAD101260C4828
:101140002E7203F015F90B4B18700B4B1C7003F04B
:101150006FF9C5F8A00000F081FEEE7670BD00BF0B
:10116000FFFFFFFFFFFFFFFF48120020C812002013
:101170005924000078120020401200207BB972B977
:101180000029BEBF00204FF0004106E008BF002844
:101190001CBF6FF000414FF0FF3000F057B8ADF1C9
:1011A000080C6DE904CE002909DB002B1ADB03F0E3
:1011B0004BFCDDF804E0DDE9022304B07047404257
:1011C00061EB4101002B1BDB03F03EFCDDF804E08A
:1011D000DDE9022304B0404261EB4101524263EB7E
:1011E00043037047524263EB430303F02DFCDDF8E9
:1011F00004E0DDE9022304B0404261EB41017047A5
:10120000524263EB430303F01FFCDDF804E0DDE929
:10121000022304B0524263EB4303704753B94AB907
:10122000002908BF00281CBF4FF0FF314FF0FF30EE
:1012300000F00CB8ADF1080C6DE904CE03F004FC2D
:10124000DDF804E0DDE9022304B07047704700BF19
:10125000014B1B681B68184700040020014B1B68EA
:101260009B68184700040020014B1B68DB68184787
:1012700000040020014B1B681B6918470004002074
:10128000014B1B685B69184700040020014B1B6879
:101290009B69184700040020014B1B685B6A1847D4
:1012A00000040020014B1B681B6B18470004002042
:1012B000014B1B68DB6B18470004002010B4034C83
:1012C00024686468A4465DF8044B6047000400206D
:1012D000014B1878704700BF3C140020042810B55B
:1012E00011D883B104280CBF10242824A1420AD2AB
:1012F000064C54F8200018B141568A42A8BF0A464D
:101300001A70002010BD6FF01500FBE7000E0020E2
:1013100030B50246114890F91C3093421ADD90F91D
:101320002430934218DAD31A856A0D4CE85C2356B0
:1013300093420ED00E3400290CBF0346431CA54235
:10134000D8B206D129B1013AD2B2012A01D801306E
:10135000C0B230BD0D20FCE70020FAE7000E0020EF
:10136000A0A5050008B5054B93F91C30984203DA97
:10137000FFF7CEFF024B1B56184608BD000E00209B
:10138000A0A5050010B51C4C94F82C3073B90123AE
:1013900084F82C3004F012F848B1184BA362D8231B
:1013A000236284F824300823A361237710BD04F05E
:1013B0001AF80028F1D104F01FF80028EDD103F04D
:1013C000E2FF38B10E4BA362D823236284F82430A5
:1013D0000423E9E703F0E0FF0028F3D103F0E5FF81
:1013E0000028EFD103F0F3FF0028EBD14FF4DB71BD
:1013F000742002F039FF00BF000E0020DBA50500BD
:10140000AEA50500034610B3007888B91A79012A01
:101410001ED85A79012A1BD89A680E49643A8A4222
:1014200016D8D8680C4B98422CBF0020012070477A
:1014300001280CD11A79012A09D85A79012A06D82B
:10144000DA680449643A8A4201D89868EAE70020D9
:10145000704700BF3C8601000040420F10B5054CAC
:10146000236813B1984700232360BDE8104001F0C2
:10147000A9BE00BF300E00202DE9F843884607467C
:1014800080B300F037F84FF0000905465FFA89F69F
:10149000AE420AD2304600F033F890F8264009F107
:1014A0000109002CF2D1FF2E03D16FF00B00BDE833
:1014B000F883304600F024F80546848480F82640FE
:1014C00080F8286001460A4802F016F8202885F8BE
:1014D00027000AD001232F6285F82630204688F89D
:1014E0000060E4E76FF01500E1E76FF02200DEE74F
:1014F000134F0000014B1879704700BF340E0020D5
:10150000054B1A79824283BF1B6800EB400003EB56
:1015100000100020704700BF340E002010B510F0FE
:1015200003040BD1074A1171106030B101EB410186
:101530000A01214602F0C0FF204610BD6FF00D00E9
:10154000FBE700BF340E002043F60952C0F3080346
:1015500002FB03F3400A03F5807302FB00F000EB8B
:101560005320704743F6095CC0F3080210B50CFB2A
:1015700002F2C0F34E24030E43EA01230CFB04F0F5
:10158000090E02F580724FEA411C00EB52205A010D
:10159000B2EB030E4CEAD36C6CEB01044FEA841CF3
:1015A0004FEA8E12B2EB0E024CEA9E6C6CEB040C0E
:1015B0004FEACC0C4CEA527CD200D31841EB0C0120
:1015C000DA03C903801841EA534141F1000110BD1B
:1015D000430B48F2376C0CFB03F34FEA134C00B596
:1015E000104B43F6095E0EFB1C0000FB03F35B0D82
:1015F0000EFB03FE03EB4C230EF5745C0CF1080CA0
:10160000B0EB5C2F08D80EF5807EA0EB5E20C0B258
:101610000B6010705DF804FB013300200B6010704C
:101620005DF804FB6F0C0100F8B5274DA94246D8C0
:10163000264E274F450F45EAC105A6FB0514C0F30A
:101640004F31A40B01EB054107FB1411A6FB01511F
:10165000890B41EA04411F4C04FB110448F2376C2A
:10166000600B0CFB00F04FEA104C43F6095E1A4881
:101670000EFB1C4505FB00F0400D0EFB00FE00EBD1
:101680004C200EF5745C0CF1080CB5EB5C2F12D8F5
:101690000EF5807EA5EB5E2E5FFA8EFE069D85F828
:1016A00000E00D0628184FEA112141F100011860F1
:1016B00059601460F8BD01304FF0000EEEE796213E
:1016C0009B2002F0D1FD00BFFF7F841E83DE1B4301
:1016D000000024F40080841E6F0C0100420B48F2CD
:1016E000376303FB02F2120C43F6095C074B0CFB59
:1016F000120101FB0333013B5B0D0CFB03FC5002A9
:10170000B1EB5C2F88BF0130184470476F0C0100AB
:1017100010B5094A92F80034202B03D15021022041
:1017200002F0A2FD590102EB4313BDE810405258EC
:1017300058680421104700BF400E002008B501B3CF
:10174000F0B14FF0FF331A46E0FB01320E498A42F6
:1017500003D971216D2002F087FD180D40EA023097
:10176000C3F30F134FF22441B0FBF1F203EB00403F
:10177000064B03FB1200B0FBF1F040EA02400130DF
:1017800008BD0846FCE700BF3F420F00000024F4FC
:10179000014B5888704700BF7C12002010B5EFF352
:1017A000108472B6064A93790133DBB29371937950
:1017B000012B01D103F089FD04B962B610BD00BF51
:1017C0007C12002070B50C4C267866B90125A0600B
:1017D0002570FFF7E3FF00F04BFA30B94FF080437C
:1017E0002573C3F80453002070BDA368002BFAD002
:1017F0009847A660F7E700BF7C12002038B5FFF7D6
:10180000CDFF00F035FA094C4FF0804540B103F0B0
:1018100049FD01232B61042363730023A37338BDA7
:10182000032363730123C5F80433F6E77C12002019
:1018300010B5EFF3108472B60A4B9A7922B94FF4BF
:1018400096716D2002F010FD9A79013AD2B29A7128
:101850009A791AB9DB7B0BB900F0F8F904B962B6D2
:1018600010BD00BF7C12002008B5054B1A7822B1CC
:1018700000221A731A70FFF7DBFF002008BD00BFBB
:101880007C12002073B51B4D2B7F63B9286A00F0D2
:10189000030003F034FD30B1EFF3108372B66A7BBE
:1018A0001AB103B962B602B070BD01226A7303B9FE
:1018B00062B64FF080430822C3F808234FF4207328
:1018C000ADF80630BDF80640A4B2631E9BB2ADF879
:1018D0000630002CF6D14FF080460748C6F80C4180
:1018E00003F033FD85F82540FFF788FF0823C6F88D
:1018F0000433D8E77C120020A01200202DE9F0412B
:10190000384C94F82630002B69D04FF08043D3F840
:101910000071D3F8046157B10122C3F80823237B77
:101920002BB1A368002525730BB19847A5604EB174
:101930004FF080430022C3F804210222C3F8082399
:10194000FFF7A0FF4FF080462748D6F80C8194F8A7
:101950002550EDB203F0FDFC20B140F2C5116D2021
:1019600002F082FC47B1637B032B05D10423637330
:1019700003F098FC01233361B8F1000F16D04FF04B
:1019800080430022C3F80C21637B042B02D040F279
:10199000D711E4E703F039FDC0B14FF080430022D6
:1019A000C3F8342C02236373FFF742FF4DB10023C9
:1019B00084F82530637B022B01D1FFF71FFFFFF76F
:1019C00037FFBDE8F041084803F0D2BC03F0FFFC4C
:1019D0000028E2D103F010FD0028DED1E2E7BDE8E7
:1019E000F08100BF7C120020A012002010B5044C32
:1019F000206A00F0030003F082FC0028F8D010BD3C
:101A00007C120020F8B5054650B10278042A07D8A8
:101A1000437842B9013B1F2B02D88378212B07D989
:101A20006FF0150076E0002BFAD18378002BF7D108
:101A3000814B0127C3F88070BFF34F8FBFF36F8FC7
:101A40004FF08046C3F880717C4C4FF0FF33C6F8EE
:101A500008330023C6F80031C6F80431C6F80C314B
:101A6000A371AB88A38003F035FC08B12770A77180
:101A7000D6F80C24D6F80C34D20303D5DF0701D5F1
:101A800000F0F0F840F2F55363802B78A9782377C3
:101A9000002222622174A273042B4ED8DFE803F0E7
:101AA00005033B494B000123236203F01AFC002885
:101AB0004ED003F01DFC236A03F00303984247D184
:101AC000AB79002B3ED1FFF791FF237C6BB12B78D4
:101AD0005BB900F0CDF8054602F00CFC6FF0004356
:101AE000002D00F0A580C4E905034FF08043D3F832
:101AF0000C24D3F80C34D20303D5DB0701D500F056
:101B0000B1F84D4A01230020607384F82630C2F8F2
:101B100080311360F8BDFFF741FE4FF08043D3F8EA
:101B20000C14D3F80C24CE03F9D5D007F7D5022333
:101B3000BAE7434BB8E7434BB6E740F216316D20A6
:101B400002F092FB4FF080430222C3F80423BCE76B
:101B50004FF080430122DA600022C3F80421226A98
:101B6000C3F8182503F00FFC10B34FF080534FF06B
:101B70008042D3F84432C3F34233C2F83C3503F019
:101B800002FC10B34FF080430122C3F84C254FF004
:101B9000804301229A600222C3F80423AA79002A12
:101BA00093D1D3F8042391071CD440F2CD21C6E78A
:101BB00003F0F2FB0028D8D103F0F7FB0028D4D1C2
:101BC00003F005FC0028D0D1D9E703F0E5FB00289D
:101BD000D8D103F0EAFB0028D4D103F0F8FB0028A9
:101BE000D0D1D4E7184A1669116941F0100111618A
:101BF000D3F8043106F010060BB903F014FC4FF0D3
:101C00008047D7F8043183B1FFF7F0FE26B90E4ABA
:101C1000136923F0100313614FF080430222C3F8CD
:101C200008230022C3F804214FE703F0FAFBE8E79A
:101C3000C4E9053059E700BF00E100E07C12002054
:101C4000010002000100030000ED00E04FF08042BF
:101C5000012353600023C2F80031014A137070471A
:101C6000A3120020014B01221A707047A31200201A
:101C70004FF08043D3F8003123B9034B187800F0BC
:101C8000010070470120FAE7A3120020094B4FF032
:101C9000FF32C3F808230022C3F84025C3F84021CF
:101CA000C3F84425C3F84421C3F84825C3F84821A4
:101CB000704700BF00800040084B1B785BB10123D8
:101CC0004FF40031064AC2F84813C2F808130BB9A2
:101CD000C2F8403170474FF44031F3E7A8120020BA
:101CE00000B0004070B5EFF3108472B6094A0A4B99
:101CF0000025D2F80415D2F804612EB159680131DB
:101D00005960C2F80451F4E75B6804B962B6C0E9EF
:101D1000001370BD00B00040A8120020032808D9AD
:101D20000438C0B2044B80001858003818BF012096
:101D300070470120704700BF40B10040074BD3F807
:101D40000435C01A20F07F40884205D3B0F5000F5B
:101D50008CBF0220002070470120704700B0004077
:101D600001282DE9F0410446884604D94FF4F57165
:101D70006C2002F079FA81000E4F0F4B4FF4803542
:101D800085400026C7F808534046C7F848535E50C0
:101D90000221FFF7D3FF58B904F5A87447F824804F
:101DA0000AB1C7F80453C7F844530120BDE8F081D5
:101DB0003046FBE700B0004040B1004008B5054A9E
:101DC0009068022120F07F40FFF7B8FF0128F7D08C
:101DD00008BD00BFA81200200F4B4FF40062C3F8EB
:101DE0008020BFF34F8FBFF36F8FC3F880210B4B61
:101DF00001225A609A60D3F80425002AFBD10849D1
:101E0000C3F80813C3F84813C3F84021C3F84421AA
:101E1000C3F80421704700BF00E100E000B00040BB
:101E20000200030008B50A4B4FF48072C3F880200B
:101E3000BFF34F8FBFF36F8F0649C3F88021012096
:101E40004860FFF723FF044B086100221A7408BDA5
:101E500000E100E000800040A812002010B5254CF1
:101E60000023FF224FF0FF314FF0FF30C4E90201A1
:101E7000237062746360FFF7D5FFFFF7ADFF1E4B61
:101E80004FF400621A6061691C4A51B90123136062
:101E90001A4B4FF48272C3F844230222C3F804237E
:101EA00010BD174B1748C3F8A805C3F8AC15C3F805
:101EB0005C294FF40022C3F80425134A0521C2F817
:101EC000401501211160D2F840110029FBD04FF4D8
:101ED0000021C3F8081501215160D1600021C2F82A
:101EE0004011C2F84015C3F8A815C3F8AC15C3F8E3
:101EF000AC15CDE7A812002000E100E000B00040E2
:101F000000F001404081004000800040F8B52D4CB9
:101F10002778012F05460E4605D1D4E902238B42CE
:101F200008BF824248D0284B4FF04042C3F80825F2
:101F3000FFF7C2FE002225F07F411046FFF710FF99
:101F400000283AD00FB1FFF739FF0023012763744F
:101F5000A761FFF767FF1D4BD3F8042522F00302AA
:101F6000C3F80425D3F8082522F0030242F0020248
:101F7000C3F80825102292FAA2F2B2FA82F2092AD4
:101F800004DD134840F2913102F064F9C3F81025E2
:101F9000DF60A269C3F800220E4B4FF48072C3F8D1
:101FA00080211A60084B4FF00042C3F80425C4E9B1
:101FB0000256042363702770F8BD40F20E316C2086
:101FC00002F052F9A812002000F001400080004009
:101FD0003ECD050000E100E02DE9F0411E4C94F8F3
:101FE0000080B8F1020FD4E9022305460E4605D160
:101FF0008B4208BF82420AD1BDE8F0818B4208BF04
:10200000824204D14FF447716C2002F02DF9237CF9
:1020100013B94FF44871F7E7104F4FF040430022D7
:10202000C7F8083525F07F411046FFF799FE78B1D3
:10203000B8F1000F01D0FFF7C1FE4FF08043C7F8A1
:102040000435042363700223C4E902562370D3E7E6
:102050004FF44B71D8E700BFA812002000F00140F8
:10206000014BD3E902017047A8120020014BD3F8BD
:102070000405704700B0004013B56846FFF732FE14
:10208000DDE90004FFF760FA024B0021E4FB0301E5
:1020900002B010BD0080841E2DE9F041224CFFF7F4
:1020A0000BFE2378022B04D040F237316C2002F073
:1020B000DBF803F035F9D4E90267C21C41F10005F1
:1020C000AF4208BF964226F07F480ED0042140461A
:1020D000FFF734FE48B910462946FFF717FF134BA8
:1020E000A269C3F80022BDE8F08102214046FFF753
:1020F00025FEA0B90E4A0D494FF08043C2F80835BD
:102100000123A36160744B60CB604FF00041C2F8C3
:1021100004150422C4E9026762702370DFE701231B
:10212000A36100236374DAE7A81200200080004056
:1021300000F0014008B520B140F2AF316C2002F050
:1021400093F8014808BD00BF40810040032837B51F
:1021500008D9041FE4B2012C19D940F2F5316C20E2
:1021600002F082F8244900F1100201239340C1F8E3
:10217000083300F5A873002241F823201F4B81008B
:102180005A5053F820300093009B03B030BD1C4DD3
:102190002B789BB16A78824210D11A4A4FF04041A5
:1021A000012BC2F8081501D1FFF73CFE00232B706C
:1021B0004FF0FF324FF0FF33C5E90223124A4FF4CC
:1021C0008033A340C2F80833C2F8483304F5A8733B
:1021D000022152F82300FFF7B1FD012818BF0B4B75
:1021E00022B204FA01F41CBF00211951074B53F825
:1021F00022300193019BC8E70080004040810040ED
:10220000A812002000F0014000B0004040B10040A2
:1022100008B50B4B1A78012A05D15878FFF77EFDD7
:1022200058B1002008BD022AFBD15878FFF776FD8F
:102230000028F6D14FF08040F4E74FF00040F1E77E
:10224000A8120020032838B522F07F41264B04460F
:1022500006D90438C0B2012838D940F2A1310BE0C8
:10226000D3E90202B2F1FF3F08BFB0F1FF3F06D150
:102270001A7C22B940F27E316C2001F0F5FF1B7808
:10228000022B1AD0194B1A4D04F110020120A400A0
:1022900000FA02F2C5F80823185104F1804404F54D
:1022A0000044D4F84035CB1A23F07F43022B09D9E0
:1022B000C4F84015C5F8042338BDFFF7A9FF430053
:1022C000FBD4DFE70020C4F84005F5E71A782AB10F
:1022D0005B78A34202D140F29D31CDE7BDE83840A2
:1022E0000122FFF73DBD00BFA81200204080004042
:1022F00000800040204A08B5D2F80433D90312D533
:10230000D2F840317BB10023C2F84031D2F8400509
:102310000221FFF713FD30B14FF48033C2F80833C8
:10232000042001F0B5FB144AD2F804339B0312D504
:10233000D2F844317BB10023C2F84431D2F84405CD
:102340000221FFF7FBFC30B14FF40033C2F8083331
:10235000052001F09DFB084BD3F8042132B1002287
:10236000C3F80421054A536801335360044B4FF40A
:102370000062C3F8802108BD00B00040A812002010
:1023800000E100E038B5314C637CFF2B5BD0237853
:102390003BB1012B10D12374022360782370FFF727
:1023A000D5FE2B4BD3F8042310030DD5D3F84C21C5
:1023B00052B140F23E4104E0237C002BECD140F2CC
:1023C00052416C2001F050FFD3F8042351030DD586
:1023D000D3F8483153B10220FFF7B8FE1D4B4FF43C
:1023E0008072C3F88021022001F052FB184BD3F811
:1023F000042392030DD5D3F8443153B10120FFF7E4
:10240000A5FE144B4FF48072C3F88021012001F027
:102410003FFB0F4DD5F80433DB0316D5D5F840311B
:102420009BB10020FFF792FE0A4B4FF48072C3F875
:1024300080210020FF236374A061C5F80002BDE87D
:10244000384001F025BB0620F9E738BDA81200206E
:102450000080004000E100E02DE9F04F8C4F7C7ED1
:1024600004EB44033B4483B05E78202E47D0894B75
:10247000E5B26400002B00F08780874BDFF82092E4
:10248000002B5DD006EB451207EB420A4FEA4518D8
:102490009AF82030013BDBB2052B33D87F4A12F883
:1024A00003B0BBF1090F2DD0AFF30080EFF3108321
:1024B00072B62C443C449AF821206270A278B24251
:1024C00004BF2022A27013B9AFF3008062B6B044FB
:1024D000730107EB480809EB4616012259F803304F
:1024E000706888F82020594698477C7E04EB4403A6
:1024F0003B44E5B25E78202E4FEA4404C2D103B0DB
:10250000BDE8F08F40F2C661702001F0ADFE62B60A
:10251000B044730107EB480809EB4616012259F84D
:102520000330706888F82020594698477C7E04EB79
:1025300044033B44E5B25E78202E4FEA4404DED0EB
:1025400006EB451207EB420A4FEA45189AF820308D
:10255000013BDBB2052BD5D8504A12F803B0BBF1D2
:10256000090FCFD0AFF30080EFF3108372B62C4485
:102570003C449AF821206270A278964204BF20223F
:10258000A270002BC4D1C2E7434BDFF810B1DFF8D3
:1025900010A14FF02009002B4FD006EB451207EB9E
:1025A00042024FEA451892F82030013BDBB2052B7E
:1025B000A8D81BF803100929A4D0EFF3108372B632
:1025C0002C443C4492F821206270A278964208BFC5
:1025D00084F80290002B52D0B04407EB48087301F6
:1025E0000AEB461601225AF80330706888F820205A
:1025F00098477C7E04EB44033B44E5B25E78202E92
:102600004FEA4404C9D17AE762B6B044730107EBDC
:1026100048080AEB461601225AF80330706888F819
:10262000202098477C7E04EB44033B44E5B25E786F
:10263000202E4FEA44043FF462AF06EB451207EB4D
:1026400042024FEA451892F82030013BDBB2052BDD
:102650003FF658AF1BF8031009293FF453AFEFF3CF
:10266000108372B62C443C4492F821206270A27808
:10267000964208BF84F80290002BC6D1C4E70191AE
:10268000AFF3008062B6B044019907EB4808A6E7B3
:10269000C812002000000000000000000CA6050089
:1026A000400E00202DE9F04FDFF82CA1994601EBF8
:1026B00041034FF0200E1AF8034082F800E0744501
:1026C00083B000F08680DFF814B10F4690460546CF
:1026D0000BEB4412D5F800C090681369D1681B1841
:1026E00041F100019C456B688B414FEA44161CD3B5
:1026F000EB89002B54D0D38A002B51D1ACEB0003D3
:102700000193FFF745F840F256339842019B5AD0A7
:1027100040F2F552904252D0B0F5C67F14BF01226C
:102720000E2293423CDA98F800E089F800E095E840
:102730000D000BEB06011B18D1F8088042F10002D6
:102740009845CB6893411AD3CB8AA3B1EB8993B94F
:10275000A8EB0008FFF71CF840F25633984230D03F
:1027600040F2F553984228D0B0F5C67F14BF01233C
:102770000E23984503DB012003B0BDE8F08F5E44D3
:1027800089F80040327E2B7C9A421ED904EB471414
:102790000AEB440494F82140202CECD06601C6E7F3
:1027A00004EB47130AEB430388F8004093F8213009
:1027B000202BA6460DD01C468AE73323D9E73322C7
:1027C000AFE71D23D5E71D22ABE7002003B0BDE82E
:1027D000F08F89F80040CEE7C8120020400E00209C
:1027E0002DE9F04F85B00D4616461F469DF838A0DE
:1027F000FEF774FF2A686B68861947F10007964256
:1028000077EB030351D3DFF8BC8040F2563905E083
:102810005E4577EB040348D3C5E900B40DF10F031F
:102820000DF10E0251462846FFF73CFF00283DD12E
:102830009DF80F3008EB4313D3E902241969DB8AB2
:1028400011EB020B44F10004002BE1D1EB89002BCA
:10285000DED00191FEF79CFF484501992BD040F254
:10286000F553984225D0B0F5C67F14BF01230E233F
:102870009942CDDAFEF78CFF484520D040F2F5535F
:1028800098421AD0B0F5C67F14BF01220E229DF8DF
:102890000F3008EB43139968DC6812EB010B44F12D
:1028A00000045E4577EB0403B6D2002005B0BDE816
:1028B000F08F3323DCE71D23DAE73322E7E71D221D
:1028C000E5E700BF400E00202DE9F04F154692F8D5
:1028D000008092F80BC0AF7A12891C4687B00023A3
:1028E000E3602361C4E9003327749DF8409084F8C5
:1028F0000DC00646A3606361E28184F811800F4633
:10290000B8F1000F49D1FEF72DFED5E904C2584BAE
:10291000C31841F1000E9C4572EB0E030AD3013E31
:1029200047F1FF37C4E900674FF47A73A36007B03B
:10293000BDE8F08F263041F10001844572EB0103C0
:10294000EDD3288901300021844572EB0103C0F0EA
:102950008180BCEB000062EB010104F10C030093E9
:1029600003AA04ABFEF760FE039B6868E97A2A8934
:102970000233034400290CBF7A2047201344184433
:10298000FEF7ACFEDDE90432C01A20F07F40C4E956
:102990000032A06007B0BDE8F08F364803A9801A66
:1029A00004F10C02FEF714FEB4F80EB00DF10B02A8
:1029B00004A95846FEF70CFE2F4B1B78202B2CD079
:1029C0002E490B69D1E90521053342F1000A13EBC9
:1029D00001084AF1000A6B68227B981CEB7AC4F864
:1029E0000080002BE389C4F804A0134403440CBF07
:1029F0007A2047201844FEF771FE3246A0603B461D
:102A00002869CDF800902146FFF7EAFE00288ED114
:102A1000C4E9006707B0BDE8F08F16F1090847F177
:102A2000000ABBF1000FD6D0FFF722F90028D2D15F
:102A3000FEF7AEFE40F2563398420ED040F2F55308
:102A400098420FD0B0F5C67FC5D116F1160847F1F0
:102A5000000AC0E7404641467FE716F1250847F1E6
:102A6000000AB8E716F13B0847F1000AB3E700BFD8
:102A70000040420FFF7F841E4012002048120020B9
:102A80002DE9F04F97B01C46CDE904128246FFF7BE
:102A9000E7FADFF8F4820E464FF08041D8F8A02024
:102AA0000123C1F8083505460821B448136001EB3D
:102AB0004412131800EB4417B3F80E9014581A7B05
:102AC0000192D3E901B3083708930FCF0DF1380C09
:102AD000ACE80F0097E803008CE8030024F07F4087
:102AE000FEF732FD019A09F101031344A44A904212
:102AF000034400F21F82934200F3DA80002BC0F2FD
:102B0000D1800793FFF7B4F80290B9F1000F40F0BD
:102B10009980FEF73DFE40F25633984200F0D68091
:102B200040F2F553984200F0CE80B0F5C67F00F039
:102B3000C48000230393002003210246B6F1FF3F27
:102B400008BFB5F1FF3F1BD0A54276EB0B03C0F0E9
:102B50009B802F1B66EB0B03B7F5000F73F100038F
:102B600080F0ED81671B002F2B4609DD002A00F065
:102B7000B08098F8181000290CBF0146002100E031
:102B80005346671EA7EB03034BF1FF308B420090C7
:102B9000069752DB029B7BB9D8E90431B1F1FF3FC4
:102BA00008BFB3F1FF3F07D00398E31A6BEB0101B5
:102BB000834271F100033DD3009B0992049AB7EB65
:102BC0000A0A63EB02030293FEF7E2FD40F2563C71
:102BD0006045029B099A00F0BD8040F2F55C6045BB
:102BE00079D0B0F5C67F14BF0B201820824573F151
:102BF000000375D2059B012B00F0B480002A40F041
:102C0000AB80B6F1FF3F08BFB5F1FF3F00F0A480F5
:102C1000009BE91B66EB0303052973F1000080F2BA
:102C20007481012973F1000307DA2F460695009697
:102C3000154665E0B9F1000FBED00024204617B05C
:102C4000BDE8F08FD8E90423B3F1FF3F08BFB2F12C
:102C5000FF3F7FF45EAF00287FF45BAFFEF798FD87
:102C600040F25633984200F0608140F2F5539842AA
:102C700000F05681B0F5C67F00F04D81029B0393B2
:102C800003211846012259E7671B6BEB0603B7F5D2
:102C9000000F73F10003FFF466AF40F289717020FA
:102CA00001F0E2FA03F1F45303F59023079329E7C7
:102CB00003F1614303F5F70323E700200D2303210C
:102CC000039302463AE73223039334E71C2303932A
:102CD00031E7014655E73D20824573F1000389D372
:102CE000B9F100050099384618BF0125FFF70EF924
:102CF000009BB3F1FF3F08BFB7F1FF3F00F0248115
:102D0000069B23F07F40231A23F07F43013BB3F55A
:102D1000000F92D2089B1B191B1A23F07F43B3F5B7
:102D2000000F8AD8FEF710FC079A164BA2EB000A98
:102D30009A452FD3801A9842C0F0DA80104B9A45FA
:102D400024D8984240F20A81C0F1614606F5F706A0
:102D5000B24620E0272049E700993846FFF7D6F829
:102D60000025C5E7B6F1FF3F08BFB5F1FF3F00F012
:102D7000FA8006952F4600960025C1E7400E0020F8
:102D8000FF7F841E0040420FC81200200AF1F45A4F
:102D90000AF5902A5646794B93F8283023B909F161
:102DA0001E03B34280F2AC80059B012B02D00120B0
:102DB000FFF7CCF9B9F1000F5CD0AAEB09020023B0
:102DC0000120FFF73FFA002850D000235246184652
:102DD000FFF738FA002849D0002D6FD1D8E9042335
:102DE000B3F1FF3F08BFB2F1FF3F05D1FEF7D6FCBC
:102DF00002F096FAC8E9040198F81830002B70D157
:102E000009F11902B24280F2A4800025AAEB020265
:102E10002B460220FFF716FA30B1D8F8A0301D601B
:102E20004FF08043C3F80855089B10934FF0FF30D4
:102E30004FF0FF31CDE90E4B019B8DF84430CDE9C9
:102E40000C0100238DF85030ADF846900A930AAE7D
:102E50000FCE4A4D0FC50FCE0FC596E80F000124C7
:102E600085E80F00204617B0BDE8F08F0120FFF77E
:102E70006DF9E2E652464B464846FFF7E3F9002873
:102E8000F4D0D8E90423B3F1FF3F08BFB2F1FF3F0C
:102E90001CD1002DB0D0039BFA1A009B4FF0050007
:102EA00063F10003FFF7CEF9002861D098F81830DD
:102EB000002BA5D1012388F81830A1E7D8E9042315
:102EC000B3F1FF3F08BFB2F1FF3FE4D0FEF7B0FC23
:102ED0004FF0FF324FF0FF33C8E90423002D8BD0B1
:102EE000D9E70520FFF732F9002388F8183087E783
:102EF000224B93F828304642B246002B7FF454AF61
:102F00004FF4FD61702001F0AFF900993846154685
:102F1000FEF7FCFFECE60D201021039001220DE6E8
:102F2000322035210390012208E61C201F21039046
:102F3000012203E640F23D41702001F095F940F294
:102F40008D71702001F090F940F2D471702001F081
:102F50008BF94FF40161702001F086F940F6B2015F
:102F6000702001F081F940F2FB61702001F07CF9E2
:102F700040F22921702001F077F900BF48120020AB
:102F80003B4B2DE9F04793F828303A4DDFF8E880C5
:102F9000002B00EB40030746EC5C14BF0026022622
:102FA0004FEA4709FFF762F84FF0200C4FEA471E3F
:102FB00008EB44120EEB04039168126905EB430A17
:102FC0000B1A23F07F439E420FD8B3F5000F0CD8A5
:102FD0005218121A22F07F42B2F5000F05D8BCF148
:102FE000200F0BD12046BDE8F0879AF82130202B26
:102FF000A4461C46DCD1BCF1200FF3D00CEB4713E8
:1030000009EB070205EB430315F802E093F82130C2
:10301000AB547901744604260B1905EB4303224691
:103020009445204683F8206093F82140F4D109EBC1
:1030300007032B440A4493F802C0BCF1200F5FFA47
:103040008CF618BF76184F4418BF05EB460605EB03
:1030500042023D4408BF83F801E04FF0200318BF4F
:1030600086F821E0A87082F821302046BDE8F0877C
:1030700048120020C8120020400E00202DE9F04127
:1030800001EB41034C4DEE5C82B0202E01910C46C9
:1030900080464FEA41073DD1484B0BB1AFF300806A
:1030A00002F03EF9AB7E202B0AD0454BD3E904E277
:1030B00010F1020C41F10003E64572EB03032ED33D
:1030C000202E0AD042463346FFF7DAFC00283BD0D8
:1030D0000220AE7602B0BDE8F081D5E90423B3F159
:1030E000FF3F08BFB2F1FF3F1DD12B7E33BB042051
:1030F000FFF72CF802F022F9D5F8A0104FF080422B
:103100002020A876002301200B60C2F8083502B009
:10311000BDE8F0810846FFF733FF8642BCD00020AF
:1031200002B0BDE8F081FEF783FB4FF0FF334FF0B4
:10313000FF32C5E904232B7E002BD8D00520FFF7F2
:1031400005F800232B76D2E73A1906EB441305EB7A
:10315000430315F802E093F82130AB546101734644
:103160000420CA189C4605EB4202664592F82130BD
:1031700082F82000F5D13B192B443C449878202854
:10318000C2B218BF5218614418BF05EB420205EBEA
:103190004101254408BF83F801E04FF000004FF0E3
:1031A000200318BF82F821E085F802C081F82130A1
:1031B00002B0BDE8F08100BFC8120020000000008E
:1031C000481200202DE9F04F87B002F0A9F8C44E54
:1031D00005460F4602F0B2F8D6E90223B3F1FF3FED
:1031E00008BFB2F1FF3F05D04FF0FF324FF0FF3381
:1031F000C6E9022396F82830002B00F0F380737F95
:10320000002B00F0ED80B74CE379002B40F0DE801E
:10321000E81C47F10001FEF779FE237A002B40F00D
:103220005481DFF8C88298F800B00122BBF1200F6A
:10323000227200F04F812022A37188F80020A2762C
:10324000E3713360637E03EB43025FFA83F9A25CB0
:103250005B00202A019308D0DFF894A253010AEB07
:103260004212517E012900F0E280019BDFF884A226
:1032700003EB090727444FEA49183D78202D04D075
:103280004846FFF77DFE8542F7D1BAF1000F01D025
:10329000AFF3008002F044F8A37E202B09D0D6E9DA
:1032A000042310F1020E41F1000C724573EB0C0384
:1032B000E3D3202D39D02B460122FFF7E1FB002874
:1032C00055D0A57608EB0B0304EB430393F82020BD
:1032D000022A1DD1019A4A442244062183F8201073
:1032E0009178CBB220291CBF434404EB4303D8445C
:1032F00018BF83F821B0019B08BF82F801B04B448E
:10330000234404EB480883F802B0202388F82130D6
:10331000019B4B449946A144FF2299F80130627207
:10332000202B56D107B0BDE8F08FD4E90423B3F1C8
:10333000FF3F08BFB2F1FF3F07D0FEF779FA4FF029
:10334000FF324FF0FF33C4E90423237EC3BB0420C4
:10335000FEF7FCFE01F0F2FFD4F8A0104FF080421F
:1033600000232020A0760B60C2F80835AAE708EBFE
:10337000050304EB4303387893F821303B70024691
:1033800004211346424404EB42029D4282F820107D
:1033900092F82120F5D1B978BB70CAB220291CBFA0
:1033A000424404EB4202434404EB430318BF82F857
:1033B00021004FF0200208BF787083F821205CE7DD
:1033C0000520FEF7C3FE00232376C0E7FEF764FE68
:1033D00023E7454B187807B0BDE8F04F00F0E4BF95
:1033E000404C15E74FF40C71B069FEF7A7F933694B
:1033F0007269B169023342F100025B1842F10002C6
:10340000181842F10002854277EB0203FFF4F7AE91
:10341000364B374A1B78580102EB431308211258E8
:10342000586890474FF43171702000F01DFFD08A2A
:1034300003930DF1130205A90290FEF7C9F898F85D
:103440000020202ADDE9020313D03269B16912F1AC
:103450000508726942F1000218EB010842F100020E
:103460009A44DAE902134145934128BFCAE902822E
:10347000FBE615F1090847F100020028F0D0CDE97C
:103480000223FEF7F5FBDDE902230028E8D1FEF771
:103490007FF940F256318842039B0CD040F2F5513F
:1034A00088420DD0B0F5C67F029AD9D115F1160821
:1034B00047F10002D4E715F1250847F10002CFE7F4
:1034C00015F13B0847F10002CAE74FF4377170204D
:1034D00000F0CAFE40F2DF21702000F0C5FE00BF00
:1034E00048120020C812002078120020401200204C
:1034F000400E00200000000070B5124C0D4606463C
:10350000FEF774FA637E04F1200CD9B20CEB831C35
:10351000002302E00133202B12D01CF81320D8B274
:10352000002AF7D103EB4111074A04EB410459018A
:1035300002EB43135650012284F820205D6070BDD9
:10354000184670BDC8120020400E00201F2809D860
:103550000B494B7E00EB431301EB430393F8202010
:10356000012A01D0002070474B7E00EB431301EB92
:1035700043034FF0000C104683F820C0704700BF93
:10358000C812002010B5094C04EB4014D4E9020124
:10359000FDF7E8FF227DE38A9B1803F101034FF05A
:1035A00000025241181842EB010110BD400E0020EC
:1035B0002DE9F04FAF4A536891B0C3F30803834637
:1035C0000491002B40F0688108230393049B1B782F
:1035D000012B00F24C82A84E26B1002140F29C50F3
:1035E000AFF300800023A54C05934FF0010926B1ED
:1035F000002140F2A950AFF30080B9F1000F04D1CF
:103600009F4B0BB1AFF3008062B6657EEDB24FF019
:1036100000036372039B002B40F09E80A84626B1F6
:10362000002140F2BD50AFF3008001F079FE049A12
:1036300000950AAB8246FFF747F926B1002140F218
:10364000C550AFF300800BEB481904EB49094FEA72
:10365000481799F82030013B012B7BD80A992AF0B2
:103660007F4AA1EB0A0222F07F4323F00103002BE3
:1036700040F0C38008EB4802224407EB0B0390782C
:1036800004EB43030421202883F820104FEA480369
:10369000C1B200F0A281394404EB410181F821B0AC
:1036A000434423445F4404EB470783F802B02023DC
:1036B00087F8213000230593012726B1002140F22D
:1036C000CA50AFF300806F4B0BB1AFF30080EFF344
:1036D0001088C14672B6637A002B88D16A4B0DF10F
:1036E000280E03EB4B1CBEE80F000CF1080CACE8F5
:1036F0000F009EE803008CE803008FB1039B002BB2
:1037000000F0EA80059B23B1604B1B78202B00F072
:103710006781637EDB4303F001036376FF236372FB
:10372000B8F1000F04D1564B0BB1AFF3008062B675
:1037300026B1002140F20160AFF30080002F4AD192
:1037400026B1002140F20D60AFF30080384611B081
:10375000BDE8F08F0027B0E74D4B05F1010A0AF0F4
:10376000010A03EB851E03EB8A1CBEE80F00ACE8E0
:103770000F00BEE80F00ACE80F00BEE80F00ACE899
:103780000F009EE80F002DB28CE80F00D0460FFA14
:103790008AF726B1002140F2FA30AFF3008005EB42
:1037A000450507EB47076319625B9B78E2532744A3
:1037B000BB7056B1002140F2FE30AFF3008026B15D
:1037C000002140F2B350AFF30080637A002B7FF406
:1037D0000EAF554623E7637E03EB43031C44637837
:1037E000202BADD026B100214FF4C160AFF3008093
:1037F000284B187800F0D8FDA2E722F07F42B2F5FE
:10380000000F3FF637AF0C9B5B18A3EB0A0323F0C6
:103810007F43B3F5000F3FF62DAF0DF127030DF1F8
:10382000260229460AA8FEF73DFF059000285AD136
:1038300008EB480222440423907889F820304FEAAC
:1038400048032028C1B2434418BFC91923445F4428
:1038500004EB470718BF04EB410183F802B04FF0B7
:10386000200314BF81F821B082F801B087F821301D
:10387000012722E700ED00E000000000C812002050
:103880000000000000000000400E00204012002058
:10389000E812002078120020103B59B20029C0F233
:1038A000948001F1604101F5614191F800335B09B9
:1038B0000393002B7FF48AAE744B1B78202B00F00F
:1038C000DB80049B1B780393002B3FF484AE40F213
:1038D0009551702000F0C8FCFF236372B8F1000F0F
:1038E0007FF426AF1FE79DF826C09DF827E0F4453A
:1038F0001AD1BCF1200F00F0A78007EB0C0304EBFA
:10390000430393F8213089F82130BC4404EB4C0C7C
:1039100000228CF821B05F4404EB4703059F059219
:10392000032283F82020C8E6BEF1200F00F0A98012
:1039300007EB0E0304EB4303BCF1200F93F82110B7
:1039400000F08D8007EB0C0204EB42024FEA4803C3
:1039500092F82100069082F821104FF0050A3A18DB
:1039600004EB420201468E45814682F820A092F87F
:103970002100F4D103EB08022244079192F802A03F
:10398000BAF1200F5FFA8AFE66D0BE4404EB4E0EF9
:10399000069A8EF8212003EB08022244079982F848
:1039A0000290394407EB0B024FF0200E04EB41016B
:1039B00004EB4202F44581F821E082F82100A4D111
:1039C0004344059A04F803B0A5E703F00F03043B52
:1039D00013441B7E5B0903936BE782F801B05FE63B
:1039E00029460220FFF74AFB00287FF492AE637E4F
:1039F00003EB430020440BEB431204EB42028578B7
:103A00000421DFB282F820105A015B00202DE9B2B8
:103A10003B4418BF891823445A4418BF04EB4101A2
:103A200004EB420283F802B04FF0200318BF81F884
:103A300021B0059F08BF80F801B082F82130B8F1AD
:103A4000000F7FF475AE6EE608EB4803E35C89F87F
:103A500021304FEA4803B3E7069951709BE708EB22
:103A600048024FEA4803A05C0690A15475E740F273
:103A70009951702000F0F8FB40F29251702000F054
:103A8000F3FB40F2D311702000F0EEFB4012002057
:103A900070B506280ED8DFE800F01D4F040D0D6F3D
:103AA0000E00B04B4FF08041D3F8A0200123C1F8A5
:103AB0000835136070BDAC4D2B78202B00F08F8043
:103AC000AA4C5A0104EB4313A2585868BDE8704051
:103AD00005211047A34CD4E90423B3F1FF3F08BFED
:103AE000B2F1FF3F00F0D680A14EF38B002B6DD1D9
:103AF0009D4D2B78202B00F0AB80D6E90223FF21CF
:103B0000B3F1FF3F08BFB2F1FF3FE17105D00520DF
:103B1000FEF798FB002800F01F81737F012B00F057
:103B20008B802B78914A590102EB4313BDE870401A
:103B300052585868012110478B4D8A4C2B78202B06
:103B400000F0AF800123A371FEF792F8002800F087
:103B5000F480D4E90423B3F1FF3F08BFB2F1FF3F83
:103B600063D02B78814A590102EB4313BDE87040C2
:103B700052585868002110477A4C237E5BB1D4E933
:103B80000423B3F1FF3F08BFB2F1FF3F00F0AC8068
:103B90000023237670BD744D2A78202A00F0AB8074
:103BA000734E4FF0FF324FF0FF33C6E90223E37943
:103BB000002B00F0C7802B786C4A590102EB4313AD
:103BC000BDE870405258586806211047FEF750F87B
:103BD00000288DD14FF4D061702000F045FB614981
:103BE0004B7E03EB4300DAB20B5C202B00F0AF807E
:103BF00003EB421201EB420292F821400C54FF20E9
:103C00004872022082F82000584C59482B7000223C
:103C10000A7280F8282004EB4312127E002A7FF4F7
:103C200050AF00F00BFF2B784BE7FDF7B7FD01F02D
:103C300077FBC4E9040194E7D6E90401B2690138CD
:103C400041F1FF31801841F10001FEF7C5F968E745
:103C5000627ED3B202EB4202A15C202977D001EB55
:103C6000431304EB430393F82100A0543F4A297007
:103C700002EB41110022227286F82820097EFF22E1
:103C80006272022283F8202000297FF436AF00F010
:103C9000D5FE32E7FDF782FD01F042FBC4E90401E5
:103CA00022E7637E03EB4301DBB2625C202A4ED045
:103CB00002EB431304EB430393F821006054FF210C
:103CC0006172022183F82010284B2A7003EB421204
:103CD0002748137E002180F828102172002B7FF4E2
:103CE00031AF00F0ABFE2DE7FDF758FD01F018FBFA
:103CF000C4E904014CE7617ECAB201EB4101605C9A
:103D0000202824D000EB421204EB420292F82160FA
:103D100066541649164E287001EB4010237286F83F
:103D20002830017EFF236372022382F820300029AD
:103D30007FF437AF00F082FE33E740F2AA617020D3
:103D400000F092FA40F29C61702000F08DFA4FF47E
:103D50001571702000F088FA40F28561702000F043
:103D600083FA00BFC812002040120020400E00203D
:103D70004812002070B5284B1A78202A86B045D00A
:103D8000264CD4E90213B3F1FF3F08BFB1F1FF3F66
:103D900037D1234D05EB42150646D5E90201FDF763
:103DA000E1FB2B7DEA8AD21802F101024FF0000CF0
:103DB0004CEB0C0C93194CF1000C18180DF10B0383
:103DC0004CEB0101009303AA04ABFDF72DFC9DF819
:103DD0000B20DDE904310F2A94BF002201229B1839
:103DE00041F10001C4E902310E4BDB7913B9012026
:103DF00006B070BDD4E902230520FEF723FA06B011
:103E000070BD40F68901702000F02EFA40F688015E
:103E1000702000F029FA00BF401200204812002054
:103E2000400E0020C812002038B5224B93F800E065
:103E3000BEF1200F38D0204D6B7E95F819C003EBF2
:103E400043035FFA8CFCEB5C202B1FD01B4C4FEA2A
:103E50004C1C06E0634405EB430393F82130202B10
:103E600014D004EB4312117E8142F3D804EB4E14BC
:103E7000D4E9021320694018D2E9021243F1000389
:103E8000814272EB030304D2002038BD4FF0FF30B3
:103E900038BD0B4B081A1C68FDF756FB04F16F0385
:103EA0008342F1D8001B38BD40F6C201702000F0FB
:103EB000DBF900BF40120020C8120020400E002095
:103EC000481200202DE9F04F924B1E7887B0202E2B
:103ED000019000F01A81904F904D7B7E286803EB93
:103EE00043030DF11302FC5C019B18442B690393FF
:103EF0008946AB69029305A9FDF76AFB019A884BD5
:103F00006F3A9A4261D8DFF82082059B696908EB15
:103F10004616B2689B1832699B182A699B1A23F0CF
:103F20007F40B0F5000F50D897F819A0AB61202C56
:103F300085F820905FFA8AFA18BF4FF0200B00F046
:103F4000D88008EB441C9B18DCF8080041F1000104
:103F50009842DCF80C308B414FEA441651D3BCF840
:103F60001630002B35D10520FEF7F0F8797E4FF0A2
:103F7000FF324FF0FF33BBF1200FC5E90223C9B276
:103F800040F0A98001EB410120247B5C614A797EED
:103F9000127802EB411207EB420282F821302B68C3
:103FA000019A13442B60FF237B72FB791BB16B7F5B
:103FB000012B00F09280202C43D05A4B187800F04F
:103FC000F3F9002007B0BDE8F08F012007B0BDE88D
:103FD000F08FEB8B002BC6D1A0EB0209FDF7D8FBCD
:103FE00040F25633984220D040F2F55398421AD00E
:103FF000B0F5C67F14BF01230E234B45B3DD95F802
:1040000020904644337E4B4511D904EB4A1307EB0D
:10401000430393F82130202B17D0A346D5E9042180
:104020001C46AB698DE73323E7E71D23E5E7DDE9B0
:1040300002312A695B189B1A0220AB6107B0BDE808
:10404000F08F002007B0BDE8F08F0520FEF77EF866
:104050004FF0FF324FF0FF33797EC5E90223C9B23A
:1040600004EB411307EB43034FEA410C93F8212083
:1040700001EB4103480117F803A0FA544FF005087B
:10408000534600EB030E07EB4E0E1A4694421E46B3
:104090008EF820809EF82130F3D10CEB010EBE4447
:1040A00061449EF80290B9F1200F5FFA89F818BFB9
:1040B00080443944024418BF07EB480807EB42022A
:1040C0008E704FF0200114BF88F821A08EF801A057
:1040D00082F821105AE75C46C2E7D5E90431A869A5
:1040E000013B41F1FF31181841F10001FDF774FF68
:1040F00061E70520FEF72AF8797E4FF0FF324FF096
:10410000FF33C5E90223C9B23CE740F6EA0170205B
:1041100000F0AAF840120020C81200204812002027
:10412000913F420F78120020400E0020BFF34F8FC6
:104130000549064BCA6802F4E0621343CB60BFF343
:104140004F8F00BFFDE700BF00ED00E00400FA055F
:10415000094B01225A604FF0FF32C3F80823074B86
:104160004FF48042C3F88020BFF34F8FBFF36F8FAF
:10417000C3F88021704700BF00E0004000E100E08C
:10418000094B01225A604FF0FF32C3F80823074B56
:104190004FF48052C3F88020BFF34F8FBFF36F8F6F
:1041A000C3F88021704700BF00C0004000E100E07C
:1041B000084B0022C3F8FC2F0122C3F8FC2F064B4A
:1041C0000222C3F88020BFF34F8FBFF36F8FC3F875
:1041D000802170470010004000E100E0F8B51B4E60
:1041E000337805460C4617466BBBFDF7CBF8184BEA
:1041F0007760002D08BF1D4628463472FFF7D8FFB0
:10420000FFF7BEFFFFF7A4FFFDF7FCFB0546C0B9B3
:10421000FCF776FFFDF7EAFBFDF734FB00F086FFC5
:10422000002C0CDB04F01F026409A40004F16044BC
:1042300004F5614401239340C4F8803123600123D5
:1042400033702846F8BD4FF0FF35FAE76C130020B5
:1042500012A6050008B572B6024B5B6803B1984719
:10426000FFF764FF6C1300201FB572B6134B5D6837
:104270008DB9FFF75BFFB2FBF6F2DCB20133002A27
:10428000F9D104F110036B4403F80C2C0A2234B961
:1042900001A8A847EDE7024600230A26EDE7631EC2
:1042A00004AEDCB256FA83F3B0FBF2F602FB160062
:1042B000303003F80C0C3046E9E700BF6C130020E7
:1042C000074B93F90830002B09DB5A09012103F051
:1042D0001F0301FA03F34032024941F822307047CC
:1042E0006C13002000E100E0014B1878704700BF1C
:1042F0006C1300201B4B4FF4805270B5C3F8802024
:10430000BFF34F8FBFF36F8F174D184C0021C5F8C7
:104310000011C3F880212669236943F0100323614B
:104320000123C5F8043306F010062B60D5F80031E0
:10433000A3B11EB9236923F0100323610A4B0122A4
:10434000D3F808055A60C3F808230022C3F80021F7
:10435000044B4FF48052C3F8802170BD01F061F826
:10436000E4E700BF00E100E000C0004000ED00E035
:1043700038B50C4902460520431ED8B2FF2803D1A8
:1043800048216920FFF770FF01EBC0031D7905F09C
:10439000FF04002DF0D141F8302001225C719C71A6
:1043A0001A7138BD78130020042808B503D95821A4
:1043B0006920FFF759FF094B03EBC0000379012B7C
:1043C00001D05921F4E7437982790133DBB29A4273
:1043D00018BF4371BDE80840FFF772BF7813002093
:1043E00070B5124C06250026013D15F0FF0500D1E1
:1043F00070BD94F8281004EBC1031A79012A09D181
:1044000058799A79904205D05A79D2B29A7154F873
:104410003130984794F828300133DBB2042B94BF35
:1044200084F8283084F82860DEE700BF7813002085
:1044300008B500F0A8FF70B900F0AEFF58B900F061
:10444000B4FF40B900F0C3FF044A054B002808BF81
:104450001346184608BD024BFBE700BF00E70140CA
:104460000C05004008B500F0B2FF08B3EFF3108070
:1044700072B6104A1369116941F010011161A2F579
:10448000406203F01003D2F80011D2F804210A436D
:1044900000D040BF20BF00BF00BF00BF00BF23B996
:1044A000044A136923F01003136100B962B608BD12
:1044B00020BFFCE700ED00E02DE9F04184075FFA42
:1044C00081FE5FD0002A59D0034601E0002A55D072
:1044D00003F801EB990702F1FF32F7D14EEA0E24FF
:1044E000032A44EA04443ED9151FAE08172D06F1ED
:1044F0000106C3F3800147D99846002940D048F807
:10450000044B771A03EB810C79080CEBC101CCE961
:1045100000440CF1080C6145F9D127F0010C08EBBF
:104520008C016745CCEB8C7805EB880517D02F1FE5
:10453000032F0C6013D9A5F10807032F4C600ED987
:10454000A5F10C07032F8C6009D9A5F11007032FE3
:10455000CC6004D9143D032D0C6188BF4C6102F07E
:10456000030203EB86034AB1013A83F800E005D069
:10457000012A83F801E018BF83F802E0BDE8F0816A
:104580001546BEE70346A9E719461546CFE700BF23
:10459000014B1B681B68184744040020014B1B6833
:1045A0005B68184744040020014B1B689B68184750
:1045B00044040020014B1B681B6918474404002079
:1045C00038B504201E4CFFF72FFC2568854228BF14
:1045D000054604212846FFF775FC20B1012820D0AC
:1045E0004FF4A27108E02368E068AB420DD1FFF7F9
:1045F000C1FB20B94FF492716B20FFF735FEE268E2
:10460000236822611344E36038BD05446089E56096
:104610000123281A2375FFF7ADFB60B94FF497719A
:10462000EAE763892075E068C01AFFF7A3FB10B9B9
:1046300040F23B11E0E76289E3689B1A2361E3E7FC
:10464000A813002008B50C4B1A7802F0FF0312B132
:104650005A1E1A4203D0DF216B20FFF705FE19B165
:10466000034207D1E421F7E723EA00039B0601D1C7
:10467000E821F1E708BD00BF4804002008B50D4B54
:1046800001221A764FF480221A621A68DA615A6897
:104690009A62094A93F830000221117003F118015F
:1046A000FEF786FF20B940F205116B20FFF7DCFD15
:1046B00008BD00BFA81300204804002070B5EFF328
:1046C000108572B6264C94F831600023012E84F8D0
:1046D000313006D0022E1DD0002E3BD185F310883C
:1046E00070BD85F3108894F8323003F0FF0123B1D8
:1046F00040F251116B20FFF7B7FD1420FFF7A2FF26
:10470000184B84F832601B78012BE9D1BDE870406A
:10471000FFF7B4BF94F8322012B94FF4B171E9E752
:10472000104984F832300B78023BDBB21E2B0ED8D6
:10473000012202FA03F30C4A1342CFD144F20402DD
:10474000134204D020230B70FEF73CFDC6E74FF464
:10475000BF71CFE785F310884FF4D271CAE700BF6D
:10476000A8130020480400204100004070B5144CFC
:1047700094F8335025B140F287216B20FFF774FD88
:10478000104B84F8325001261E700F4B0F484FF427
:10479000C852C4E900230E4BA360FFF7E9FD294688
:1047A00084F834000B48FEF7A7FE202884F8300078
:1047B00002D140F29621E0E784F8336070BD00BF7B
:1047C000A813002048040020FF3F420FBD46000010
:1047D0000500B7004949000008B5104B93F8332095
:1047E00022B940F2F6216B20FFF73EFDEFF3108176
:1047F00072B693F8312022B1012A0DD040F2063171
:10480000F1E7022283F8312001B962B693F834004F
:10481000BDE80840FFF7C8BD0022F3E7A813002059
:104820000B4B93F8333010B523B940F215316B20A0
:10483000FFF71AFDEFF3108472B6064B1A78102AB0
:1048400003D108221A70FEF7BDFC04B962B610BD90
:10485000A81300204804002070B5174B1B78042BC8
:1048600027D1164D2B7D1BB96B892868C01A70BDE6
:1048700000F00DFD10F11E0495F8300041F1000626
:10488000FEF780FE2B691B1841F100019C4276EB7C
:1048900001004FF000020CD2181B4FF0FF3361EB08
:1048A0000601834272EB0103E1D2A6216B20FFF7E0
:1048B000DBFC0020DBE700BF48040020A813002039
:1048C00038B5144C94F8333023B940F2CB216B2027
:1048D000FFF7CAFCEFF3108572B694F8313023B1BC
:1048E000022B0DD040F2DE21F1E7012384F83130B4
:1048F00005B962B694F83400BDE83840FFF754BDFE
:10490000054B1B780022042B84F83120F0D11EF0D7
:104910008DFBEDE7A81300204804002008B5094BE3
:1049200019781029CAB207D0202A05D0042A04D148
:1049300010221A701EF08AFB08BD40F2C3116B20D2
:10494000FFF792FC4804002070B50C46FDF78EFB83
:10495000611E06294AD8DFE801F004535328236674
:104960005F0001210220FFF76DFE314B314A93F8C1
:10497000321079B1042111701A68DA6000221A75B8
:1049800093F83130022B01D01EF050FBBDE870408F
:10499000FFF716BE20231370BDE87040FEF712BC6F
:1049A00040F20F216B20FFF75FFC214C94F832306E
:1049B000E3B1204B1B78042B19D100F068FC0646AC
:1049C00094F830000D46FEF7DDFD227D012A0BD163
:1049D0002269121841F10003964275EB030303D3D9
:1049E000BDE87040FFF79ABF0EF008F870BD124B9B
:1049F0000222C3F88020BFF34F8FBFF36F8FF5E71C
:104A000001210220FFF71EFE094B93F8323033B12B
:104A1000BDE87040FFF732BE01212820F2E7054BC8
:104A200001221A70E2E7024B1B7D012BAED1D7E7C2
:104A3000A81300204804002000E100E0014B0122FF
:104A40009A777047E01300202DE9F04786468C46A0
:104A50000846089E154674461946002B40F0C28051
:104A60008542B2FA82F245D94AB1C2F1200300FA76
:104A700002FC2EFA03F3954043EA0C0C94404FEAF3
:104A8000154EA8B2BCFBFEF8230C0EFB18CC08FB9D
:104A900000F943EA0C43994528D9EB1808F1FF3790
:104AA00004D2994502D9A8F102072B44A3EB0903CC
:104AB000A4B2B3FBFEFC0EFB1C330CFB00F044EA7B
:104AC0000344A04214D92C190CF1FF3304D2A042A4
:104AD00002D9ACF102032C44241A43EA07401EB168
:104AE000D440002334607360BDE8F0874746DDE7BB
:104AF0006346F1E792BB431B01214FEA154EAFB26B
:104B0000B3FBFEFC200C0EFB1C330CFB07F840EA49
:104B10000343984562D9EB180CF1FF3004D2984555
:104B200002D9ACF102002B44A3EB0803A4B2B3FBFF
:104B3000FEFC0EFB1C330CFB07F744EA0344A742C0
:104B40004ED92C190CF1FF3304D2A74202D9ACF193
:104B500002032C44E41B43EA0040C0E7C2F12003F7
:104B600020FA03F1954090402EFA03F303434FEAF5
:104B7000154EAFB2B1FBFEFC0EFB1C10190C0CFB6A
:104B800007F841EA0041884504FA02F422D969187D
:104B90000CF1FF3004D2884502D9ACF1020029445F
:104BA000A1EB08019BB2B1FBFEFC0EFB1C110CFB40
:104BB00007F743EA01439F420ED9EB180CF1FF318E
:104BC00004D29F4202D9ACF102012B44DB1B41EA23
:104BD000004192E76046E3E76146F7E76046A3E7F6
:104BE0006346B7E7834206D916B9002108467BE73A
:104BF000C6E900E0F9E7B3FA83F78FB9834201D33E
:104C0000724508D8BEEB020460EB030301209C460A
:104C10001EB9002168E73846FAE7C6E9004CF8E714
:104C2000C7F1200CBB4022FA0CF41C432EFA0CF105
:104C300020FA0CF3B84001434FEA14490EFA07F585
:104C4000B3FBF9F81FFA84FE09FB18300B0C08FBC4
:104C50000EFA43EA00439A4502FA07F240D9E318F4
:104C600008F1FF3004D29A4502D9A8F1020023448A
:104C7000A3EB0A0389B2B3FBF9F809FB183308FB6D
:104C80000EFE41EA03418E452CD9611808F1FF332D
:104C900004D28E4502D9A8F10203214443EA004020
:104CA000A0FB0298A1EB0E014145CE46434602D33C
:104CB00006D14D4504D2B9EB020E68EB040301386E
:104CC000002EA6D0B5EB0E0261EB030101FA0CFC3D
:104CD00022FA07F34CEA0303F940C6E9003198E7EA
:104CE0004046C5E74346D9E7FCF74CBB801A00F3C2
:104CF000070038B540B20D4659B21446FCF732FBF6
:104D00000023287020446C70AB7040B238BD37B5BA
:104D1000A0F10B04E0B20F28154603D94F216420FF
:104D2000FFF7A2FA0DF103030A4601460420FCF73F
:104D3000D5FA034608B15821F1E704EB840404F6E0
:104D400065149DF90300A2B201A9FCF7B7FA9DF81A
:104D500004302B70BDF80530A5F8013003B030BD2C
:104D6000002070474FF0FF3070474FF0FF30704722
:104D700070477047002070474FF0FF3070470020A9
:104D8000704790F90030002B14BF6FF01500002021
:104D900070470023037070470022FFF7A7BF002071
:104DA00070474FF0FF3070474FF0FF3070474FF0C3
:104DB000FF307047002303707047C0B2704738B5AA
:104DC000054691F827000C46FEF7C0FB18B9D8211C
:104DD0006A20FFF749FA0023A38484F826300921CA
:104DE000236A2846984718B103780BB1DC21EFE716
:104DF00038BD426808B5034611441A785960012A43
:104E0000A1F1500006D1FEF7B5FF40B9BC216A20E0
:104E1000FFF72AFAFEF7AEFF08B9C121F7E708BD90
:104E2000F8B504460E4619B9012384F829303DE04F
:104E30000D78032DF8D8DFE805F03B02121548681D
:104E4000C72802D800252846F8BD0421FFF73AF804
:104E50000028F7D171682046FFF7CBFFF3E7FCF796
:104E6000FDFAF0E790F8247007BB4D682846FCF780
:104E7000C9FA0028D8D02B78E3B901222270E37256
:104E80002B79002B0CBF2B23002323816B79002B64
:104E90000CBF02230423A372AB6860336360EB682A
:104EA0002361032384F8263084F82520FCF7D6FA02
:104EB0000225C8E794F82630052B04D04FF4BE71C4
:104EC0006A20FFF7D1F92770E7722B7994F8270051
:104ED000002B0CBF2B23002323816B79002B0CBFED
:104EE00002230423A372EB68A96860336360D4E9EA
:104EF00006325B1842EBE172C4E90432042384F801
:104F000026302146FEF754FB0028CFD14FF4BF7165
:104F1000D6E770B50D46044620B94FF4CB716A2030
:104F2000FFF7A2F990F82860082900F2F680DFE880
:104F300001F005144C4C7D8791AA980090F826301A
:104F4000033B012B06D800F0A4F900284ED040F214
:104F50003321E4E740F2A111E1E790F82630033B6A
:104F6000012B02D940F2A511D9E7052390F82410AE
:104F700080F82630002380F8293011BBFFF739FF75
:104F80002378012B18D194F82700FEF7FBFAC4E927
:104F90000601236A00213046984701462046FFF764
:104FA0003FFF022820D0002800F0BA80012840F0FE
:104FB000BA80236A0421EEE7D4E90423C4E9062376
:104FC000E7E7BDE87040FCF749BA90F82630DA1EF2
:104FD000012A02D940F2C311A1E790F8242032B18E
:104FE00001463046FFF7EBFE002DACD070BD042B20
:104FF0000CBF02230123022980F82630036A0AD15C
:105000000521304698470028F0D00378002BEDD0DA
:105010004FF4EC7183E70621304698470028E3D02F
:105020000378002BE0D040F2DD1178E790F82630CD
:10503000052B02D04FF4F27171E7036A0221AAE74F
:1050400090F82630052B02D04FF4F57167E7036A1C
:105050000121A0E790F82630052BB2D04FF4F8716B
:105060005DE790F82630052B02D040F2F51156E7A7
:10507000036A0A213046984701462046FFF7D0FED2
:105080004FF4FC714BE790F82630052B07D090F8D1
:1050900025200AB1032B02D04FF4FE713FE794F8AC
:1050A00024202AB121463046BDE87040FFF787BE74
:1050B00094F8293083B1022384F8263084F829201B
:1050C000236A08213046984700288FD00378002BA8
:1050D0008CD04FF4027122E794F8252062B194F845
:1050E000270084F825302146FEF762FA00287FF475
:1050F0007DAF40F20D2112E7022384F8263007210C
:10510000236A3046984700283FF470AF0378002B9D
:105110003FF46CAF4FF4057101E740F21921FEE650
:10512000236A032137E740F22A21F8E670B5FCF73D
:10513000E1F9002405462646E0B2854200D870BD5C
:10514000FCF7DEF90134868480F82660F4E7F8B5D0
:1051500004460D46FCF7CEF900270646F8B2864213
:1051600004D8082D0CD96FF0150008E0FCF7C8F939
:1051700090F826300137002BF0D04FF0FF30F8BD0B
:105180002CB129462046BDE8F840FCF7C7B92146B6
:105190002046F8E738B50546FCF7B2F9014688B174
:1051A00090F824408CB990F8263073B1013B012B64
:1051B00004D82846FFF703FE204638BD012380F8B7
:1051C0002430F9E76FF00100F7E76FF02200F4E711
:1051D00070B50D46FCF794F9044600284CD090F8C1
:1051E0002660731E012B4DD8002D48D02846FCF7B1
:1051F00009F9002843D02B780BBB01222270E372FF
:105200002B79002B0CBF2B23002323816B79002BE0
:105210000CBF02230423A372AB6860336360EB68A6
:105220002361032394F8270084F826302146FEF7F3
:10523000BFF950BB40F2B1216A20FFF715F8022EEA
:1052400020D100232370E3722B79002B0CBF2B237A
:10525000002323816B79002B18BF0426A672EB680C
:10526000A96860336360D4E906325B1842EBE172EF
:10527000C4E904320423D5E76FF0010070BD6FF07C
:105280001500FBE76FF02200F8E70020F6E7FCF7D7
:10529000F3BE08B50020FCF74DFF0068003818BFCA
:1052A000012008BD08B500F0B0F828B14FF08043E8
:1052B0000222C3F8342C08BD00F089F80028F5D18B
:1052C00000F09AF80028F1D1F5E74FF08043012271
:1052D0001A6070474FF08043D3F8080400F00100D3
:1052E00070474FF08043D3F8140400F0010070477A
:1052F0004FF08043D3F81C0400F0030070474FF0D8
:105300008042D2F81834D2F8182413F4803305D030
:1053100002F003031B1A5842584170471846704761
:1053200007B56846FCF7DEFCDDE900024FF080734C
:105330000021E2FB030103B05DF804FB08B5FCF7B4
:10534000BBFCBDE80840FCF7A1BC00230370184675
:105350007047EFF3108272B603780121DBB201705F
:1053600002B962B6012B0CBF6FF02200002070471B
:10537000EFF3108372B60022027003B962B6002008
:105380007047FFF72DB84FF08053D3F83001A0F1EC
:105390000F035842584170474FF08053D3F8300103
:1053A000A0F10A035842584170474FF08053D3F898
:1053B0003001A0F10E035842584170474FF080531E
:1053C000D3F83001A0F110035842584170474FF014
:1053D0008053D3F83001062803D0431C584258416B
:1053E0007047012070474FF08053D3F83001A0F18F
:1053F0000D035842584170474FF08053D3F83001A5
:10540000A0F1080358425841704708B5FFF7C4FFA0
:1054100030B14FF08053D3F83401B0FA80F0400936
:1054200008BDFFF71FB8FFF71DB800280CBF6FF0CD
:1054300015000020704700207047072303700020EC
:105440007047002070470020704710B50446FFF7F2
:1054500003FAA04294BF0020012010BD000000000C
:105460002DE9F04F9FB08246039116461C46002559
:10547000307810B9284600F085BD731C25280693A6
:1054800006D00399D0470028C0F27C85013527E279
:105490001822002110A84BF0C9F97378252B7DD074
:1054A0000023701C98469E469C461F46014610F8F5
:1054B000012B2B2A00F0A18000F29880202A00F016
:1054C0009F80232A00F09F802BB19DF8483043F045
:1054D00040038DF84830B8F1000F05D09DF84830F2
:1054E00043F020038DF84830BEF1000F05D09DF841
:1054F000483043F010038DF84830BCF1000F05D060
:105500009DF8483043F008038DF848302FB19DF8DE
:10551000483043F004038DF848309DF8483003F0DC
:105520004400442803D16FF386138DF848309DF86A
:1055300048302A2A43F080038DF848307FD19DF807
:10554000492042F001024B1C8DF849201A782E2A7E
:105550009DF849200CBF0121002161F341028DF823
:10556000492078D15A782A2A6ED0013300224FF090
:105570000A0C194611F8010BA0F13007092F40F26F
:10558000AD809DF848101492C1F3400040EAD270FB
:105590000A4660F341028DF848205CE0B21C069296
:1055A0008DF84B309DF84930D90740F1508154F8BF
:1055B000042B0492002A08DA9DF8482042F00402E5
:1055C0008DF84820049A524204925A0740F14781CC
:1055D00054F8047B002F80F246819DF849306FF328
:1055E00041038DF849304FF0FF373CE12D2A0DD0B3
:1055F000302A7FF469AF012358E74FF0010C55E7DB
:105600004FF0010E52E74FF001084FE701274DE739
:105610000EFB0272303A0346184610F8017BA7F1E0
:10562000300CBCF1090FF3D999428FD09DF8481086
:105630001392D20F62F341018DF8481086E70B46B2
:1056400000224FF00A0EE7E79DF8492042F00402DD
:105650008DF8492002331A786C2A5FD043D8682A23
:1056600049D06A2A63D04C2A69D013F8012B0693DB
:10567000782A8DF84B2000F2A9806D2A6CD8692A0F
:1056800000F2A480572A00F28480412A04D0A2F1BB
:105690004503022B00F29A809DF84A3002F0DF02A7
:1056A0000421A2F1410761F302037A429DF84910F7
:1056B0008DF84A307A4162F3C7110A068DF8491015
:1056C000CBB200F1C28003F07802182A40F0AC801F
:1056D0006FF3C6038DF8493000239BE00CFB0202F8
:1056E000303A0B4645E7742A25D07A2ABDD19DF879
:1056F000492006210CE05A78682A9DF8492006D1F5
:10570000012161F3C6028DF849200233ADE7022181
:1057100061F3C6028DF849200133A6E75A786C2A56
:105720009DF8492001D10421EBE70321F0E79DF822
:1057300049200521ECE79DF849200721E8E7BDF85D
:10574000482022F4F04222F0020242F4804242F069
:105750000202ADF84820DFE76E3AD3B201229A4048
:1057600040F282431A429DF8493036D112F0240F9C
:105770005ED1D1072AD59DF84A2003F07803A3F122
:105780004000032161F3020243428DF84A20434165
:1057900040E0A2F15801C9B2012000FA01F111F470
:1057A000624F7FF479AF40F6010319429DF849300A
:1057B00019D111F4043F09D09DF84A2060F3020288
:1057C00003F07803402B8DF84A2085D19DF84830AE
:1057D00043F001038DF848307EE79DF84A2002210E
:1057E00061F30202ECE79DF84A10022003F078030F
:1057F00060F30201402B8DF84A1002BF9DF848105B
:1058000041F001018DF84810632A7FF465AF003B39
:1058100018BF01239DF84820C2F340010B4363F3F6
:1058200041028DF84820BDE613F0380FCED153E782
:105830009DF84A20032113F0780F61F302028DF8DE
:105840004A2014BF01230023E4E70123E2E79DF986
:105850004820002AB4BF139A4FF0FF32B4E69F07E6
:105860007FF5C1AE149F0023CDE913339DF84A3074
:1058700003F00702042A9DF8492007D1900705D4B8
:105880009DF949100029ACBF06270D2703F0070337
:10589000012BC2F3C30233D1D31E042B04D8DFE89B
:1058A00003F02146462121002368012A4FEAE371D3
:1058B000CDE910311CD19DF94030D917CDE9103117
:1058C00004349DF848300793990750D0069B0399FC
:1058D000324650464AF026FD0028C0F25383054464
:1058E000069EC5E554F8043BD917CDE91031E8E729
:1058F000022AE5D119B243F3C033CDE91013DFE733
:10590000022B24D1D31E042B04D8DFE803F0181097
:1059100010181800012A54F8043B4FF0000114D06D
:10592000022ACDE91031CCD19BB21093C9E70734DC
:1059300024F00704F4E80201CDE91001C1E754F8AE
:10594000043B109300231193BBE7DBB2CDE7042B9C
:1059500008D1073424F00704D4E900010834CDE964
:105960001001AEE7032BACD154F8043BDDE79DF802
:105970004BB0BBF1780FB3D8BBF1570F49D8BBF18F
:10598000250F00F09180BBF1240FA9D9BBF1410F85
:1059900003D0ABF14502022AA2D8DDE91012002A99
:1059A000C0F23681079B1E0700F13581C3F3001951
:1059B0004FEA4919C2F30A50C2F31302002840F01B
:1059C0002D8151EA020614BF01260026D20242EAC6
:1059D0005152C902BBF1460F40EA010E42EAE07C97
:1059E00008BF4FF0660B5EEA0C0CCDE90C1200F01C
:1059F0009781002E40F044810D9A42F00042A0F2BF
:105A0000FE380D920020DDE90C1206464FF0050C21
:105A100050E1ABF1580120293FF662AF01A050F8E8
:105A200021F000BFAF5B0000E1580000E15800002A
:105A3000E1580000E1580000E1580000E158000082
:105A4000E1580000E15800009B590000E1580000B7
:105A5000335B0000475B00009B5900009B5900002E
:105A60009B590000E1580000475B0000E15800002E
:105A7000E1580000E1580000E1580000E95B000037
:105A8000AF5B0000B55B0000E1580000E15800008A
:105A9000AF5A0000E1580000AF5B0000E158000081
:105AA000E1580000AF5B000003995846EAE4002F7C
:105AB000109E3ADB394630464AF0C4FE3718002EB5
:105AC0003FF40EAF4FF000099DF84A3013F010027A
:105AD000059200F04C82023013F04003DDF84C8058
:105AE000089318BF149BCDF81C80404418BFC01801
:105AF000049B002B40F356829DF848201B1A049308
:105B00005307C2F3800B00F14D82500640F13D82F5
:105B1000B9F1000F07D003994846D0470028C0F2DA
:105B200031820135D946302230E230464AF045FE16
:105B3000C4E7109B8DF85C304FF000090DF15D0754
:105B400017AE0120C0E7079B1A0758BFC3F300191F
:105B5000DDE9102354BF4FEA49194FF02B09002B00
:105B600006DA524263EB4303CDE910234FF02D09CF
:105B70000DF175030093DDE9100117AB12AA4AF08D
:105B80008BFB0646002F0CDB9DF848200DF17503BA
:105B90009B1B6FF386129F428DF8482001D9FB1A98
:105BA0001393002E3FF49CAE0DF1750756E04FF0B5
:105BB0000009DDE71098002800F0D4810DF175038D
:105BC000009312AA17AB00214AF066FBBDF84A30D9
:105BD00003F0EF0343F4F04343F010030646ADF83F
:105BE0004A304FF00009CDE7109B072A3FF678AE08
:105BF000DFE802F00C04060C08080C0C1D706FE6C0
:105C00001D806DE6EA17C3E9005269E61D6067E68C
:105C10004FF02D09CEE64FF02B09CBE640F2FF7690
:105C2000B0422AD10A43ABF141031ED11A2B35BF32
:105C3000492369234E216E2134BF462266228DF806
:105C40005C309DF848308DF85D106FF386138DF849
:105C50005E208DF848300DF15F0717AEB81BB9F123
:105C6000000F3FF431AF01302EE7192B8BBF6E23AD
:105C70004E23612141211A46E1E70026A6E60138BC
:105C800049185241002AFADACDE90C12B4E6490863
:105C900041EAC2715208B2F1333F404608F10108AF
:105CA000F5D20CFB02FEA1FB0C1200F102087244BB
:105CB000013E012018F1020FE9DB08B1CDE90C1219
:105CC000B8F1000FDDE90C212DDCC8F10400A0F1D2
:105CD000200C08F11C08C24001FA08F821FA0CFC5B
:105CE000C1400BF0DF0042EA0802472842EA0C02FA
:105CF0003AD1F01C01DBB7422BDAABF10203002FE3
:105D00005FFA83FB7DDD9DF84800830607F1FF37CE
:105D100077D43B1E18BF0123059307F101082DE03E
:105D20004FF000086EE6023241F100010CA8CDE907
:105D30000C214AF082FADDE90C2108F1FF38013626
:105D400092184941002908F1FF38F9DACDE90C2110
:105D5000B6E79DF848309806A7EB06074FD43B1EE0
:105D600018BF0123059304E00023BBF1660F0593E0
:105D7000D3D117EB06084FF0660B44D4B8F1100FDF
:105D8000A8BF4FF010089FEDB27B8DED0E7B102069
:105D90000B90DDE90E03B8F1000F37D1121841EB7B
:105DA0000301B1F1805F41D2CDE90C21079BBBF12A
:105DB000660F03F0200240F0B480002E41DC302159
:105DC0008DF85C10002A65D1002F40F3B2812E229D
:105DD0008DF85D2086B17242BA42A8BF3A469DF85E
:105DE0004A101392002AA7EB0207D4BF0022012217
:105DF00062F345118DF84A100DF15E0839E0002379
:105E0000B0E7002388E74FF00008BCE7400840EA0D
:105E1000C3705B08CDE90E030EA8CDE9082108F197
:105E2000FF384AF00AFADDE90821B2E7520842EAEF
:105E3000C1720CA84908CDE90C2101364AF0FDF9E0
:105E4000B4E70DF15C080B99002909DD0BA90CA83A
:105E500007924AF00AFA013E08F8010B079AF2D1BC
:105E600013969AB9002F40F362812E2108F8011B86
:105E70000026002F17DD0B9A002A14DD0BA90CA8B1
:105E80004AF0F3F9013F08F8010BF2E72E2208F877
:105E9000012BEDE72E228DF85D20002EACD0002FD7
:105EA00099DC0DF15E08059B002B4ED114974746F7
:105EB0000BF0DF02452A23D1002EBABF76422D23F4
:105EC0002B23632EC8BF64217B70D1BFBA1CB6FBE5
:105ED000F1F3FA1C03F13000C8BF01FB13664FF069
:105EE0000A01C8BFB87087F800B0B6FBF1F31746D7
:105EF00003F1300001FB1363303307F8020B5370DA
:105F0000139B002B2CDC149B002BD4BF00230123FC
:105F10009DF84A2063F3861200238DF84A203B70D7
:105F20009BE60BA90CA807924AF09FF9079A8DF8F7
:105F30005C00302818BF06F1FF3612B9002F40F37D
:105F4000F8802E228DF85D2056E7474608F1FF388D
:105F500017F8012C302AF8D02E2A08BF4746A7E7A9
:105F60000123D5E73C4F81467E1F0520ACE51A078B
:105F700048BF0130B0E5104609920399D047002888
:105F8000099A05DA1FB0BDE8F08F2022DDF810B0C5
:105F9000594600290BF1FF3BEDDC049BCDF810B016
:105FA0002B445D1AB9F1000F05D003994846D0473C
:105FB0000028E7DB0135089B002B7DD09DF9493097
:105FC000002B28DBB3469BF80000A0F13003092B1F
:105FD000D9460BF1010B46D99DF84A30AE1B990604
:105FE0004E4407D44246002A08F1FF3840DC079BA4
:105FF00033449E1A99F800002E280AD10399D047FD
:106000000028BFDBB8F1000F06F1010636DC09F10C
:1060100001094D463DE0B14699F800007028C84698
:1060200009F101091AD1AE1B149D46443544AB1B3E
:10603000002B39DC03993B46424650464AF072F940
:1060400000289FDB3044049E054606446AE000BFFA
:106050000000000000000008ADAD05000399D04726
:106060000028D9DA8EE70399D0470028ABDA89E710
:1060700003993020D0470028B4DA83E70399302011
:10608000D04708F1FF38BBE70399D0470028FFF657
:1060900079AF2878A0F13003092BA84605F1010556
:1060A000F2D9A6EB0906BFE703993020D0470028B4
:1060B000FFF668AF0136BAE79DF84A30DA0601D438
:1060C0001B0706D503993020D0470028FFF65AAFAA
:1060D0000135059B3BB103999DF84B00D047002843
:1060E000FFF650AF0135A84406E003993020D047B1
:1060F0000028FFF647AF0135A8EB0503002BF4DCC1
:1061000003993B46324650464AF00CF90028FFF608
:1061100039AF284497E703992020D0470028FFF69D
:1061200031AF0135731B002BF5DCFFF7D9BB1646E9
:10613000B9E60DF15D08B6E62DE9FF4715461A7C74
:1061400004697D2A0E468046D9681F4609D9B6489B
:1061500045214AF07CF96FF07905284604B0BDE886
:10616000F087931C84F8803604F281604AF053FB78
:1061700004F5CD6948461AF029FB022E32D00AD91F
:10618000F31E012B49D9A948324645214AF05FF94F
:106190006FF08505E1E70023ADF80D3095F84A3042
:1061A000C3F34002C3F380038DF8093001238DF857
:1061B0000B309F4B8DF8082093F82C378DF80C305E
:1061C00006F0010602A904F5D0608DF80A600AF015
:1061D00097F8002872D1974845214AF038F96FF0B6
:1061E0000405BAE70023ADF80C3095F84A30C3F344
:1061F0004002C3F380038DF8093001238DF80A3083
:106200008B4B8DF8082093F82C378DF80B3002A9B2
:1062100004F5D0600AF0A6F8DBE755B9864987484F
:106220004FF413724AF005F983484FF413714AF0A2
:10623000F9F80023CDF80B3095F84A30C3F340024B
:10624000C3F380038DF80930331F5E425E418DF841
:1062500008208DF80A604BF049FA01238DF80C30C4
:10626000734B8DF80B00D5E9086293F82C378DF845
:106270000D30734BB3424FF00203934104F5D06AE3
:1062800017D3704BA6FB036103FB0211AB6AF01836
:1062900041F100014FF47A720023FAF76FFF50F0DA
:1062A000D1FA0B4602A90246009150464BF03AFA49
:1062B0008FE74FF0FF306FF00041EBE75C4BD3F816
:1062C00024371BB13A460021404698474FF0FF3231
:1062D0004FF0FF3348461AF017FA94F82A2795F83A
:1062E0004A3062F3410385F84A3094F82B27DBB239
:1062F00062F3820385F84A3094F80037052B3FF6A5
:106300006EAF01A252F823F0276300002163000062
:10631000156400001B640000DF61000015640000CC
:106320006FF00F0519E7D4F80C57002D3FF415AFA7
:10633000D4F81037D4F81427134304F5E2670DD1CD
:10634000414857214AF083F86FF02205D4F80C0732
:106350004BF014FA0023C4F80C37FEE62D782068C1
:1063600000220023CDE9002300231A46294603F02A
:106370009DFF064630B9354845214AF068F86FF070
:106380000B05E3E7D4F80C172A4601314AF017FD54
:10639000002809DA2E4845214AF059F86FF00B051C
:1063A00030464AF056FCD1E794F8183786F8483062
:1063B00094F91937AE339BB2FE2B28BFFE2386F823
:1063C0004930D4F810077A684FF47A73A0FB0301C0
:1063D00003FB0211002907DA1E491848DA224AF0A5
:1063E00028F81C48DA2122E70DA3D3E90023FAF7A5
:1063F000C5FEC6E90801B26230464AF063FC206877
:10640000314608F0EDFD18B1134849214AF01FF854
:106410000025C5E76FF022059FE66FF068059CE652
:1064200000CA9A3B00000000FABF05004DC00500FD
:10643000801400206BC0050015C005000FAC0500DE
:10644000037DC12500CA9A3B82C005009EC005009D
:10645000BDC00500DFC0050010C105000000000040
:106460002DE9F0472DED028B46A7D7E900679FED98
:10647000408BDFF818A182B080464FF0FF334FF019
:10648000FF3208F595601AF0ABF84368044643B94B
:1064900039493A489A2249F0CCFF9A21364849F0C6
:1064A000C1FF93F80090B9F1800F06D93249334803
:1064B000A72249F0BEFFA721F0E700231A4649466C
:1064C0008DED008BD8F8000003F0F0FE61684A46BD
:1064D000013105464AF073FC8146002836D1237C01
:1064E00085F8483094F91130AE339BB2FE2B28BFAB
:1064F000FE2385F84930A27C95F84A3062F3000308
:1065000085F84A30A3684FF47A72A3FB0201E3686E
:1065100002FB0311002907DA19491848DA2249F069
:1065200088FF1748DA21BAE732463B46FAF726FEDB
:10653000C5E90801AA62D8F80000294603F0DCFB8F
:1065400000280CDA4521504649F081FF002360689D
:1065500063604BF013F928464AF07BFB8DE76068D7
:10656000C4F804904BF00AF987E700BFAFF300804E
:10657000FFFFFFFFFFFFFFFF15C005000FAC050089
:10658000DFC0050000CA9A3B0000000064C105009E
:106590002DE9F04F364ED6F804339A0787B00BD565
:1065A000D6F8043143B1334A0023C6F80431D6F893
:1065B00004311368013313602F4DDFF8C4A00024A9
:1065C000A9464FF48038D6F8042308FA04F7174296
:1065D00028D0BFF35B8F0122A240284BD24353E85F
:1065E000001F01EA020043E8000CBCF1000FF6D1E5
:1065F000BFF35B8F21FA04F2D30702D45AF82420A8
:1066000082B120464AF013FF07F018FCEFF3108B1D
:1066100072B609EB041CDCE902239042994109D2CD
:106620008BF310880134042C05F11005CBD107B091
:10663000BDE8F08FCDE904239FED0B7BD5E9001376
:106640000020286003938CED027B2046C6F8487337
:106650004AF0EDFE8BF310880029E3D0039B0093F2
:10666000DDE904238847DDE7FFFFFFFFFFFFFFFFB2
:106670000010014088460020C01E00207C460020FB
:1066800040110140000000002DE9F041137886B070
:106690000E46023B511C9BB24FF00008039105913E
:1066A000044600210020CDE90088CDF80880ADF82F
:1066B0001030ADF8123003F095FD0546002840D0AB
:1066C0003F4F022CC7F800802ED0032C54D0012C51
:1066D00035D1DFF8F8803B4B3B4E03225A70D8F897
:1066E000003030685B689847D8F8003010F0100F21
:1066F000D3F8188030686B462A460CBF2146022129
:10670000C047044628464AF0A4FA2E4B022214F150
:10671000230F5A703CD0002C47D1386835F034FD37
:10672000012008F023F93EE0DFF8A080264CD8F8DD
:10673000003020685B689847C30506D428464AF0B5
:1067400088FA002006B0BDE8F0814FF47A70A6FB0D
:10675000000119A3D3E90023FAF760FD194BAA62DF
:10676000C5E9080103215970D8F8003020689E69F6
:106770002A466B46B047C4E7124B5C70134B024687
:106780001B6811489C6900686B464146A047B8E702
:10679000042035F025FD002008F0E8F840F2F22052
:1067A00000211BF00FFB0120CCE7012035F018FD84
:1067B0000020B6E7AFF3008000CA9A3B000000005B
:1067C000144700205F070020EC460020E846002028
:1067D00001460022014808F06DB800BF07FD040023
:1067E0002DE9F0470121054651F0B6FD90F80090E3
:1067F000284651F079FC01218246002051F0FDFB32
:10680000064638B92548452149F021FE4FF6EA7081
:10681000BDE8F087012151F0B9FC052180463046E2
:1068200051F09AFD0446284651F068FC01281C4F9F
:1068300030D19AF80050012D13D0022D19D04DBB44
:106840004AF05AFE25706570A570E5703D703B7882
:1068500084F80490304688F800304FF06AF9FF2041
:10686000D6E74AF035FE002323706370A370E3700F
:10687000ECE73B7883F00102012B3A7007D04AF035
:1068800027FE002323706370A370E370DFE74AF0F4
:1068900033FEF6E74FF0FF33F4E700BFC8AB050067
:1068A000C2AF00200146034883685B6C0BB1012234
:1068B0001847704758A4050010B5134C20464FF0F8
:1068C00013FEF0B16368A1681B6822691B030AD438
:1068D0000E490F4840F2E93249F0ABFD0B4840F257
:1068E000E93149F09FFD136843F4002313600B68FE
:1068F000084A132120469847003818BF012040421B
:1069000010BD4FF0FF30FBE71CA40500DEAB050017
:106910000FAC05001100060037B52B48492149F09E
:1069200096FD002001F0C0F9044648B110F1780F3F
:1069300006D02648452149F08AFD204603B030BDE7
:106940000023019322484FF0CFFD30B3204CA568BF
:10695000AB6C4BBB1F48452149F079FD0820FFF780
:10696000A1FF1020FFF79EFF00214FF400401BF015
:1069700029FA39F07FFD08F01BFC174818F0A0FC3D
:10698000C6220121154807F011FF08F021F814482C
:10699000492149F05CFD0024CFE71248452149F028
:1069A00056FD6FF01204C8E701AA0421204698475B
:1069B0000028CFD1019B002BD0D1002140F6CD4043
:1069C0001BF000FAC4E700BF27AC050058AC050077
:1069D00058A4050092AC0500E1670000D1670000F3
:1069E000D0AC050077AC0500014B1B68184700BF11
:1069F00028050020014B1860704700BF28050020C3
:106A000007B50B460021024600910348FEF728FD1A
:106A100003B05DF804FB00BFE969000030B587B042
:106A20000025CDE903010446009503A90548059515
:106A3000FEF716FDDDE904309842B8BF255407B0D3
:106A400030BD00BF23FD040070B589B30668304631
:106A500049F0D6F9012201460446304649F098F93A
:106A6000C30708D413491448AF2249F0E2FCAF2110
:106A7000104849F0D7FC2146304649F09FF92518C7
:106A800029460022304649F083F92D1AAC4206D03F
:106A900008490948B72249F0CCFCB721E8E721466C
:106AA000304649F091F92146BDE8704049F0CDBA31
:106AB00070BD00BF15AD05000FAC05002DE9F84312
:106AC00006681446B2680F464B1EB2F5004F34BF3D
:106AD000042108213B4010D0C7F1000909EA070949
