:020000040000FA
:1000000008760120F9330000F75C0400E5330000B6
:10001000E5330000E5330000E5330000E533000080
:10002000000000000000000000000000DD350000BE
:10003000E53300000000000049350000E533000012
:10004000653800006538000065380000653800003C
:10005000653800006538000065380000653800002C
:10006000653800006538000065380000653800001C
:10007000653800006538000065380000653800000C
:1000800065380000653800006538000065380000FC
:1000900065380000653800006538000065380000EC
:1000A00065380000653800006538000065380000DC
:1000B00065380000653800006538000065380000CC
:1000C00065380000653800006538000065380000BC
:1000D00065380000653800006538000065380000AC
:1000E000653800006538000065380000653800009C
:1000F000653800006538000065380000653800008C
:10010000653800006538000065380000653800007B
:10011000653800006538000065380000653800006B
:10012000653800006538000065380000653800005B
:10013000653800006538000065380000653800004B
:10014000653800006538000065380000653800003B
:1001500065380000FFFFFFFF7BB972B90029BEBF01
:1001600000204FF0004106E008BF00281CBF6FF0E0
:1001700000414FF0FF3000F057B8ADF1080C6DE9C9
:1001800004CE002909DB002B1ADB00F091FADDF820
:1001900004E0DDE9022304B07047404261EB410115
:1001A000002B1BDB00F084FADDF804E0DDE902231C
:1001B00004B0404261EB4101524263EB430370479C
:1001C000524263EB430300F073FADDF804E0DDE92B
:1001D000022304B0404261EB41017047524263EB9D
:1001E000430300F065FADDF804E0DDE9022304B022
:1001F000524263EB4303704753B94AB9002908BF21
:1002000000281CBF4FF0FF314FF0FF3000F00CB85A
:10021000ADF1080C6DE904CE00F04AFADDF804E017
:10022000DDE9022304B07047704700BF80EA101474
:1002300004F0F01480EA0410604081EA111404F024
:10024000F01481EA0411614082EA121404F0F014FF
:1002500082EA0412624083EA131404F0F01483EA81
:100260000413634080EA102404F47F4480EA0420ED
:10027000604081EA112404F47F4481EA0421614052
:1002800082EA122404F47F4482EA0422624083EA70
:10029000132404F47F4483EA0423634081EA500476
:1002A00004F0553480EA4400614083EA520404F0CB
:1002B000553482EA4402634082EA900404F0333405
:1002C00080EA8400624083EA910404F0333481EAD6
:1002D00084016340704700BF82EA900404F0333425
:1002E00080EA8400624083EA910404F0333481EAB6
:1002F0008401634081EA500404F0553480EA4400EC
:10030000614083EA520404F0553482EA44026340B7
:1003100080EA102404F47F4480EA0420604081EAEB
:10032000112404F47F4481EA0421614082EA12240A
:1003300004F47F4482EA0422624083EA132404F432
:100340007F4483EA0423634080EA101404F0F0142D
:1003500080EA0410604081EA111404F0F01481EA8C
:100360000411614082EA121404F0F01482EA0412CB
:10037000624083EA131404F0F01483EA0413634028
:10038000704700BF2DE9F14F94464FEA930B8A68FE
:10039000CB6808684968FFF749FF0BF1060E33E0A8
:1003A00083EA134480EA134582EA134746BA96EA81
:1003B0003444604000F00F1684EA063420F00F1633
:1003C00084EA161054BA94EA0106724002F00F143F
:1003D00086EA043622F00F1486EA14124CBA6540FD
:1003E000694001F00F1485EA043521F00F1485EA05
:1003F00014115CBA67407B4003F00F1487EA04379E
:1004000023F00F1487EA1413BCE8F0006040694041
:1004100072407B4000F0E03400F0103500F00F3007
:1004200040EA540040EAC50080EA900404F0332416
:1004300080EA8400604001F0E03401F0103501F002
:100440000F3141EA540141EAC50181EA910404F007
:10045000332481EA8401614002F0E03402F0103577
:1004600002F00F3242EA540242EAC50282EA9204E2
:1004700004F0332482EA8402624003F0E03403F0A3
:10048000103503F00F3343EA540343EAC50383EA0C
:10049000930404F0332483EA8403634081EA3247FF
:1004A00087EA134581EA354690EA060484EA034B5D
:1004B00082EA1B4280EA044484EA054483EA144A3F
:1004C00085EA14448BEA044B84EA374481EA0B4101
:1004D00081EA164104EA0A00454082EA04082BEA50
:1004E000080041408AEA0B0602EA060084EA344327
:1004F0008AEA3A4603EA060778404540414088EADE
:1005000038478BEA3B4007EA000985EA090583EA98
:100510000709464006EA0906714085EA010005EA36
:100520003546464006EA314181EA304181EA3646A5
:1005300006EA304686EA3546344008EA010886EA8B
:1005400001052A4086EA364003405A4081EA314399
:100550001F407C4080EA030709EA070988EA090886
:10056000544088EA020806EA0A0601EA0B018AEA10
:100570000B0215408AEA3A42104045408BEA3B4064
:1005800003405E404240174079404D404E40E443B6
:10059000F64386EA18435D4085EA054083EA134343
:1005A00086EA034183EA384284EA114383EA04433A
:1005B0005FEA3343BEF1010E3FF6F2AE1ED4BCE853
:1005C000F0006040694072407B4020BCFFF784FE31
:1005D00028606960AA60EB60BDE8F08F2DE9E0411A
:1005E0004FF2F00280EA1031114080EA01304840B9
:1005F00041088208C3084FF0000E4FE700F01130A9
:1006000001F0113102F0113203F0113340EA4100E0
:1006100040EA820040EAC3004FF2F00280EA103163
:10062000114080EA01304840BDE8E0812DE9F04FFB
:1006300002F11C050646074600EB850851F8040B3D
:10064000043A46F8040BF9D14FF0010CFFF7C6FF4E
:100650005FEA302080EA0C001ECF41404A40534000
:100660005C401EC62000464517D04FEA4C0C1CF4D7
:10067000807F18BFACF1E50C2C2DE7D03C2D06D1C6
:10068000FFF7ACFF06CF41404A4006C6100006CF38
:1006900041404A4006C61000D8E736E90F00FFF790
:1006A000C5FD043D86E80F00F7D1BDE8F08F00BF1F
:1006B0002DE9F04786468C460846089E1546744646
:1006C0001946002B40F0C1808542B2FA82F245D92A
:1006D0004AB1C2F1200300FA02FC954094402EFA80
:1006E00003F343EA0C0C4FEA154EA8B2230CBCFBF3
:1006F000FEF80EFB18CC08FB00F943EA0C439945C1
:1007000028D9EB1808F1FF3704D2994502D9A8F18E
:1007100002072B44A3EB0903A4B2B3FBFEFC0EFBC0
:100720001C330CFB00F044EA0344A04214D92C19FA
:100730000CF1FF3304D2A04202D9ACF102032C44E5
:10074000241A43EA07401EB1D4400023346073608A
:10075000BDE8F0874746DDE76346F1E792BB431B00
:1007600001214FEA154EAFB2200CB3FBFEFC0EFB8D
:100770001C330CFB07F840EA0343984561D9EB189A
:100780000CF1FF3004D2984502D9ACF102002B44A1
:10079000A3EB0803A4B2B3FBFEFC0EFB1C330CFB63
:1007A00007F744EA0344A7424DD92C190CF1FF3353
:1007B00004D2A74202D9ACF102032C44E41B43EA61
:1007C0000040C0E7C2F120039540944020FA03F1B5
:1007D0002EFA03F34FEA154E9040AFB20343B1FB3C
:1007E000FEFC0EFB1C10190C0CFB07F841EA004143
:1007F000884522D969180CF1FF3004D2884502D906
:10080000ACF102002944A1EB08019BB2B1FBFEFC54
:100810000EFB1C110CFB07F743EA01439F420ED964
:10082000EB180CF1FF3104D29F4202D9ACF1020166
:100830002B44DB1B41EA004193E76046E3E7614656
:10084000F7E76046A4E76346B8E7834206D916B9DE
:10085000002108467CE7C6E900E0F9E7B3FA83F730
:100860008FB9834201D3724508D8BEEB020460EB16
:10087000030301209C461EB9002169E73846FAE7C8
:10088000C6E9004CF8E7C7F1200CBB400EFA07F5AB
:1008900022FA0CF42EFA0CF1BA401C4320FA0CF3A5
:1008A000B8404FEA144901431FFA84FEB3FBF9F83C
:1008B00009FB18300B0C08FB0EFA43EA00439A457B
:1008C00040D9E31808F1FF3004D29A4502D9A8F1C3
:1008D00002002344A3EB0A0389B2B3FBF9F809FB36
:1008E000183308FB0EFE41EA03418E452CD96118EE
:1008F00008F1FF3304D28E4502D9A8F10203214446
:1009000043EA0040A1EB0E01A0FB02984145CE4610
:10091000434602D306D14D4504D20138B9EB020E4D
:1009200068EB0403002EA7D0B5EB0E0261EB0301C8
:1009300001FA0CFC22FA07F3F9404CEA0303C6E97A
:10094000003199E74046C5E74346D9E7000000007B
:100950002DE9F04F824616461C4600259FB00391B4
:10096000307810B9284600F083BD731C2528069303
:1009700006D00399D0470028C0F27A85013527E2D6
:100980001822002110A845F053FA7378252B7DD04A
:10099000002398469E469C461F46701C014610F850
:1009A000012B2B2A00F0A18000F29880202A00F071
:1009B0009F80232A00F09F802BB19DF8483043F0A0
:1009C00040038DF84830B8F1000F05D09DF848304D
:1009D00043F020038DF84830BEF1000F05D09DF89C
:1009E000483043F010038DF84830BCF1000F05D0BB
:1009F0009DF8483043F008038DF848302FB19DF83A
:100A0000483043F004038DF848309DF8483003F037
:100A10004400442803D16FF386138DF848309DF8C5
:100A200048302A2A43F080038DF848307FD19DF862
:100A300049204B1C42F001028DF849201A782E2AD9
:100A40000CBF012100219DF8492061F341028DF87E
:100A5000492078D15A782A2A6ED000224FF00A0C09
:100A60000133194611F8010BA0F13007092F40F2AC
:100A7000AD809DF848101492C1F3400040EAD27056
:100A80000A4660F341028DF848205CE0B21C0692F1
:100A90008DF84B309DF84930D90740F1508154F81A
:100AA000042B002A049208DA9DF8482042F0040240
:100AB0008DF84820049A524204925A0740F1478127
:100AC00054F8047B002F80F246819DF849306FF383
:100AD00041038DF849304FF0FF373CE12D2A0DD00E
:100AE000302A7FF469AF012358E74FF0010C55E736
:100AF0004FF0010E52E74FF001084FE701274DE795
:100B000003460EFB0272303A184610F8017BA7F13B
:100B1000300CBCF1090FF3D999428FD09DF84810E1
:100B20001392D20F62F341018DF8481086E70B460D
:100B300000224FF00A0EE7E79DF84920023342F009
:100B400004028DF849201A786C2A5FD043D8682AAD
:100B500049D06A2A63D04C2A69D013F8012B782A2D
:100B600006938DF84B2000F2A9806D2A6CD8692A73
:100B700000F2A480572A00F28480412A04D0A2F116
:100B80004503022B00F29A8004219DF84A3002F0BE
:100B9000DF02A2F1410761F302037A429DF8491096
:100BA0007A4162F3C7110A068DF84A308DF8491070
:100BB000CBB200F1C28003F07802182A40F0AC807A
:100BC0006FF3C6038DF8493000239BE00CFB020253
:100BD0000B46303A45E7742A25D07A2ABDD1062142
:100BE0009DF849200CE05A78682A9DF8492006D1E2
:100BF000012161F3C6028DF849200233ADE70221DD
:100C000061F3C6028DF849200133A6E75A786C2AB1
:100C10009DF8492001D10421EBE70321F0E70521EC
:100C20009DF84920ECE707219DF84920E8E7BDF849
:100C3000482022F4F04222F0020242F4804242F0C4
:100C40000202ADF84820DFE76E3AD3B201229A40A3
:100C500040F282431A429DF8493036D112F0240FF7
:100C60005ED1D1072AD503219DF84A2003F07803ED
:100C7000A3F1400061F3020243428DF84A20434150
:100C800040E00120A2F15801C9B200FA01F111F4CB
:100C9000624F7FF479AF40F6010319429DF8493065
:100CA00019D111F4043F09D09DF84A2060F30202E3
:100CB00003F07803402B8DF84A2085D19DF8483009
:100CC00043F001038DF848307EE702219DF84A2069
:100CD00061F30202ECE702209DF84A1003F078036A
:100CE00060F30201402B8DF84A1002BF9DF84810B6
:100CF00041F001018DF84810632A7FF465AF003B95
:100D000018BF01239DF84820C2F340010B4363F351
:100D100041028DF84820BDE613F0380FCED153E7DD
:100D200003219DF84A2013F0780F61F3020214BFEB
:100D3000012300238DF84A20E4E70123E2E79DF92F
:100D40004820002AACBF4FF0FF32139AB4E69F0749
:100D50007FF5C1AE149F0023CDE913339DF84A30CF
:100D600003F00702042A9DF8492007D1900705D413
:100D70009DF949100029ACBF06270D2703F0070392
:100D8000012BC2F3C30233D1D31E042B04D8DFE8F6
:100D900003F02146462121002368012A4FEAE3712E
:100DA000CDE910311CD19DF94030D917CDE9103172
:100DB00004349DF848309907079350D03246504686
:100DC000069B039944F0C3FC0028C0F251830544FC
:100DD000069EC5E554F8043BD917CDE91031E8E784
:100DE000022AE5D119B243F3C033CDE91013DFE78E
:100DF000022B24D1D31E042B04D8DFE803F01810F3
:100E000010181800012A4FF0000154F8043B14D0C8
:100E1000022ACDE91031CCD19BB21093C9E7073437
:100E200024F00704F4E80201CDE91001C1E754F809
:100E3000043B109300231193BBE7DBB2CDE7042BF7
:100E400008D1073424F00704D4E900010834CDE9BF
:100E50001001AEE7032BACD154F8043BDDE79DF85D
:100E60004BB0BBF1780FB3D8BBF1570F49D8BBF1EA
:100E7000250F00F09180BBF1240FA9D9BBF1410FE0
:100E800003D0ABF14502022AA2D8DDE91012002AF4
:100E9000C0F23681079B1E0700F13581C3F30019AC
:100EA0004FEA4919C2F30A50C2F31302002840F076
:100EB0002D8151EA020614BF01260026D20242EA21
:100EC0005152C902BBF1460F40EA010E42EAE07CF2
:100ED00008BF4FF0660B5EEA0C0CCDE90C1200F077
:100EE0009681002E40F044810D9AA0F2FE3842F027
:100EF00000420D920020DDE90C1206464FF0050C71
:100F000050E1ABF1580120293FF662AF01A050F843
:100F100021F000BF9F100000D10D0000D10D000096
:100F2000D10D0000D10D0000D10D0000D10D000049
:100F3000D10D0000D10D00008B0E0000D10D00007E
:100F400023100000371000008B0E00008B0E0000F5
:100F50008B0E0000D10D000037100000D10D0000F5
:100F6000D10D0000D10D0000D10D0000D9100000FE
:100F70009F100000A5100000D10D0000D10D000051
:100F80009F0F0000D10D00009F100000D10D000048
:100F9000D10D00009F10000058460399EAE4002F8D
:100FA000109E3ADB3946304644F04EFF3718002E8B
:100FB0003FF40EAF4FF000099DF84A3013F01002D5
:100FC000059200F04A82023013F04003DDF84C80B5
:100FD000089318BF149B404418BFC018049BCDF859
:100FE0001C80002B40F354829DF848201B1A049368
:100FF0005307C2F3800B00F14B82500640F13B8255
:10100000B9F1000F07D048460399D0470028C0F235
:101010002F82D946013530222EE2304644F0B0FE10
:10102000C4E7109B4FF0000901208DF85C300DF1F2
:101030005D0717AEC0E7079B1A0754BFC3F300193B
:101040004FF02B09DDE9102358BF4FEA4919002B57
:1010500006DA4FF02D09524263EB4303CDE910232A
:10106000DDE910010DF17503009312AA17AB44F0EE
:1010700028FB0646002F0CDB9DF848200DF1750378
:101080009B1B6FF386129F428DF8482001D9FB1AF3
:101090001393002E3FF49CAE0DF1750756E04FF010
:1010A0000009DDE71098002800F0D2810DF17503EA
:1010B0000093002117AB12AA44F003FBBDF84A309D
:1010C000064603F0EF0343F4F04343F010034FF000
:1010D0000009ADF84A30CDE7109B072A3FF678AEFD
:1010E000DFE802F00C04060C08080C0C1D706FE61B
:1010F0001D806DE6EA17C3E9005269E61D6067E6E8
:101100004FF02D09CEE64FF02B09CBE640F2FF76EB
:10111000B0422AD10A43ABF141031ED11A2B35BF8D
:10112000492369234E216E2134BF462266228DF861
:101130005C309DF848308DF85D106FF386138DF8A4
:101140005E208DF848300DF15F0717AEB81BB9F17E
:10115000000F3FF431AF01302EE7192B8BBF6E2308
:101160004E23612141211A46E1E70026A6E6013817
:1011700049185241002AFADACDE90C12B4E64908BE
:1011800041EAC2715208B2F1333F404608F101080A
:10119000F5D200F1020801200CFB02FEA1FB0C12AB
:1011A000013E724418F1020FE9DB08B1CDE90C12DF
:1011B000DDE90C21B8F1000F2CDCC8F10400A0F12E
:1011C000200C08F11C08C24001FA08F821FA0CFCB6
:1011D000C1400BF0DF0042EA0802472842EA0C0255
:1011E00038D1F01C01DBB7422ADAABF10203002F41
:1011F0005FFA83FB7BDD9DF84800013F830676D4D0
:101200003B1E18BF0123059307F101082CE04FF0A6
:1012100000086FE6023241F100010CA808F1FF3826
:101220000136CDE90C2144F01DFADDE90C219218BC
:101230004941002908F1FF38F9DACDE90C21B7E777
:101240009DF84830BF1B98064FD43B1E18BF0123A2
:10125000059304E00023BBF1660F0593D4D117EB8F
:1012600006084FF0660B44D4B8F1100FA8BF4FF03A
:1012700010089FEDB37B10208DED0E7B0B90DDE908
:101280000E03B8F1000F37D1121841EB0301B1F191
:10129000805F41D2CDE90C21079BBBF1660F03F0C3
:1012A000200240F0B480002E41DC30218DF85C102B
:1012B000002A65D1002F40F3B4812E228DF85D20E5
:1012C00086B17242BA42A8BF3A46002A1392A7EBEF
:1012D0000207D4BF002201229DF84A1062F3451193
:1012E0008DF84A100DF15E0839E00023B0E70023C5
:1012F00089E74FF00008BCE7400840EAC3705B088C
:10130000CDE90E030EA8CDE9082108F1FF3844F01D
:10131000A9F9DDE90821B2E7520842EAC1720CA836
:101320004908CDE90C21013644F09CF9B4E70DF1F0
:101330005C080B99002909DD0BA90CA8079244F061
:10134000A9F9013E079A08F8010BF2D113969AB950
:10135000002F40F364812E2108F8011B0026002F86
:1013600017DD0B9A002A14DD0BA90CA844F092F9A2
:10137000013F08F8010BF2E72E2208F8012BEDE7F8
:101380002E228DF85D20002EACD0002F99DC0DF1BF
:101390005E08059B002B4ED1149747460BF0DF02E9
:1013A000452A23D1002EBABF76422D232B23632E4C
:1013B000C8BF64217B70C4BFB6FBF1F301FB1366A9
:1013C0004FF00A01C8BF03F13000B6FBF1F3D2BF02
:1013D000BA1CFA1CB87087F800B0174603F1300049
:1013E00001FB1363303307F8020B5370139B002B80
:1013F0002CDC149B002BD4BF002301239DF84A2032
:1014000063F3861200238DF84A203B709DE60BA9FA
:101410000CA8079244F03EF9079A30288DF85C003A
:1014200018BF06F1FF3612B9002F40F3FA802E22C2
:101430008DF85D2056E7474617F8012C08F1FF3874
:10144000302AF8D02E2A08BF4746A7E70123D5E760
:101450003D4F81467E1F0520AEE51A0748BF01308B
:10146000B2E5104609920399D0470028099A05DA97
:101470001FB0BDE8F08F2022DDF810B059460029DA
:101480000BF1FF3BEDDC049BCDF810B02B445D1A53
:10149000B9F1000F05D048460399D0470028E7DB93
:1014A0000135089B002B7FD09DF94930002B28DBAC
:1014B000B3469BF80000D946A0F13003092B0BF18D
:1014C000010B48D99DF84A30AE1B99064E4407D40B
:1014D0004246002A08F1FF3842DC079B33449E1A3B
:1014E00099F800002E280AD10399D0470028BFDBC5
:1014F000B8F1000F06F1010638DC09F101094D468B
:101500003FE0B14699F80000C846702809F101098A
:101510001CD1AE1B149D46443544AB1B002B3BDC59
:101520003B4642465046039944F011F900289FDBA0
:101530003044049E054606446CE000BFAFF30080D3
:101540000000000000000008AE0305000399D0472A
:101550000028D7DA8CE70399D0470028A9DA87E773
:1015600030200399D0470028B2DA81E73020039970
:10157000D04708F1FF38B9E70399D0470028FFF6B4
:1015800077AF2878A846A0F13003092B05F10105B3
:10159000F2D9A6EB0906BDE730200399D047002811
:1015A000FFF666AF0136B8E79DF84A30DA0601D497
:1015B0001B0706D530200399D0470028FFF658AF07
:1015C0000135059B3BB103999DF84B00D04700289E
:1015D000FFF64EAF0135A84406E030200399D0470E
:1015E0000028FFF645AF0135A8EB0503002BF4DC1E
:1015F0003B4632465046039944F0A9F80028FFF6CE
:1016000037AF284495E720200399D0470028FFF6FC
:101610002FAF0135731B002BF5DCFFF7D9BB164646
:10162000B7E60DF15D08B4E62DE9FF4715461A7CD3
:101630000E467D2A80461F460469D96809D945218E
:10164000B54844F003FB6FF07905284604B0BDE8C7
:10165000F087931C84F8D03504F2D15044F0DDFBC0
:1016600004F5B769484615F0CBF8022E32D00AD9F6
:10167000F31E012B49D932464521A84844F0E6FA29
:101680006FF08505E1E70023ADF80D3095F84A309D
:1016900006F00106C3F34002C3F380038DF809305E
:1016A00001238DF80B309E4B02A993F87C3604F58C
:1016B000BA608DF808208DF80A608DF80C3007F0BC
:1016C0005FFC002872D14521964844F0BFFA6FF0C4
:1016D0000405BAE70023ADF80C3095F84A3002A9AA
:1016E000C3F34002C3F380038DF8093001238DF862
:1016F0000A308B4B04F5BA6093F87C368DF80820DD
:101700008DF80B3007F0EEFBDBE755B986498748CB
:101710004FF4137244F09CF84FF41371824844F074
:1017200090F80023CDF80B3095F84A3004F5BA6AEA
:10173000C3F34002C3F380038DF80930331F5E42C8
:101740005E418DF808208DF80A6007F061FBD5E94D
:10175000086201238DF80C30714B8DF80B0093F863
:101760007C368DF80D30724BB3424FF0020393413B
:1017700017D3704BA6FB036103FB0211AB6AF01891
:1017800041F100014FF47A720023FEF7E5FC4AF0C4
:1017900092FC0B4602A902460091504607F040FC1D
:1017A0008FE74FF0FF306FF00041EBE75C4BD3F871
:1017B00074361BB13A460021404698474FF0FF323D
:1017C0004FF0FF33484614F0B9FF94F87A2695F8A5
:1017D0004A3062F3410385F84A3094F87B26DBB245
:1017E00062F3820385F84A3094F85036052B3FF6B1
:1017F0006EAF01A252F823F0171800001118000074
:10180000051900000B190000CF1600000519000093
:101810006FF00F0519E7D4F85C56002D3FF415AFB3
:10182000D4F86036D4F8642604F5CC6713430DD1A0
:101830005721414844F00AFA6FF02205D4F85C06BB
:1018400007F042FC0023C4F85C36FEE600220023C9
:101850002D782068CDE90023002329461A4603F09D
:101860000DF8064630B94521344844F0EFF96FF0E1
:101870000B05E3E7D4F85C162A46013144F09AFDE3
:10188000002809DA45212E4844F0E0F96FF00B05F5
:10189000304644F0E0FCD1E794F8683686F84830EA
:1018A00094F96936AE339BB2FE2B28BFFE2386F82F
:1018B00049304FF47A73D4F860067A68A0FB0301CC
:1018C00003FB0211002907DA1E491848DA2243F007
:1018D000BFFFDA211B4822E70DA3D3E90023FEF75F
:1018E0003BFCC6E90801B262304644F0E6FC3146F2
:1018F000206805F0A7FE18B14921134844F0A6F965
:101900000025C5E76FF022059FE66FF068059CE6AD
:1019100000CA9A3B000000000E110500611105008D
:10192000580B00207F110500291105001F03050039
:10193000037DC12500CA9A3B96110500B21105002E
:10194000D1110500F311050024120500000000006C
:101950002DE9F04747A7D7E900672DED028B8046B8
:101960009FED3F8BDFF814A182B04FF0FF334FF0B3
:10197000FF3208F57E7014F04DFE4368044643B90B
:1019800039499A22394843F063FF9A21364843F097
:1019900058FF93F80090B9F1800F06D93249A72279
:1019A000324843F055FFA721F0E7002349461A4685
:1019B0008DED008BD8F8000002F060FF61684A46A8
:1019C0000131054644F0F6FC8146002836D1237CDF
:1019D00085F8483094F91130AE339BB2FE2B28BF06
:1019E000FE2385F84930A27C95F84A3062F3000363
:1019F0004FF47A7285F84A30A368A3FB0201E368CA
:101A000002FB0311002907DA19491848DA2243F0CA
:101A10001FFFDA211648BAE732463B46FEF79CFB29
:101A2000C5E90801AA622946D8F8000002F058FC6E
:101A300000280CDA4521504644F008F9002360687C
:101A4000636007F041FB284644F005FC8DE76068C1
:101A5000C4F8049007F038FB87E700BFAFF30080BD
:101A6000FFFFFFFFFFFFFFFF291105001F03050018
:101A7000F311050000CA9A3B00000000781205002F
:101A80002DE9F0414FF00008137886B00E46023B76
:101A9000511C9BB203910591044600210020CDE921
:101AA0000088CDF80880ADF81030ADF8123002F0A3
:101AB00081FE0546002840D03F4F022CC7F8008029
:101AC0002ED0032C54D0012C35D10322DFF8F48022
:101AD0003A4B3B4E5A70D8F8003030685B689847F4
:101AE000D8F8003010F0100FD3F818802A466B4653
:101AF0000CBF214602213068C0470446284644F006
:101B0000AAFB02222D4B14F1230F5A703CD0002C5B
:101B100047D138682FF02AFC012005F05DFA3EE03D
:101B2000DFF8A080264CD8F8003020685B68984722
:101B3000C30506D4284644F08EFB002006B0BDE85D
:101B4000F0814FF47A701AA3D3E90023A6FB0001B9
:101B5000FEF752FBC5E908010321184BAA62597030
:101B6000D8F800302A469E6920686B46B047C4E723
:101B7000124B02465C70134B11481B6841469C692E
:101B800000686B46A047B8E704202FF01BFC00203C
:101B900005F022FA40F2F220002116F049F9012066
:101BA000CCE701202FF00EFC0020B6E7AFF3008059
:101BB00000CA9A3B0000000028260020FF020020F7
:101BC00000260020FC25002001460022014805F0E7
:101BD000A7B900BF635104002DE9F0470121054674
:101BE0004BF019FE90F8009028464BF0DCFC0121E8
:101BF000824600204BF060FC064638B92548452156
:101C000044F024F84FF6EA70BDE8F08701214BF06C
:101C10001CFD0521804630464BF0FDFD044628465C
:101C20004BF0CBFC01281C4F30D19AF80050012D0D
:101C300013D0022D19D04DBB44F056FF25706570AE
:101C4000A570E5703D703B7884F80490304688F8C4
:101C5000003049F0ABFBFF20D6E744F031FF002312
:101C600023706370A370E370ECE73B7883F00102AC
:101C7000012B3A7007D044F023FF002323706370D8
:101C8000A370E370DFE744F02FFFF6E74FF0FF3378
:101C9000F4E700BF760205001EB7002008B5492111
:101CA0000B4843F0D3FF33F0D7FC05F043FD094860
:101CB00013F028FBC6220121074805F0ABF805F018
:101CC000B9F94921054843F0C1FF002008BD00BF14
:101CD0008C020500D91B0000C91B0000BD020500D5
:101CE000014B1B68184700BF28000020014B1860FB
:101CF000704700BF2800002007B50B4600210246B0
:101D000000910348FEF724FE03B05DF804FB00BF1A
:101D1000E11C000030B5002587B0CDE90301044681
:101D2000009503A905480595FEF712FEDDE904308C
:101D30009842B8BF255407B030BD00BF835104009E
:101D400070B589B306680122304643F089FA01462E
:101D50000446304643F04CFAC30708D41349AF2277
:101D6000134843F075FDAF21104843F06AFD21464A
:101D7000304643F053FA251829460022304643F0F6
:101D800037FA2D1AAC4206D00849B722084843F06A
:101D90005FFDB721E8E72146304643F045FA21468A
:101DA000BDE8704043F081BB70BD00BFFE0205007E
:101DB0001F0305002DE9F8430F4606681446B26874
:101DC0004B1EB2F5004F34BF042108213B4010D018
:101DD000C7F1000909EA0709494503F1FF3028BFA7
:101DE000494618420CD11F46BCB900252846BDE81B
:101DF000F8838F420FD82146BDE8F84343F097BBE4
:101E00002C492D484FF4A27243F022FD4FF4A271E9
:101E1000284843F016FD9946E6E7B2EBD40FE4D923
:101E2000E319591A104643F025FA0146304643F0AB
:101E30007BFA80460028D8D0B36809EBC005B3F51B
:101E4000004F34BF042308231D4435447B1E1D442A
:101E5000B5FBF7F57D43A5EB09052946304643F070
:101E6000FFF92C44073424F00704A41B80450746DF
:101E70004FEAE40408D202464146304643F08EFA67
:101E80004146304643F0CFFA3946304643F0C6F972
:101E90003844844208D239463046224643F07EFA1E
:101EA0002146304643F0BFFA01223946304643F01E
:101EB000BBF99BE7FE0205001F030500B2F5802F6A
:101EC000F8B50CD2042A20D83B494FF4F9723B48AC
:101ED00043F0BEFC4FF4F971374843F0B2FC0823DD
:101EE000D21ACC1D114424F0070421F00701091B6C
:101EF00017294FEAD1060AD82F4940F2FB122F4882
:101F000043F0A6FC40F2FB11E6E70423E8E70027D4
:101F1000046031463046A660E76043F0B4F9012121
:101F200085000246304643F0A5F91B35ED082844EC
:101F3000B04234D83B46384604F10C019A4237DAB5
:101F40002A462046002143F087F9002320461A46FE
:101F5000194643F058F9771B19462046012243F0F1
:101F600063F93A46294643F077F92B460022294681
:101F7000204643F048F93146204643F06DF93B4690
:101F800031462046002243F03EF9314620460122E8
:101F900043F04AF92946BDE8F84043F044BA0649FF
:101FA0004FF40372054843F053FC4FF4037193E779
:101FB00041F8040F0133C1E7FE0205001F030500CD
:101FC0002DE9F84F0446A38B08461907164612D48C
:101FD000022803F0070162D1204643F0DAFA88B103
:101FE0000138042800F22581DFE810F059002301B0
:101FF0007E00C800F50001280CBF43F0100143F03B
:102000002001A18304F1140013F09CFF002800F0CC
:10201000AB8086F31188BFF36F8FBDE8F88F03F0B4
:102020000702501F01281ED80020062A2768C4E98D
:10203000000014D13A4603E0E08B0130E0831268DF
:10204000002AF9D123F0070343F002022046A283BD
:1020500043F09FFA90B342F02002A2832EE023F0D7
:1020600007039AB2F2E7042A33D123F007039AB2A6
:102070002046A28343F08DFA10B142F02002A283E1
:10208000A38B03F00709894540F0DC80A18BCA06C9
:1020900040F1228121F01003A38301F00701D4F85D
:1020A0001880A38BB8F1000FB9DA0022276823F05B
:1020B0000703C4E9002243F00103A383A38B03F0C9
:1020C0000709894540F0BF80002FDFD00025AA46D0
:1020D00040E0864940F21B12854843F0B9FB40F2CC
:1020E0001B11824843F0ADFB41B180494FF4AB7204
:1020F0007F4843F0ADFB4FF4AB71F2E7236843B97F
:102100007A4940F257127A4843F0A2FB40F2571145
:10211000E7E723691D6845B974494FF4AD72744807
:1021200043F096FB4FF4AD71DBE70F4688464FF066
:102130000609A38B23F0070343F006039BB2A38396
:10214000A268002A40F08180002F40F08180002D9D
:102150009CD0BA4643F0080304F1140B5846A383FD
:1021600013F0F0FE002875D1624940F23112604848
:1021700043F06EFB40F231115E48B3E7022908D00C
:102180005A4940F25D125A4843F062FB40F25D1139
:10219000A7E7E78B47B155494FF4AF72544843F076
:1021A00057FB4FF4AF719CE723695D6845B94F4910
:1021B00040F261124E4843F04BFB40F2611190E750
:1021C000A38BB84623F0070343F004039BB24FF000
:1021D0000409A383B4E7012908D044494FF4B2723B
:1021E000434843F035FB4FF4B2717AE7236843B9B3
:1021F0003E4940F265123E4843F02AFB40F2651129
:102200006FE723699D6845B938494FF4B47238487F
:1022100043F01EFB4FF4B47163E70027A38BB8466D
:1022200023F0070343F005039BB24FF00509A38396
:1022300086E72E4940F26B122D4843F009FB40F22D
:102240006B114EE7002700257AE74FF0010A81E77E
:1022500092467FE786F31188BFF36F8FBAF1000FC4
:1022600017D14FBB15B120462349A8474FF0200393
:10227000EFF3118683F31288BFF36F8F584613F084
:1022800053FE08BB1B498822194843F0E1FA882114
:1022900072E7A1680029E4D00E680029E1D0434626
:1022A0004A462046D1F804A0D0471EB133683146D3
:1022B0001E46F2E73346FAE7394643464A46204689
:1022C0003F6843F092F9CCE7584613F049FEA38BE0
:1022D00023F00803A383D9E68B067FF593AE21F0A4
:1022E0002003A38301F0070176E600BF3703050052
:1022F0001F03050059030500FD220000F8B5044640
:102300000D4600F114064FF02003EFF3118783F31D
:102310001288BFF36F8F304613F006FE40B90A49AA
:102320000A48882243F094FA8821074843F089FA42
:10233000304613F015FEA5613A462046BDE8F84048
:102340000121FFF73DBE00BF590305001F03050033
:102350002DE9F04704460F4643F037F9051E5EDBD2
:1023600004F114094FF02003EFF3118A83F312886C
:10237000BFF36F8F484613F0D7FD804638B9334915
:102380008822334843F064FA882130483CE04846CC
:1023900013F0E6FD4FF6FF72E38BA68B934206F037
:1023A00007063FD0022E10D135460133E38348465D
:1023B00013F0C8FD00283BD1244940F231122448D3
:1023C00043F046FA40F23111DFE7062E13D8DFE87A
:1023D00006F0092C1212090409006FF085054FF070
:1023E0000008E4E700233B6063687BB9C4E9007739
:1023F0007EB13546F3E7174915484FF4E47243F0D0
:1024000027FA4FF4E471134843F01BFA1F6067602A
:10241000EEE7524602212046FFF7D2FD3546284618
:10242000BDE8F0876FF00A05D9E76FF00405D6E73D
:102430008AF31188BFF36F8FB8F1000FEFD000233C
:1024400032463946204643F0D0F8E8E75903050004
:102450001F0305003703050008B54268034602F074
:102460000302022A81600AD0032A4FF0000103D040
:10247000012A0AD1596006E01868596008BD186839
:1024800000225A6050B90020F8E706490648452264
:1024900043F0DEF94521034843F0D3F916F030F953
:1024A000F1E700BF860305001F0305002DE9F34196
:1024B00080460E46154600272A4601A9404643F0AD
:1024C0005DF9044602463146019843F0A6FC2D1BF7
:1024D0002744264401D0002CEED13946404643F033
:1024E0006AF940B106490748492243F0B1F9492148
:1024F000034843F0A6F9384602B0BDE8F08100BFBA
:10250000AF0305001F0305002DE9F34180460D468A
:10251000164600273246404601A943F061F90446B9
:102520002DB102460199284643F077FC2544361B1D
:10253000274401D0002CEDD13946404643F06CF9D8
:1025400040B1064906488E2243F082F98E210348A5
:1025500043F077F9384602B0BDE8F081AF030500DB
:102560001F030500044608B54FF02002EFF3118366
:1025700082F31288BFF36F8F04F0DEF9204600F07B
:102580006BFF034842F010FE01F02AF9FCE700BFA0
:10259000D703050010B530B90B48452143F056FB71
:1025A0006FF0150010BD836833B90848452143F02A
:1025B0004DFB6FF00400F5E71B6813B1BDE8104058
:1025C00018471846EEE700BF000405001604050092
:1025D00070B508B101B132B90B48452143F036FB63
:1025E0006FF0150070BD84680CB1E56835B9074817
:1025F000452143F02BFB6FF00400F3E741F8040B97
:10260000E368BDE87040184739040500160405006A
:1026100070B51346044630B91048452143F016FB07
:102620006FF0150070BD006830B90D48452143F0CA
:102630000DFB6FF00100F5E782680AB1956835B9C6
:102640000848452143F002FB6FF00400EAE70A4620
:10265000AC466168BDE87040604700BF6A04050091
:10266000800405001604050008B5044B196819B963
:102670000422586843F0DCFB002008BD2C00002039
:1026800030B50C460E4985B00291D0F8AC11054624
:10269000CDE9003100F1E0014FF0FF33204608F0B2
:1026A00003FF50B9012384F86430D5F8A83123B171
:1026B000204605B0BDE83040184705B030BD00BF2A
:1026C0005D59040038B50C461146054643F048F9FB
:1026D000034638B92846044943F042F9034600202E
:1026E000236038BD0120FBE79D0405002DE9F04F74
:1026F000012381460569466885B005F56B77D7E803
:10270000EF2F002A03D1C7E8E13F0029F7D10CBF22
:102710001A46002240F0B180B368B16A05F5E4784A
:102720001C1F104643F0A1F984425FD8013A00F023
:102730009E80B2FA82F24FF00044D4407268204684
:10274000073222F00302C5F86022B16A43F08DF926
:10275000C5F86402B36A40466343033323F00303BE
:1027600002EB4302230103EB4403093323F0030389
:1027700003EBC403C5F858221A440832C5F85422A2
:102780007368C5F85C42C5F850323D4BC5E9A96392
:10279000316800F0DFF9044630BBD9F804A0D9F85D
:1027A0001090DAE9073409F5307B012B584608BF51
:1027B000103C14F0E1FA0023DAF8240031494FF418
:1027C000806201EB802100935846234614F0EAFA18
:1027D00009F52C702C4914F093F9DAF81400836889
:1027E0005C682CB96FF05704002139E0013298E79A
:1027F0004B46264ADAF81810A04704460028F3D1C1
:10280000DAF8140083681B69002BEBD00122DAF898
:102810001810984704460028E6D11D4B2846C5F8F5
:10282000A8311C4BC5F8AC311B4B0393D5F81032C3
:102830000293D5F80832CDE90083D5F86832B26A40
:10284000D5F8A81300F04EF904460028CCD105F1C4
:10285000E00008F0C1FF0028C5F8B0030ADB022140
:10286000384643F0B2F8204605B0BDE8F08F6FF06F
:102870000B04B9E76FF01504B6E76FF07704F2E7E1
:10288000B3590400E84E0120995904008D59040001
:102890009D280000415B0400FB59040013B5044669
:1028A00040B100230122CDE90032074BD0E90912E3
:1028B00008F0AEFDA36E1B6823B1E06E02B0BDE868
:1028C0001040184702B010BD9D04050013B5044622
:1028D0000846216901F56B71D1E8AF1F022910D1BB
:1028E00093B1A0B10121CDE900311346D0E909121D
:1028F00008F08EFD074B984208BF6FF00B0002B046
:1029000010BD6FF00F00FAE76FF04C00F7E76FF0C3
:102910000100F4E72EF8FFFF2DE9F743884615463E
:10292000066906F56B73D3E8AF3F022B5FD11368DE
:1029300023B96FF0150003B0BDE8F0831B78002BBE
:10294000F7D0D6F8A893B9F1000F33D106F5D877B0
:102950004FF0FF324FF0FF33384613F019FD304689
:102960002A6801A9FFF7AEFE019C1CB9384643F066
:102970002AF8DEE705F10803A3666B6984F8649022
:10298000E366E46360B1384643F01DF82146304603
:10299000236E2A68FFF774FE0020C8F80040CAE7DB
:1029A0002022296804F1400043F0D6F9384643F06C
:1029B0000AF8F1E730460F4942F0D2FF04460028FA
:1029C000B7D005F1080383666B69C063C366002353
:1029D00080F8643020222968403043F0BDF9224657
:1029E0000121304600F060F80028D5D0A1E76FF053
:1029F0000F00A0E79D04050010B50C46006900F526
:102A00006B73D3E8AF3F022B0FD189B10A4900F5B0
:102A10002C7014F03FF9204644F07BFF7022002117
:102A2000204643F005FA002010BD6FF00F00FBE7D1
:102A30006FF00100F8E700BFBC1E00202DE9F04F49
:102A400005460E4690460027D0F8B0A085B0AAF5FE
:102A5000AE742146304643F09AF9E0B9114BA4F127
:102A6000400B0293DAF810303246CDE90083294654
:102A70004FF0FF335846AAF5CE7908F015FD60B93E
:102A80007023012203FB079383F86420DAF80C30EB
:102A90000BB158469847703417B105B0BDE8F08FB8
:102AA0000127D6E76F5B04001FB5144690B18AB1C9
:102AB000012912D10A4B00F1E0010293D0F8AC31A8
:102AC000403201934FF0FF332046009308F0ECFCB6
:102AD00004B010BD6FF01500FAE70020F8E700BF62
:102AE0006F5B04002DE9F04387B00E46DDE90E81EF
:102AF0001446DDE910251F4630B329B3DFF850C076
:102B000000F1E009002D08BF65469EB9CDE90344F8
:102B100000F5CE742046059645F075F803ABCDE977
:102B200000432A463B464146484608F07BFE07B034
:102B3000BDE8F083002241460E9248462A4607B07F
:102B4000BDE8F04308F09ABF6FF01500EFE700BF53
:102B50003D2A0000F0B50E46044689B000286FD02B
:102B600001230246C3630023D0F89810364F40304B
:102B700040F80C7C42F8301FCDE901334FF0FF33B1
:102B80000093C36D44F0A6FB304A06AB92E8030005
:102B900083E80300184608F04DFB0546D8B904F158
:102BA000340008F027FB0546A8B93946284805AA8D
:102BB00044F068FB054670B9059B9A6872B10C3306
:102BC000D4F89400C4F8A03043F002F8C4F8D4005C
:102BD00030B96FF00B05284609B0F0BD0346EFE7AA
:102BE000D4F8940042F0F4FFC4F8D8000028F0D0E4
:102BF000D4F88C30D4F8A010C4F8A8300423C4F85A
:102C0000AC30C4F8C4300223A362124BB4F8942051
:102C1000D4F8D470C4F8B810C4F8D010D4F8901018
:102C2000236204F1A403A4F8B020C4F8A470C4F88B
:102C3000C010A4F8C820C4F8BC00A661E362CAE7CB
:102C40006FF01505C7E700BFAF04050060FC040086
:102C5000B9040500E4FC0400014B03600020704748
:102C600010FD040070B5114B0D461C68DCB1104B13
:102C7000196800238B4202DB6FF0010070BD224611
:102C800012F8106B864202D014460133F2E7E06876
:102C900010B96FF01200F1E749F067F80028F8D09A
:102CA00000202C60EAE76FF00C00E7E758000020F6
:102CB00010FD040001483FF049BD00BF54FD040071
:102CC00038B5044618B90F4B0F485B6898476168E0
:102CD000B1F5683F10D0B1F5680F0DD00B4DA9428A
:102CE0000AD011F46861206807D00146084812F044
:102CF000C3FF00232360656038BD142243F098F8B9
:102D0000F9E700BF88020020C10405002C5F5CA920
:102D1000E423002008B560B34368B3F5683F0ED0E4
:102D2000B3F5680F18D0144A934220D000684FF0D2
:102D3000FF324FF0FF3313F02BFB58B115E00122A7
:102D40000368D3E8EF1F002903D1C3E8E02F002870
:102D5000F7D10AD1002008BD0368084A1B7803F5A3
:102D6000807352F82330002BF4D00548F3E7054870
:102D7000F1E76FF4E040EEE72C5F5CA90000035040
:102D8000E98FFFFFEA8FFFFF08B520B34368B3F573
:102D9000683F09D0B3F5680F13D0114A93421DD094
:102DA000006813F083FA14E000220368D3E8EF1FF1
:102DB000012903D1C3E8E02F0028F7D109D0094841
:102DC00008BD00210368084A1B7803F5807342F8A8
:102DD00023100020F4E76FF4E040F1E70348EFE749
:102DE0002C5F5CA9E98FFFFF00000350EA8FFFFF13
:102DF00010B5044618B91D4B1D485B6898476368B9
:102E0000B3F5683F2FD0B3F5680F2CD0194A934221
:102E100019D1236803BB4FF0FF324FF0FF33214637
:102E2000154812F0CFFE08B923681BB90F4B1348A1
:102E30005B68984714220021206842F0F9FF4FF4A4
:102E40006863636008E0B3F5683F0DD83A2B03D0A0
:102E500040F6BA629342DED1206848F0D8FF63683A
:102E600043F03A03636010BD054AF3E7880200208F
:102E7000C10405002C5F5CA9E4230020E7040500E1
:102E80003A00003A08B5064940231422054848F0A4
:102E90009AFFBDE80840044904483FF01BBD00BF4D
:102EA000E41E0020E42300205CFD040070FD04000B
:102EB0002DE9F04107460C4686B0002939D08B68D1
:102EC0001F480093D1E90023452142F0BFFE63690A
:102ED00045210093D4E903231A4842F0B7FE452167
:102EE000E269194842F0B2FE26460025DFF8648008
:102EF000F36A2A460593EB1C0493B36A45210393B6
:102F0000AB1C0293736A404601936B1C0093336AB7
:102F1000043542F09BFE102D06F11006E8D1452144
:102F2000226E0A4842F092FE4521A269084842F00A
:102F30008DFE2146384606B0BDE8F04112F0E6BBF2
:102F400014050500480505007C050500D8050500A9
:102F5000EC0505009005050030BFFFF7FDBF00BF81
:102F6000044B99689869884203D003494FF0805216
:102F70000A607047D492002004ED00E010B5244CA4
:102F80004521244842F062FEA36A99013ED52248B9
:102F9000452142F05BFE1E20A36ADA0104D51F48DA
:102FA000452142F053FE1F20194CA36ADB0204D5D1
:102FB0001B48452142F04AFE0220A36A1C0304D5A7
:102FC0001848452142F042FE2120114CA36A5903C2
:102FD00004D51548452142F039FE2220A36A9A0300
:102FE00004D51248452142F031FE2320084CA36A43
:102FF000DB0304D50E48452142F028FE2420A36AB5
:103000006FEA03436FEA1343A36210BD1D20C3E7B9
:1030100000ED00E01F0605003C0605005406050013
:1030200073060500A2060500C5060500EF060500AB
:103030000E07050070B5284C06460D462748452169
:1030400042F004FEA36AD9043BD52548452142F04D
:10305000FDFD1720A36A1A0504D52248452142F038
:10306000F5FD18201C4CA36A9B0511D51E4845216F
:1030700042F0ECFDA26BA36A180408D545211B4859
:1030800042F0E4FD1EB1A36A23F40043A3621920B9
:10309000114CA36A590504D51548452142F0D6FDC7
:1030A0001A20A36ADA050ED51248452142F0CEFD5A
:1030B0001B20094A936A43F47F43936200232B70D9
:1030C00070BD1620C6E7A36A9B04F2D50A484521C5
:1030D00042F0BCFD1C20ECE700ED00E03E070500DF
:1030E000590705006F07050087070500A5070500BC
:1030F000BF070500DF070500FC07050070B5324C6F
:1031000006460D463148452142F0A0FDA36AD90686
:1031100048D52F48452142F099FD1120A36A1A078E
:1031200004D52C48452142F091FD1220264CA36A7B
:103130009B0711D54521284842F088FD626BA36AA0
:10314000190608D54521254842F080FD1EB1A36A25
:1031500023F08003A36213201B4CA36ADA0704D573
:103160001F48452142F072FD1420A36A9B0604D536
:103170001C48452142F06AFD1520134B9A6AD60679
:1031800002D49A6A94070FD59B6AD9060CD51649C2
:10319000164840F2631242F05BFB40F263111248A2
:1031A00042F04FFB1020B9E7074B9A6A920642BFE4
:1031B0005A6A22F400525A629A6A42F0FF029A62F4
:1031C00000232B7070BD00BF00ED00E0300805004B
:1031D0004B0805006F07050083080500A0080500DF
:1031E000BB080500FC070500DF0805001F030500FC
:1031F00070B5694B0546586800269CB0C0F30803BB
:1032000086F31188BFF36F8F02F07F44B4F17F4FD4
:1032100007D102F00C04082C0ED145215F4842F082
:1032200015FD5F494FF48B625E4842F011FB4FF48D
:103230008B615B4842F005FB14074CBF0D4601262D
:10324000002DEED00024DA1E8DF80740092A00F286
:103250009280DFE802F00585897090909090908DC3
:103260004521514842F0F2FC8DF807404A4CE36A90
:103270009A0705D545214D4842F0E8FC002429E095
:10328000E36A002B02DA45214948F5E7E36A5B006F
:103290005DD54521474842F0D9FC6369AA6943F4EA
:1032A00080736361BFF34F8FBFF36F8F636932F831
:1032B000022C23F480736361BFF34F8FBFF36F8FD2
:1032C0004DF602739A421ED145212A683A4842F0CF
:1032D000BDFC2C689DF807309BB96822294602A8DE
:1032E00042F09BFD099B002E51D0C3F3080222B986
:1032F0006FEA53236FEA43230993204602A9FFF79D
:10330000D7FD1CB070BDA36ADBB233B101200DF153
:103310000701FFF7F3FE0446DCE7A36A13F47F4FCF
:1033200005D001200DF10701FFF784FEF3E7A36A42
:10333000B3F5803F02D3FFF721FEECE7184940F2D6
:103340002A32184842F084FA40F22A3171E71449CF
:1033500040F22E32134842F07BFA40F22E3168E7F9
:1033600000200DF10701D4E700200DF10701DBE794
:103370004521124880E7124910F4F87F114A12489B
:1033800008BF0A46103B452142F060FC76E723F473
:10339000FF7323F00103AFE700ED00E03F090500F4
:1033A000DF0805001F0305006F0905008B090500F4
:1033B000B1090500C4090500E8090500090A05006E
:1033C0001109050026090500320A0500044B5A6957
:1033D00042F010025A615A6942F480625A617047A1
:1033E00000ED00E0EFF30880EFF3098101B57246CC
:1033F000FFF7FEFE01BD00BF002080F31488BFF37D
:103400006F8F002080F30A8880F30B8800F058FD4E
:1034100000200E490860BFF34F8F0D4880F30888E5
:1034200000F03EF8202080F311880A484FF4006134
:10343000401880F30988EFF314800221084380F3D9
:103440001488BFF36F8F00F02FF9000094ED00E0B7
:1034500008760120C8640120BFF34F8F0549064B51
:10346000CA6802F4E0621343CB60BFF34F8F00BF22
:10347000FDE700BF00ED00E00400FA050023184658
:103480000649D1F89020C2F30722934200DB70472F
:10349000C1F89830C1F8A0000133F6E700ED00E074
:1034A00010B572B6002484F31388FFF7E7FF2346B4
:1034B0004FF0FF300C4A03F120010133102B42F88A
:1034C0002100F8D100234FF0FF30074A03F16001DB
:1034D0000133102B42F82100F8D162B6BFF34F8FB1
:1034E000BFF36F8F10BD00BF00E100E0084B9B6889
:1034F00083420BD1EFF3058343B1064B5A6842F088
:1035000080525A605A6A22F400425A6214F0DCBCBB
:10351000D492002000ED00E06FF00A01084A9368A1
:10352000D967084998674B6843F080534B60002384
:1035300083F31188BFF36F8F9368D86F704700BF14
:10354000D492002000ED00E022498A6882F8C1E0B0
:103550004FF030001044EFF3098C80E8F01F1EF0AC
:10356000100F03D102F1800080EC108A202080F33C
:103570001288BFF36F8F184F4FF000668A698A6018
:103580003E6092F9C1E0906F0023936780F3118849
:103590001EF0100F03D00023E1EE103A03E002F119
:1035A000800090EC108AEFF3148323F0040383F37C
:1035B0001488BFF36F8F02F1300090E8F01F8CF396
:1035C000098802F1000004B542F0A0FBBDE8044008
:1035D00070470000D492002004ED00E01EF0040FBC
:1035E0000CBFEFF30880EFF30980816911F8021C2A
:1035F0000229FFD001B542F07AFB01BD40B200289C
:1036000007DB01234109034A00F01F00834042F811
:103610002130704700E100E040B200280CDB0122BD
:103620000649430900F01F008240203341F823205F
:10363000BFF34F8FBFF36F8F704700BF00E100E013
:10364000054B420953F82220012300F01F0003FA22
:1036500000F01040704700BF00E100E00131072991
:1036600008B508D90D490E48582242F0F1F8582102
:103670000A4842F0E6F840B20028ACBF00F16040D2
:10368000084B4FEA4111C9B2ABBF00F5614000F0F1
:103690000F0080F80013195408BD00BF4A0A050046
:1036A0001F03050014ED00E0144A08B5144B22F086
:1036B0007F029A60BFF34F8FBFF36F8FD3F88820DC
:1036C00022F47002C3F88820D3F8882042F4A002C4
:1036D000C3F888204FF04042C3F83422BFF34F8F25
:1036E000BFF36F8F0023E1EE103A12F0ABF814F045
:1036F0009FFC00F0ABF812F0EFF800BF00000000F4
:1037000000ED00E042F8203C009B0D4942F81C3CD3
:10371000019B21F0010142F8183C029B42F8081C71
:1037200042F8143C4FF0807342F8043C0023836756
:103730004FF47D43203A0265C0F8C030704700BFA7
:10374000DD510400114B9B6883421BD1EFF30580D0
:10375000C0B94FF02002EFF3118182F31288BFF35A
:103760006F8F1A7B22F002021A73EFF3148323F097
:10377000040383F31488BFF36F8F81F31188BFF3C1
:103780006F8F70476FF01500704700BFD492002014
:103790000023E1EE103AEFF3148323F0040383F3E4
:1037A0001488BFF36F8FBFF36F8F094B9860836EE0
:1037B00083F30B88104681F30988002163B681F3F7
:1037C0001188BFF36F8F0022002341F007FD00BF77
:1037D000D4920020014910220A60704710ED00E0E9
:1037E00072B6404080F31188BFF36F8F01B500F0CF
:1037F00023FB00280AD0BFF34F8F30BF00BF00BFAC
:1038000000BF00BF00BF00BF00BF00BFBDE8014058
:1038100062B6BFF36F8F704772B6494081F311886B
:1038200001B500F009FB00280AD0BFF34F8F20BF7D
:1038300000BF00BF00BF00BF00BF00BF00BF00BF90
:10384000BDE8014080F3118862B670470023202153
:103850000348C2180133452B82F80013F9D1704791
:1038600000E100E001B5EFF30580A0F110004FEAA0
:10387000C0000449014409C99847BDE80140024914
:103880000847000060F90400612F00001FB5094CD3
:10389000094A23460121094800F006F90023039351
:1038A000074B0121E41A01A80193029400F016F9D4
:1038B00004B010BD000007200000002080FD0400BF
:1038C000B006002010B50C7A0B6804F01F0223F03C
:1038D0001F031A43CB68640923F01F03054943EA19
:1038E000440343F00103C1F89800C1F89C20C1F8DB
:1038F000A03010BD00ED00E0072810B5044608D93F
:1039000002464521044842F0A1F96FF01504204613
:1039100010BDFFF7D7FFFAE7850A05002DE9F04F44
:103920008946144606464FF00008514D85B0C845FB
:1039300027DAD6F804A0BAF1000F44D0BAF11F0F6D
:1039400018D91AF01F0F15D1D6F800B01BF01F0FB1
:1039500010D1584642F0DEF907460AEB0B00013859
:1039600042F0D8F9874210D06FF015073A4645214A
:10397000404802E0424645213F4842F067F96FF077
:103980001504204605B0BDE8F08F17F1160FEDD0F5
:10399000BC42EBDDC5F89870D5F89C10C5F898705E
:1039A000D5F8A03021F01F0143F01F0BD6E90032FB
:1039B0001A44994202F1FF3A1DD1D34507D131464D
:1039C000F8B242F0B0F908F101080C36AFE7314621
:1039D000C5F89870D5F89C3022F01F0203F01F0341
:1039E0001343C5F89C30E0B242F09DF910F1160F78
:1039F000C5D0441CE7E7C5F89870D5F8A020013B76
:103A000023F01F0302F01F021343D3453146E0B2F7
:103A1000C5F8A030E8D042F086F910F1160FAED00C
:103A2000C5F89870D5F89C209DF808300BF1FF3B45
:103A300062F304038DF80830D5F8A0309DF8082013
:103A40005B0863F347128DF80820D6E9003213446F
:103A5000009323F01F035B44A3EB0A03013023F020
:103A60001F036946C0B20393FFF746FFBEE700BFDE
:103A700000ED00E0D80A0500B00A05000522044B5D
:103A8000C3F89420BFF34F8FBFF36F8F704700BF11
:103A900000ED00E0BFF35F8F0022024BC3F89420DB
:103AA000704700BF00ED00E010B5094C2278FFF729
:103AB00035FF207016300AD10649074840F26D12D2
:103AC00041F0C6FE40F26D11024841F0BAFE10BD51
:103AD000724C0120000B05001F0305002DE9F74F74
:103AE0002E4D8A4606464FF00008AB462C4FD04577
:103AF00002DB03B0BDE8F08FD6F80490B9F1000FF7
:103B000047D031680846019142F004F90199044612
:103B100009EB0100013842F0FDF884424FF0140235
:103B2000204B10D002FB08F36FF015024BF8032076
:103B30001D491E4840F27D1241F08AFE40F27D117F
:103B4000194841F07EFE14F1160F2C60F0D0197860
:103B5000A142EDDD02FB08B0C7F89840C7F89840D5
:103B6000D7F89C4000F10801007B64F30400087161
:103B7000D7F8A0000C79400860F347140C71D7F80F
:103B80009C1021F01F016960D7F8A01021F01F01DF
:103B9000296108F1010814350C36A8E70424002037
:103BA00000ED00E0724C0120000B05001F03050032
:103BB000F0B54E4D87B02C68082C0AD94C494FF40B
:103BC000D2724C4841F044FE4FF4D271484841F063
:103BD00038FE0020FFF75EFF474B484AC3F8C0207D
:103BE00084421BD1464D01A82C70FFF735F8002404
:103BF0000646444FA64218D1FFF740FF3E4BD3F88C
:103C00009030C3F30723082B6DD0394940F21322BB
:103C1000384841F01DFE40F21321D7E7696801EBF7
:103C20000011FFF74FFE0130DAE7019A210102EBA4
:103C30000413D3F80CC00CEA0700B0F5001F1FD026
:103C4000B0F5800F35D0B0F5801F3FD1586852587D
:103C50009B68CDE902022122013B20F01F010B44A9
:103C600023F01F038DF810200593287802A9FFF791
:103C700043FE00282EDB2B78013401332B70B9E78B
:103C8000586852589B68CDE902024122013B20F05E
:103C90001F010B4423F01F031CF0010F8DF81020AF
:103CA0000593E2D012497022124841F0D1FD7021F3
:103CB0008CE758689B685258013B20F01F010B4469
:103CC000CDE9020223F01F030222CBE745210E4873
:103CD00041F0BCFF06494FF4E772064841F0B8FDD9
:103CE0004FF4E77172E7002007B0F0BD8CFD0400CF
:103CF000000B05001F03050000ED00E0AAFF4400D3
:103D0000724C01200000F0FF2F0B0500014B1860E2
:103D1000704700BF7C00002008B543090CD0012B80
:103D20001BD01249124840F2453241F091FD40F259
:103D300045310E4841F085FD4FF0FF33C340DA07AF
:103D4000EFD50C4B03EB8003D3F8002222F0E042C6
:103D500042EA0171C3F8001208BD4FF6FF7300F08C
:103D60001F00C340DB07DCD5034BEBE7650B050009
:103D70001F030500002584500028845038B5012415
:103D8000134B144DC3F8004502230321C5F8D03668
:103D90000020FFF7C1FF20460321FFF7BDFFC5F854
:103DA00004472146C5F804492120C5F8004BFFF718
:103DB000B3FF21462020FFF7AFFF21460B20FFF77E
:103DC000ABFF21460A20FFF7A7FF002038BD00BF48
:103DD000001000500040005007B50DF1070043F0FF
:103DE0009FF9114B98421CD14FF480620F4B104940
:103DF000C3F8B8254FF40062C3F83C259DF80700CE
:103E000005F048FD0B499DF8070005F02FFD012046
:103E10009DF80730984005F023FD002003B05DF8C1
:103E200004FB6FF00B00F9E70000AD0B00A002509F
:103E30002CA0025028A10250052370B5144D154E38
:103E40002C780134B4FBF3F303EB8303E41A42F060
:103E500017FE114A137823B156F82430C01A0728E8
:103E600014D94FF05023D3F8141141B10021C3F8F5
:103E70001411D3F814312C700CB9012313702C7861
:103E800042F0FEFD46F82400012070BD0020FCE752
:103E9000744C012018240020734C012048B1054BBC
:103EA000054A1B68B3FBF2F35843044B43F001038C
:103EB00018477047C401002040420F00B0FC0400C6
:103EC00005F0A6BB1022174B70B5C3F840244FF481
:103ED0007F03D3F83021D3F83431072A1BD1023BBA
:103EE000032B02D8104AD35CABB14FF0502401260B
:103EF00000250520C4F81866C4F8145643F003F9E9
:103F00003046C4F8146643F0FEF8C4F81456C4F8FA
:103F10001856002070BD4FF050230022C3F814261D
:103F2000F7E700BF003000509C0B050010B50346BA
:103F300009480A4681680C6844B90849084859226A
:103F400041F086FC5921054841F07BFC1946234687
:103F5000BDE81040184700BFC0F80400B90B0500C9
:103F60001F030500F7B506460D461446134847F0F3
:103F7000FCFE40B9124913482D2241F069FC2D2165
:103F80000F4841F05EFC3046A9B2FFF7CFFF002892
:103F900002DB002003B0F0BD002CFBD1AC42F8D214
:103FA0002F1B042F28BF042742F06AFD3A460190D8
:103FB00001A9301941F031FF3C44EFE7C0F804009B
:103FC000ED0B05001F03050070B541690446867AB4
:103FD0000A4D59B1437ADB0706D4342303FB065359
:103FE000DB6A1B689B689847002363613420214685
:103FF00006FB0050BDE8704047F034BFE4050020E8
:104000003421827A064B01FB02331A6B93F8243079
:10401000801A1B3323F00303B0FBF3F0704700BF9B
:10402000E405002038B53424827A094B04FB0233BE
:10403000DB6A0C685B681A68944294BF0C600A6083
:10404000D3E90054FFF7DCFF05FB004038BD00BF9B
:10405000E40500202DE9FF470546684691461C46C9
:10406000039147F06FFFDDE900673DB95449ED2248
:10407000544841F0EDFBED21514814E005F11C08D6
:104080004FF02003EFF3118A83F31288BFF36F8F91
:10409000404611F049FF40B94B498822494841F058
:1040A000D7FB8821484841F0CCFB404611F058FF2F
:1040B0006B8C002B56D02A8C9A4233D900220023D5
:1040C000284612F0A7FA044660B3404611F03AFFC2
:1040D00040B93D4940F231123A4841F0B9FB40F253
:1040E0003111DFE78AF31188BFF36F8F039D002D35
:1040F0005AD032463B46684647F048FF3421A27A00
:10410000324B204601FB0233DB6A03A91B681E68A1
:10411000DDE90023B0476061002839D12046FFF770
:1041200053FF30E06C8C4046631E6B8411F00AFF35
:104130000028CED08AF31188BFF36F8F95F8243012
:104140002A8C1B33121B2C6B23F0030302FB03444A
:104150001E4B1F4AEB1A9B105343A37295F8243051
:10416000E372C3E7404611F0EDFE0028B1D08AF3B8
:104170001188BFF36F8F23464A46284612F04AFA49
:1041800004460028B2D10024204604B0BDE8F087E0
:10419000039B9D4209D90A494FF4A272094841F094
:1041A00057FB4FF4A27167E765610023012263604A
:1041B00022812382039A63696282E360E4E700BF9D
:1041C000260C05001F03050059030500E405002027
:1041D000C54EECC470B5044698B13426104D204647
:1041E000037A6468013BDBB203724BB9C36043607E
:1041F000837A06FB03539B6A73B19847002CEED178
:1042000070BD084908484FF4E47241F021FB4FF4B7
:10421000E471044841F015FBFFF7D6FEEEE700BF5E
:10422000E4050020260C05001F03050008B5034621
:1042300050B90849084840F2262241F009FB40F2F3
:104240002621044841F0FDFA18465B68002BFBD19B
:1042500008BD00BF260C05001F03050070B50D4604
:10426000044650B90E4940F231220E4841F0F0FAAE
:1042700040F231210A4841F0E4FA41B9084940F2DC
:104280003222084841F0E4FA40F23221F2E746686F
:104290001EB10846FFF7CAFF4660656070BD00BFEB
:1042A000260C05001F030500F8B5858803680E4637
:1042B00004465F1941F0E0FDB04208D206490748C4
:1042C0003E2241F0C5FA3E21034841F0BAFA354496
:1042D000A5803846F8BD00BF520C05001F0305003D
:1042E00038B505460C46002940D000283ED08B68E2
:1042F000002B3ED0DA68002A3BD01B8A002B38D036
:10430000036853B91E4940F2E1221E4841F0A0FA69
:1043100040F2E1211A4841F094FA0C33D3E8AF3F60
:10432000DB0729D591F84630084643F0010381F8B0
:10433000463041F0C2FFA5612B6843B9104940F2F5
:10434000D132104841F084FA40F2D131E2E75B7D8E
:1043500094F84B0084F8393084F8413000F0AAFA20
:104360002146C0B200F09CFA002038BD6FF0150065
:10437000FBE76FF03C00F8E76FF07200F5E700BF75
:104380008C0C05001F03050008B550B90B494FF40C
:1043900074720B4841F05CFA4FF47471074841F0B5
:1043A00050FA006840B9054940F2D132044841F062
:1043B0004FFA40F2D131F1E7103008BD8C0C050006
:1043C0001F03050008B5036853B90649064840F2C3
:1043D0004B3241F03DFA40F24B31024841F031FAA4
:1043E000186808BD8C0C05001F03050008B550B9FE
:1043F0000E494FF438720E4841F02AFA4FF43871E2
:104400000A4841F01EFA036843B9084940F2E12224
:10441000074841F01DFA40F2E121F1E70C33D3E8FF
:10442000AF0F084100F0010008BD00BF8C0C050073
:104430001F03050008B550B9104940F29E221048EC
:1044400041F006FA40F29E210C4841F0FAF9036867
:1044500043B90A4940F29F22094841F0F9F940F274
:104460009F21F1E701220C3302FA01F1D3E8EF0FAB
:104470000843C3E8E20F002AF8D108BD8C0C050000
:104480001F03050008B550B9114940F2BE2211487A
:1044900041F0DEF940F2BE210D4841F0D2F9036847
:1044A00043B90B4940F2BF220A4841F0D1F940F22A
:1044B000BF21F1E7012202FA01F1C9430C33D3E82D
:1044C000EF0F0840C3E8E20F002AF8D108BD00BF93
:1044D0008C0C05001F03050010B550B909490A48A6
:1044E0004FF41C7241F0B4F94FF41C71054841F0CF
:1044F000A8F94FF0FF32BDE810404FF0FF33103005
:1045000041F000BD8C0C05001F03050038B50368A1
:10451000002104469D7EFFF769FF68B902202368E9
:10452000C3B92149214840F2F62241F091F940F205
:10453000F6211D4841F085F909212046FFF756FF75
:104540000028EBD00A212046FFF750FFC0F10600FB
:10455000C0B2E4E7987623689B7E984222D1062871
:1045600019D1062D1ED02046FFF70EFF03684BB968
:104570000F490E4841F29E0241F06AF941F29E0154
:104580000B48D7E708212046FFF754FF2046BDE837
:10459000384041F0B9BC062D04D108212046FFF770
:1045A00071FFF3E738BD00BF8C0C05001F03050049
:1045B000BB0C050008B550B90749084840F27722FE
:1045C00041F046F940F27721034841F03AF91030C2
:1045D000BDE8084041F0A4BC8C0C05001F03050099
:1045E0002DE9FF47314C4FF0FF324FF0FF33304899
:1045F00041F088FC002641F007FFA1462D4DDFF871
:10460000C080DFF8C0A0AC4237D92B4941F2133249
:104610002A4841F01DF941F21331274841F011F9C0
:104620002046FFF7CFFE876867B13B6853B104F1BE
:10463000100047F0ECFB04F1240047F0E8FB2046B3
:104640003B68984709220021201D41F0F1FB00231F
:10465000CDE901338DF80C30D8F8003008215A1C10
:10466000C8F8002001A8524640F0ABFD204601A941
:1046700041F0A9FC01363834C5E7D1D37EB13823E7
:10468000A5EB0905B5FBF3F5AE4208D00A4941F2A6
:104690002B320A4841F0DCF841F22B31BDE70448E7
:1046A00004B0BDE8F04741F03BBC00BF4C06002021
:1046B000D404002084060020BB0C05001F03050065
:1046C0002C240020E50C050038B50D4C0D4DAC42F6
:1046D00014D90D490D4841F2563241F0B9F841F272
:1046E0005631094841F0ADF803212046FFF77EFE20
:1046F00010B9204641F043FC3834E8E7F4D338BD24
:104700004C06002084060020BB0C05001F0305009A
:104710004FF0FF320121014847F0AEBB30240020AA
:1047200008B5816189B10B6853B90849084840F25E
:10473000D13241F08DF840F2D131044841F081F896
:104740005B7D80F8393080F8413008BD8C0C050065
:104750001F03050073B5044616461D4647F042FB8D
:1047600008B1002635462B463246204601A911F0F5
:1047700029FA0546B8B950220146019841F058FB84
:1047800001230A4A019894420363446005D180F8EA
:104790004B3041F092FD02B070BD054B9C4208BF0A
:1047A00080F84B50F5E70020F5E700BF88040020B3
:1047B0006804002002460B460148FFF7CBBF00BF4C
:1047C000880400202DE9F041DDE90667054614461E
:1047D000884629B922B990F8463013F0700F3DD0C1
:1047E00047F000FB08B100260027284641F053FDA2
:1047F000E0B995F8463013F0700F17D0012C17D0A0
:10480000A4F13A035A425A419200AB6908EB020103
:1048100083B11B6873B91449144840F2434241F014
:1048200017F840F24341104841F00BF80022ECE742
:104830000422EAE7081A814228BF014632463B4675
:104840006C680B4F0B480C4EBC4208BF304641F021
:104850002AFC014628B1284641F035FD0020BDE87C
:10486000F0816FF00B00FAE78C0C05001F030500C8
:1048700088040020E40500201806002030B585B02B
:104880000093DDE908451346CDE902450A46014695
:10489000024841F029FD05B030BD00BF680400208A
:1048A000034BC0EB001003EB001047F0D0BA00BF81
:1048B000680A0020082828BF0020014B185C7047B8
:1048C000EB0C050010B588B00F4C204647F0B2FA4B
:1048D0004FF0FF324FF0FF33CDE9062300230B49A1
:1048E000CDE90323CDE901334FF4BC62084B0094BA
:1048F00004F1200011F074FA20B108B0BDE81040B6
:1049000047F07BBA08B010BD680A0020E8520120C9
:10491000ED63040037B540230C460A490093411A61
:10492000491105462346084A084841F081FD011E09
:1049300005DA2846234603B0BDE83040184703B0E7
:1049400030BD00BF5C2400209F64040084F8040094
:10495000C9B2032908B508D9084909487A2240F0A4
:1049600077FF7A21054840F06CFF0C22036901FBB8
:104970000233D3F8880000F0070008BDFC0C0500E6
:104980001F03050070B5C9B2032903690AD9194983
:10499000194840F25D1240F05BFF40F25D1115488E
:1049A00040F04FFF4FF02004EFF3118584F312889D
:1049B000BFF36F8F0C2606FB0134D4F8884014F047
:1049C000C00408D0A24206D085F31188BFF36F8FD0
:1049D0004FF0FF3070BD012271430B44C3F88820B3
:1049E00085F31188BFF36F8F43680B445B6898476A
:1049F0000020EFE7FC0C05001F03050070B50D4615
:104A000006490446411A491140220548FFF7BAFFFA
:104A10002B4601462046BDE8704018475C24002024
:104A200084F804002DE9F843002201210646052000
:104A3000FEF714FE114805F005F8114B984219D104
:104A400005F010F800244FF00C080127DFF834902F
:104A50003569494605EB441040F0DDFD002807DBD1
:104A600008FB04550134042CC5F88870F0D10020EF
:104A7000BDE8F8836FF00400FAE700BFC14A000008
:104A80000000AD0BE0FD040001460C2300224B4367
:104A900070B50948C41888331844D4E92056C4F8BE
:104AA000802041F0B2FC2DB132462B46BDE870406B
:104AB0000248184770BD00BF5C24002084F8040041
:104AC00008B5062820D8DFE800F004121F1F1410D4
:104AD0000E00124BD3F8880010F007001DD1BDE87E
:104AE0000840FFF7D1BF0220F9E70320F7E70120D4
:104AF000F5E70B4940F26E220A4840F0A9FE40F269
:104B00006E21074840F09DFE054940F2722205489B
:104B100040F09EFE40F27221F3E708BD5C240020C5
:104B2000FC0C05001F03050008B54FF02003EFF350
:104B3000118183F31288BFF36F8F124A136843F019
:104B400002001060DA0708D481F31188BFF36F8F79
:104B5000BDE80840012004F0ADBF4FF05023D3F86A
:104B60000C24D3F80C34DB07EED5074841F04DFC9C
:104B700081F31188BFF36F8FBDE808400020FFF775
:104B800083BF00BF0C250020E42400207FB5002255
:104B90000123CDE9022304ABCDE90433094A6B4676
:104BA000CDF800D0CDF804D041F072FC002805DB30
:104BB0004FF480420023684611F0C0FD07B05DF855
:104BC00004FB00BFCF64040010B54FF02003EFF3E7
:104BD000118483F31288BFF36F8F074A136823F0A1
:104BE0000201DB07116002D4012004F0E5FF84F329
:104BF0001188BFF36F8F10BD0C2500202DE9F04107
:104C0000012206464249D1E8EF3FC1E8E02F0028E3
:104C1000F9D19BB93F4940484B60CB608A60FDF7B2
:104C200097FB00280ADA3D494FF40C723C4840F0EB
:104C30000FFE4FF40C71394840F003FE76B3731E3B
:104C4000012B5CD8012E07D14FF05023D3F81C3430
:104C500003F00303022B21D047F0C4F80546F8B94E
:104C6000304B1B78E3B14FF0502302220746C3F8C4
:104C700008234FF05024DFF8B080D4F81824D4F87B
:104C80001834D20316D503F00303022B01D0012EF2
:104C900010D175B387F31188BFF36F8FBDE8F08132
:104CA0004FF02003EFF3118783F31288BFF36F8F68
:104CB0000125DEE7C5B13846FEF7AEFDD4F818355C
:104CC000DBB2012BD9D1D4F80421002AD5D000229F
:104CD000C4F80421D4F804210222C4F818252022A3
:104CE000C8F88021A360C8E70021212013F0A0F8B4
:104CF000E4E74FF050230222C3F80423CEE707492C
:104D000040F24222064840F0A3FD40F2422192E7E1
:104D100058240020482400207C240020FC0C05009E
:104D20001F030500D94E012000E100E008B5074847
:104D300047F01BF838B10648FEF7E8FF0448FCF7D7
:104D4000D5FF002008BD6FF01200FBE7E8F8040073
:104D5000554D00000A2838B50446074D04D1AB680C
:104D60000D2128465B689847AB6803485B68E1B251
:104D70009847204638BD00BFE8F80400F7B50F4655
:104D8000164640B917491822174840F061FD18210E
:104D9000144840F056FDE1B912491922124840F07A
:104DA00057FD1921F4E7331BB3F5806F38BF1D465B
:104DB00000202A4601AB39193DF000FD68B9019B7E
:104DC0009D420AD12C44A642EDD809D0162003B04A
:104DD000F0BD4FF480650024F5E76FF01500F6E7AD
:104DE0000020F4E7730D05001F03050000F1744077
:104DF00000F5A6000A289ABF024B33F910006FF0A5
:104E00000F00704740020500024B0B600123136046
:104E1000704700BFC0FE04000048704740FE040019
:104E200037B50D464168B1B1D1E900138468A4B12A
:104E3000D4E9002494B18BB19C4208D10133092BF1
:104E400000780ED902465721104840F0FFFE6FF05F
:104E5000150003B030BD0B46E8E72246013323447A
:104E6000EDE78DF8013040F20113ADF80230002378
:104E70008DF8000068468DF804308DF8055005F077
:104E80008FFF03B0BDE83040FFF7B0BFB30D0500A2
:104E90000268154BFF2A08BF4FF0FF32C3F82425E4
:104EA0004268FF2A08BF4FF0FF32C3F82825826806
:104EB000FF2A08BF4FF0FF32C3F83025C268FF2A2F
:104EC00008BF4FF0FF32C3F834250269FF2A08BF3C
:104ED0004FF0FF32C3F838254269FF2A08BF4FF070
:104EE000FF32C3F83C25704700B002502DE9F04F67
:104EF000436895B05D6B8046002128460EAA41F0BC
:104F00001DFC041E7ADB0E9B2A681979186801F0D3
:104F10000DF9041E72DB002201212B20FEF79EFBFF
:104F200001274FF05023C3F8B875D8F80490D8F88B
:104F300010204846674905F007FFFFF757FF041E9A
:104F400052DB654D0EAC0FCD0FC495E80300002574
:104F5000AB230DF1140A84E803000595CAE9015555
:104F60008DF814305D4B0EA8D3F8242508AED2B2CC
:104F70000892D3F82825D2B20992D3F83025D2B2BC
:104F80000A92D3F83425D2B20B92D3F83825D2B294
:104F90000C92D3F83C35DBB20D93FFF779FF38461E
:104FA00005F06EFF01463046FFF772FF4C4B994209
:104FB00028D129465046FFF733FF041E14DB232077
:104FC00046F0CFFE4FF0030B9F2329460EA8CDE9F4
:104FD0000E55CDF820A0CDF824B08DF838301096BD
:104FE000FFF71EFF041E10DA4FF050230222C3F811
:104FF000B82505F089FF08B105F064FF204615B01B
:10500000BDE8F08F6FF00404EEE75A46514609F10F
:10501000300040F0DBFE0446B0B199F83230452153
:10502000039399F831309DF81420029399F83030A9
:105030002C4801939DF816306FF0120400939DF8F0
:10504000153040F003FECFE7D8F80420537F023B31
:10505000012B05D9177F033F012F8CBF00270127A4
:1050600041F04CFA051E06DA2A4645211E4840F05A
:10507000EDFD2C46B8E7EAB2C5F38015AF42B3D0D8
:105080000023012182F04002ADF810300EA88DF807
:10509000102004AA0E930892099110938DF83810ED
:1050A0000F96FFF7BDFE041E07D141F027FA041E3C
:1050B00004DB14F00104F8D196E795DA0B490C4AA9
:1050C0002346002F08BF0A460A48452140F0BEFD8E
:1050D0008AE700BFF164040068FC040000B00250DD
:1050E0000000AD0BE50D05001C0E0500DF0D0500F1
:1050F000DB0D0500310E0500054B994206D14FF03E
:10510000FF324FF0FF33303011F018BB704700BF53
:105110000000AD0B2DE9F84F80460F461446466857
:10512000C1F30B0322B96FF015063046BDE8F88FC6
:10513000C2F30B0252EA0305F5D1002903DBF26A40
:105140000B19934206D90A46234645212E4840F0C2
:105150007DFDE8E741F01CFA2846D8F8049041F0BC
:10516000E8F90646D0B9DFF8B0A0D9F82C30A34250
:1051700018D105F031FFA34605462946D8F810009E
:10518000FFF7BAFF554533D1B4EB0B045F44ECD1C4
:10519000012041F0CEF9002E08BF0646404641F0FE
:1051A000DDF9C2E7B4F5803F09D3BBB253B9394644
:1051B000012005F0B3FE4FF4803B0546DDE7B4F572
:1051C000805F09D3C7F30B0030B9394605F0A6FE5E
:1051D0004FF4805B0546D0E723463A4645210B480D
:1051E00040F034FD0A49D8F81000FFF785FF084D5C
:1051F000234608483A46452140F028FD2846FFF757
:10520000F5FD0646C4E700BF470E0500960E0500F3
:105210000400AD0BB90E05000000AD0B2DE9F347FE
:105220000E4607461D46904641689AB193B1042B3D
:1052300001D9AB070ED116F003040BD1002E03DB0E
:10524000CA6A731993420BD92B4632464521384816
:1052500040F0FCFC6FF01504204602B0BDE8F0877A
:10526000384641F095F9204641F063F9044630B1E3
:10527000012041F05EF9384641F070F9ECE7032D6A
:105280001ED8042132460DEB010041F0F8FF044620
:1052900001463869FFF730FF264B9C4235D12A463C
:1052A000414601A840F0B9FD042132460DEB010052
:1052B00041F0E2FF044601463869FFF71DFF24E094
:1052C00008F06043B3F1005F02D118F0030F2BD058
:1052D000DFF860A0042DA94628BF4FF0040941461D
:1052E0004A4601A840F099FD3246494601A841F0DE
:1052F000C3FF044601463869FFF7FEFE544504D15A
:10530000B5EB0905C8444E44E4D12046FFF76EFDD5
:105310000446012041F00DF90546384641F01EF9DA
:10532000002C08BF2C4697E7324629464046BFE787
:10533000DC0E05000000AD0B2DE9F04F82460E4655
:105340001C46904685B07AB1002B00F09080002971
:10535000426803DBD26ACB1893420AD9234632460D
:105360004521444840F072FC6FF0150005B0BDE8DF
:10537000F08F754205F0030541F00AF9A54228BFF8
:105380002546D8F1000303F0030308F0030758BFD4
:105390005F427F4207F00307A74228BF2746631BEF
:1053A000E41B24F0030423F00309A145C8BFA14670
:1053B00003F0030BC8BFA3EB040BB9F1000F19D026
:1053C00008EB0703721949461846019341F057FF4D
:1053D00004460146DAF81000FFF78EFE264A944292
:1053E0003CD1BD4206D0019B4A46194608EB050058
:1053F00040F0FCFCBDB1C5F104070421F21B02A87A
:1054000041F03DFF04460146DAF81000FFF774FE54
:10541000194B9C4222D107F108032A4640460DEB66
:10542000030140F0FAFCBBF1000F16D008217219FD
:105430004A440DEB010041F022FF04460146DAF830
:105440001000FFF759FE0C4B9C4207D109EB0500F9
:105450005A4602A9404440F0E0FC074C504641F057
:105460007DF8204605B0BDE8F04FFFF7BFBC1846F9
:105470007CE700BF2B0F05000000AD0B024B0B605B
:1054800001231360704700BF1025002000487047BB
:10549000DCFE040070B50D461946284616461C462B
:1054A00041F08DF840B9084823462A46452140F08E
:1054B000CDFB6FF0150070BD24B122462946304661
:1054C00040F0ABFC0020F6E78F0F050010B501227D
:1054D0000648114646F0D0FC41F0CBFE044C20605B
:1054E00041F0C4FE6060002010BD00BF1825002000
:1054F00010250020F8B50E46144641F0B7FE2146AF
:105500000546304641F05BF8374650B3B6FBF5F33D
:1055100005FB136323B9B4FBF5F305FB134343B158
:10552000234632464521114840F090FB6FF01500AC
:1055300002E0A54201D90020F8BD4FF0FF324FF044
:10554000FF330B4811F0FAF841F090FE054638465B
:1055500005F012F9641B2F44F9D1054811F0B4F895
:10556000E9E72346324645210248DDE7B10F050051
:10557000182500208F0F0500F8B50E461946304655
:1055800017461C4641F01BF840B9234632464521D8
:10559000164840F05BFB6FF01500F8BD46EA0405C5
:1055A00015F0030504D02346324645211048F0E7A4
:1055B000A4B14FF0FF324FF0FF330E4811F0BEF8A8
:1055C00024F00304AC4206EB050009D10A4AD2F8E4
:1055D0000034DB07FBD5074811F076F80020DCE744
:1055E000795905F0F9F80435ECE700BF8F0F050095
:1055F000D50F0500182500200090035010B5036951
:1056000041B91C493A221C4840F022F93A21194874
:1056100040F017F9486830B916493B22164840F067
:1056200017F93B21F3E75868F8B1884219D19C6813
:105630000868A142586000D19860002008602AB133
:105640005A680A609A68596002B99960002010E0AF
:10565000814206D10868206098688142EDD19C6043
:10566000EBE7044600680028F2D1002AE8D16FF089
:10567000150010BD191005001F03050038B5456859
:105680002B69B3B11035284604F034FE044680B9C6
:105690000146284604F0DEFD084B98420BD1224615
:1056A0002846074904F0A6FD224605210D20FDF7F6
:1056B000D5FF002038BD6FF00400FBE70000AD0B04
:1056C0009559000008B503680246590913D001290D
:1056D00006D14FF6FF7103F01F03D940C80711D45C
:1056E0000A490B4840F2453240F0B2F840F24531E9
:1056F000064840F0A6F84FF0FF31D940C907EFD572
:10570000044800E00448136008BD00BF650B0500B5
:105710001F0305000025845000288450F0B5406820
:1057200001F01F04057B87B044EA45140569002D8C
:105730005BD0B2F5001F00F1100506D121462846C6
:1057400041F08FFD002007B0F0BD0027B2F5800FBB
:1057500001AE0197776033D1B3F1007F14BF052309
:1057600004238DF804300023CDE904630393836898
:10577000CB40D90716D4B2F1A07F13D1684600946C
:10578000FFF7A0FF009B803350F82330DB0709D4DC
:105790006A462146284604F033FD174B98421AD03A
:1057A000CDF808D02146284603AA04F0EDFB134BA0
:1057B00098421DD101222146284604F0B1FDC1E7DF
:1057C000B3F1C06F05D0B3F1007F14BF01230223F2
:1057D000C7E70323C5E76946284604F09BFD074B4E
:1057E0009842DDD06FF00B00ADE76FF08500AAE7BF
:1057F0006FF01500A7E700BF0400AD0B0000AD0B74
:105800002DE9F043466840F20635337BD00601F0BF
:105810001F0747EA431748BF032302EA050558BF9D
:10582000C2F3401387B0B5F5837F14468DF803307B
:1058300043D00FD8062D18D007D8B5B1022D3ED0D1
:105840006FF0150007B0BDE8F083B5F5807FF7D1A4
:1058500001250AE040F20222954232D0B5F5407FA0
:1058600031D0B5F5007FEBD1022522032DD50123E0
:1058700072688B409360336973BB03A80397FFF78B
:1058800021FF039B00EB830084F48033C3F30043C8
:10589000C4F34044D0F8002244EA43049DF80330A6
:1058A00022F4706244EA830422F00F0244EA0523E2
:1058B0001343C0F800320020C4E70725D5E70425CC
:1058C000D3E70525D1E70325CFE7630341BF0123D4
:1058D00072688B40D360CEE71036394630460DF102
:1058E000020204F08DFC14F4403F804616D1394684
:1058F000304641F0B4FC244B9845DCD130469DF84D
:10590000021004F001FD4045D5D020492048AB22CB
:105910003FF09EFFAB211D483FF093FF4FF0000981
:1059200001AB3946304603AACDE90439CDE90199E6
:10593000CDF80C9004F028FB134B984280D114F45E
:10594000003315D09DF8033084F48034C4F3004450
:105950008DF80E3039464B46304603AA8DF80C5070
:105960008DF80D4004F0C6FB074B9842C3D067E7A3
:10597000CDE9043339460DF10303304603AA0393FE
:1059800004F002FBF0E700BF0000AD0B551005006E
:105990001F0305004209034670B502D0012A1AD040
:1059A00070BD124E326951680029F9D0012503F00B
:1059B0001F030C689D400029F2D08A682A400ED04F
:1059C0004B6853B90A490B485D223FF041FF5D2106
:1059D00007483FF036FF084EE4E7304698471CB1D1
:1059E000236821461C46E6E72346FAE7ACF80400A4
:1059F000191005001F03050098F80400014BB3F8C7
:105A000078067047580B0020024B002083F87C1664
:105A1000704700BF580B002038B50B4DD5F87046C5
:105A200064B94FF47A704843C5F8702603F036FA2B
:105A300038B9C5F870066FF00F0038BD6FF0770009
:105A4000FBE72046F9E700BF580B002008B550B926
:105A50000B4940F24A320B483FF0FAFE40F24A311D
:105A600007483FF0EEFE036843B9054940F24B3268
:105A700004483FF0EDFE40F24B31F1E7186808BDF5
:105A80008C0C05001F03050008B502F08DFF30B92E
:105A90000448452140F0DAF86FF0040008BD00200A
:105AA000FCE700BF9910050008B5084B93F97C0688
:105AB00003F038FB02F09AFF30B90548452140F069
:105AC000C5F86FF0040008BD0020FCE7580B00206B
:105AD000B910050021B1012906D06FF0010070470F
