:020000040000FA
:10000000B8720020692C0000839E0000552C00006F
:10001000552C0000552C0000552C0000552C0000DC
:10002000000000000000000000000000112E000091
:10003000552C000000000000B92D0000552C0000D8
:10004000E52F0000E52F0000E52F0000E52F000060
:10005000E52F0000E52F0000E52F0000E52F000050
:10006000E52F0000E52F0000E52F0000E52F000040
:10007000E52F0000E52F0000E52F0000E52F000030
:10008000E52F0000E52F0000E52F0000E52F000020
:10009000E52F0000E52F0000E52F0000E52F000010
:1000A000E52F0000E52F0000E52F0000E52F000000
:1000B000E52F0000E52F0000E52F0000E52F0000F0
:1000C000E52F0000E52F0000E52F0000E52F0000E0
:1000D000E52F0000E52F0000E52F0000E52F0000D0
:1000E000E52F0000E52F0000E52F0000E52F0000C0
:1000F000E52F0000E52F0000E52F0000E52F0000B0
:10010000E52F0000E52F0000E52F0000E52F00009F
:10011000E52F0000E52F0000E52F0000E52F00008F
:10012000E52F0000E52F0000E52F0000E52F00007F
:10013000E52F0000E52F0000E52F0000E52F00006F
:10014000E52F0000E52F0000E52F0000E52F00005F
:10015000E52F000053B94AB9002908BF00281CBF89
:100160004FF0FF314FF0FF3000F00CB8ADF1080C4C
:100170006DE904CE00F008F8DDF804E0DDE90223C3
:1001800004B07047704700BF2DE9F04786468C46A3
:100190000846089E154674461946002B40F0C1805B
:1001A0008542B2FA82F245D94AB1C2F1200300FA7F
:1001B00002FC954094402EFA03F343EA0C0C4FEAFC
:1001C000154EA8B2230CBCFBFEF80EFB18CC08FBA6
:1001D00000F943EA0C43994528D9EB1808F1FF3799
:1001E00004D2994502D9A8F102072B44A3EB0903D5
:1001F000A4B2B3FBFEFC0EFB1C330CFB00F044EA84
:100200000344A04214D92C190CF1FF3304D2A042AC
:1002100002D9ACF102032C44241A43EA07401EB170
:10022000D440002334607360BDE8F0874746DDE7C3
:100230006346F1E792BB431B01214FEA154EAFB273
:10024000200CB3FBFEFC0EFB1C330CFB07F840EA52
:100250000343984561D9EB180CF1FF3004D298455F
:1002600002D9ACF102002B44A3EB0803A4B2B3FB08
:10027000FEFC0EFB1C330CFB07F744EA0344A742C9
:100280004DD92C190CF1FF3304D2A74202D9ACF19D
:1002900002032C44E41B43EA0040C0E7C2F1200300
:1002A0009540944020FA03F12EFA03F34FEA154EDD
:1002B0009040AFB20343B1FBFEFC0EFB1C10190CC7
:1002C0000CFB07F841EA0041884522D969180CF176
:1002D000FF3004D2884502D9ACF102002944A1EBD9
:1002E00008019BB2B1FBFEFC0EFB1C110CFB07F7D7
:1002F00043EA01439F420ED9EB180CF1FF3104D2BF
:100300009F4202D9ACF102012B44DB1B41EA0041C0
:1003100093E76046E3E76146F7E76046A4E7634694
:10032000B8E7834206D916B9002108467CE7C6E93A
:1003300000E0F9E7B3FA83F78FB9834201D372453E
:1003400008D8BEEB020460EB030301209C461EB9F3
:10035000002169E73846FAE7C6E9004CF8E7C7F13B
:10036000200CBB400EFA07F522FA0CF42EFA0CF121
:10037000BA401C4320FA0CF3B8404FEA1449014339
:100380001FFA84FEB3FBF9F809FB18300B0C08FBCD
:100390000EFA43EA00439A4540D9E31808F1FF30CA
:1003A00004D29A4502D9A8F102002344A3EB0A0320
:1003B00089B2B3FBF9F809FB183308FB0EFE41EADA
:1003C00003418E452CD9611808F1FF3304D28E45C4
:1003D00002D9A8F10203214443EA0040A1EB0E0137
:1003E000A0FB02984145CE46434602D306D14D4577
:1003F00004D20138B9EB020E68EB0403002EA7D03B
:10040000B5EB0E0261EB030101FA0CFC22FA07F3D3
:10041000F9404CEA0303C6E9003199E74046C5E7D5
:100420004346D9E7F0B5444B444A4548C2F8003644
:10043000C2F80436C2F80836C2F80C36C2F81036D4
:10044000C2F81436C2F81836C2F81C3602F58052CB
:10045000C2F8003685B0C2F804364921C2F8083621
:10046000C2F80C36C2F81036C2F81436C2F8183684
:10047000C2F81C3609F001FB00F086F8002001F0FC
:10048000DDFA78B145212F4809F0F7FA01A800F00C
:100490007FFA2D4B1B68834210D045212B4809F071
:1004A000ECFAFEE749212A4809F0E7FA4FF4C020A8
:1004B000002102F037F949212648E5E7039A49214E
:1004C000254809F0DAFA4921244809F0D6FA4FF410
:1004D0008031002005F0EEFC044620B14521204883
:1004E00009F0CBFAFEE769469DF8080000F03CF8F9
:1004F000009B039D1D44019B1E8905F0C3FCAF19A1
:1005000001F0A4F900F08EFA00F070FA02F0EEFBB0
:1005100084F30B8884F30A88AB5983F3088884F347
:100520001488BFF36F8FBFF36F8F7B6898474521A7
:100530000C4809F0A2FAFEE73546526E00800150E1
:1005400086CC00009FCC0000300A0020EECC0000DA
:10055000B6CC0000CFCC000011CD000040CD000093
:1005600065CD000098CD0000024608B538B10548B9
:100570000023452109F081FA6FF0150008BD0860DD
:10058000FCE700BFBBCD00004FF4C051014806F0AE
:100590009FB800BF142000202DE9F04FDFF8C0B154
:1005A000F9B038A8DDE9848916461C46869FDBF839
:1005B00000500BF0EAF8002138A806F0BFF9B8F1B6
:1005C000000F07D0B9F1000F04DD4A46414638A8B4
:1005D0000BF0E4F84FF0000833897289D6F80CA0CC
:1005E00013449A44C24544D80DA938A80BF015F914
:1005F00027B1202238460DA909F0A6FC0023224687
:10060000009331464FF6FF7307A808F0E6FC8046DA
:1006100060BB20460C9E08F087FD864226D84FF02E
:10062000FF37DFF840910DF1160305AA06A907A8C8
:1006300008F021FD002819DB40F08A80BDF8166023
:10064000102E2ED1BDF81460202E0FD13346204637
:10065000069938AA09F01FFA40B9324638A90DA800
:1006600008F055FD404B1B68834217D0DBF8005063
:1006700071E0839BAAEB0809994528BF994641463A
:100680004B462046829A09F006FA0028EED14A46E7
:10069000829938A80BF082F8C844A3E74FF001080C
:1006A000C1E7012E35D1BDF81430202BDED820460D
:1006B000069938AA09F0EFF907460028D6D19DF827
:1006C00014A0BAF1200F02D94FF0FF37ABE7D9F8E9
:1006D0000030264E0393039B9F42F5DA1DA80BF0D2
:1006E00054F800211DA806F029F972681DA81268A7
:1006F00056F8081B0BF052F815A91DA80BF08DF841
:10070000524638A915A809F0F8FB00288BD001370C
:10071000E1E7202E87D17B1C85D0D9F80030BB4281
:10072000D2DDBDF81430B3F5807F9FD12046069905
:1007300038AA09F0B0F9002898D1FFB23146BDF8C7
:100740001430009738AA0DA800F012F80546BBE750
:10075000B8F1000F8AD0284679B0BDE8F08F00BF0D
:10076000B000002018C80000300A00201CC800009B
:100770002DE9F04FDFF8D4A1ADF5417D07462AA859
:100780001E469DF828B389469046DAF800500AF0D4
:10079000B5FF092201212AA806F04CF86C4B80AA6B
:1007A00053F83B4003EBCB035B6805941B6805A83B
:1007B0001C442146302309F0FEFF002840F0BE8093
:1007C000059B809A13449C4240F0B88021462CAA95
:1007D00005A80AF004F8002840F0B0800DF1B80B2D
:1007E0005A46214605A809F0FAFF0390002840F078
:1007F000A5802CA80AF011FB059A2B90944240F09A
:100800009D80039BCDF804B01A4600932CA92AA81A
:100810000AF031FF002840F091802AA806F020F865
:10082000002840F08B802CA80AF0F7FA2B902AA819
:100830000AF06EFF864240F08180B6F5807FDAF8DC
:1008400000507BD1B9F1200F78D1414680AA2AA867
:1008500006F02CF80446002870D19DF8FF32BC2B1E
:100860006CD1DF2606900DF590790FA80AF08DFF68
:1008700000210FA806F062F820220DF2DF210FA858
:100880000AF08CFF042206A90FA80AF087FF07A927
:100890000FA80AF0C2FF202EB046A8BF4FF02008D4
:1008A0009DF81B3048460133424607A9A6EB0806CF
:1008B0008DF81B3009F048FB002EC144D5DC48AB55
:1008C000184600219C4680AA067812F801EB0131F7
:1008D00086EA0E06DF2900F8016BF5D11A7802F0DE
:1008E0007F021A7013F8016B46BB0134BE2CF9D19C
:1008F0009CF8BE30012B21D10FA80AF046FF3146EB
:100900000FA806F01BF8082212490FA80AF046FFAC
:10091000394620220FA80AF041FF20220DF2DF11F4
:100920000FA80AF03BFF07A90FA80AF076FF2022C4
:100930000DF2DF2107A808F0EAFB05462AA80AF015
:10094000E9FE28460DF5417DBDE8F08FB00000209E
:100950001CC80000E1CD00007FB50A4609690346C6
:1009600011F00C0F1CBF21F00C0111614FF48070CD
:10097000002101900548CDE903110090029108463D
:10098000FFF70AFE07B05DF804FB00BF1438002033
:10099000F8B5124C124B134F2146064602201D6833
:1009A00000F0F0FB3946206805F0A2FA80B939461C
:1009B0002068FFF7D1FF05460B4B1B68834207D128
:1009C000206808F008FB236830715B683760B3600B
:1009D000206809F05FF82846F8BD00BF340A0020FF
:1009E000B000002014390020300A0020BFF36F8FC0
:1009F00072B600234FF0FF30094A03F120010133A2
:100A0000102B42F82100F8D100234FF0FF30044AA8
:100A100003F160010133102B42F82100F8D1704737
:100A200000E100E038B501224FF0FF3400251A4BF9
:100A300029465A60C3F84843C3F8084303F5805376
:100A40005A60C3F84843C3F80843A3F55043C3F8BA
:100A500000558022C3F80843104809F080FA80222C
:100A600029460F4809F07BFA0E4B8022C3F8005547
:100A70002946C3F808430C4809F071FA8022294638
:100A80000A4809F06CFA0A4BC3F808454FF05023A6
:100A9000C3F8084338BD00BF0040015080800050BB
:100AA0008081005000900050809000508091005054
:100AB00000700150014B1B68184700BFB4000020B4
:100AC000014B1860704700BFB400002007B50B460B
:100AD000002102460091034800F014F903B05DF8CC
:100AE00004FB00BFB50A00002DE9F047058B044662
:100AF0002807904611D4022905F0070540F0CD8063
:100B0000204608F0EEFD78B10138218B042811D879
:100B1000DFE800F0C3106D85950001290CBF45F09A
:100B2000100545F02005258388F31188BFF36F8FEA
:100B3000BDE8F08701F0070AAA4500F0A68000276B
:100B4000B9463E46A368002B00F0BD8041F0080185
:100B5000218388F31188BFF36F8FA168002900F00B
:100B6000BB800D68002900F0B7803346524620460E
:100B7000D1F80480C047002D76D02B6829461D4649
:100B8000F0E701F007035A1F012A1BD8002221F0C9
:100B90000701062B276889B2C4E9002209D13B4628
:100BA00003E0628B013262831B68002BF9D141F0B4
:100BB00002012046218308F094FD00287BD041F0FB
:100BC000200177E0042B0AD121F0070189B22046E9
:100BD000218308F086FD10B141F020012183218B93
:100BE00001F0070AAA4550D00027B946AAE72369B1
:100BF00021F0070141F00601062DD3F80090218372
:100C00002DD1B9F1000F40D041F00801218388F3C4
:100C10001188BFF36F8F20463949C84729E021F07A
:100C20000701236941F0040189B2042DD3F804902F
:100C30002183E6D000274FF0040A3E4682E721F0E8
:100C40000701236941F0050189B2052DD3F8089009
:100C50002183D6D000274FF0050A3E4672E70027D1
:100C60004FF0060A3E466DE72B4687E7B9F1000FC5
:100C7000D1D14FF02003EFF3118883F31288BFF333
:100C80006F8F238B23F008032383258BEA062ED551
:100C900025F01003238305F007056669218B002EDC
:100CA000BFF66FAF00232768C4E9003321F00701C6
:100CB00041F001012183218B4FF0000901F0070A67
:100CC000AA457FF43FAF002F9BD041F0080121835C
:100CD00088F31188BFF36F8F002FC7D03D68394666
:100CE00033465246204608F028FD2F46F4E7AB066F
:100CF0007FF51AAF25F02003238305F00705FFE6F3
:100D0000679700002DE9F04F82464FF000098DB043
:100D10001D46531E01910393039B58785C1C2528A4
:100D200019D100204FF0FF381E46444603460236D4
:100D3000029031780396392955D81F2914D80029F3
:100D400000F0EF8101992520D04701993078D047F4
:100D500009F10209E0E7002800F0E3810199D0479A
:100D600009F101090394D7E7A1F12002192AE9D872
:100D700001A757F822F000BFE10D0000450D00006B
:100D8000450D0000E10D0000450D0000610E000062
:100D9000450D0000450D0000450D0000450D00000B
:100DA000AD0E0000E10D0000450D0000C10E000079
:100DB0006D0E0000450D00007B0E00009B0E000034
:100DC0009B0E00009B0E00009B0E00009B0E00007F
:100DD0009B0E00009B0E00009B0E00009B0E00006F
:100DE00008460136A5E7582900F0EB80A1F163021F
:100DF000D7B2172FA6D8172AA4D801A757F822F0E0
:100E000069100000E70E0000450D0000450D0000D0
:100E1000450D0000C70E0000E70E0000450D000064
:100E2000450D0000C70E0000450D0000450D0000F7
:100E3000450D00009D0F0000450D0000450D000010
:100E40003D100000450D0000E70E0000450D0000BC
:100E5000450D00009D0F0000450D0000C70E00006D
:100E600025200199D04709F1010955E7029A4FF071
:100E7000000802F0FE020292B3E7002C0DDAB8F18E
:100E8000000F0DDA029A002A00F043810A2224EAB8
:100E9000E47402FB0414303CA3E7B8F1000FF5DB67
:100EA0000A2202FB0812A2F130089AE7B8F1000FFB
:100EB00055F8042B80F22F81002A80F22E815442B3
:100EC000022202928DE7682903D1682B06D14823BC
:100ED00087E76C2902D16C2B00F02181002B7FF475
:100EE00031AF0B467DE77A2B06D1752955F8046B97
:100EF00014D14FF0000B0CE06C2BF6D04C2BF4D13E
:100F0000073525F00703752903F10805D3E9006BC0
:100F100006D120283BD1854F013C09E04FEAE67B12
:100F2000BBF1000FF5DA7642814F6BEB4B0B013CC6
:100F30000DF12D03059300230493304659460A22F0
:100F40000023FFF707F9059BB446303203F8012D63
:100F50005A460593049BBCF10A0F8B4672F10002BE
:100F600003F1FF3106460491E7D2C3F1010B3033A0
:100F70000DEB0306B8F1000FA6F104066DDA029B33
:100F8000D9077DD4A8EB0B03A4EB0B0413E02B28AB
:100F90000ABF684F684F04F1FF34C9E770290FD1C9
:100FA00055F8042B0023FAB96FF004034FF0050B3A
:100FB000614F624E053C029A920770D4A04666E0EB
:100FC00078216C2B03D1002355F8042B08E04C2B1F
:100FD000F9D1073525F007031D465B6855F8082B46
:100FE000232825D1880621D5554F023C002601F043
:100FF0006001A1F1390B0DF12D0E02F00F0109294D
:1010000088BF594430310EF8011D102A4FEA1211E1
:1010100041EA03714FEA131C73F1000306F1FF303C
:1010200008D2C6F1010B06F13003A1E7454FDCE71A
:10103000414FDBE706460A466346DEE755F8046B98
:10104000304608F053FFB8F1000F834602DB4045FD
:10105000A8BFC3464FF00008374FA8EB0B03002B87
:1010600092DDA4EB0804A6E755F8043B4FF0010B12
:101070008DF81830304F4FF0FF33013C06AE9AE741
:10108000A046EAE7029320200199D047029BB8F1DD
:101090000108F7D524EAE472013C9144A41AB84649
:1010A00006E0049302920199D047029A049B90466D
:1010B000424612F8010B0028F3D11A46013A15D521
:1010C000002BACBFC7EB03077F425B46013B15D546
:1010D000BBF1000FA8BF5F4426464F44013E14D524
:1010E000002CA8BF3F1907EB080915E604930292EC
:1010F00030200199D047049B029ADFE702930199BF
:1011000016F8010BD047029BE0E701992020D04759
:10111000E4E70122D5E6904663E6144661E64C23F7
:101120005FE648460DB0BDE8F08F00BFF9CE000085
:10113000F7CE0000FBCE0000CAD0000003CF0000B5
:10114000FDCE000000CF0000044608B54FF020029D
:10115000EFF3118382F31288BFF36F8F04F092FED6
:10116000204601F0B1FD034807F0E2FF01F0F8FE70
:10117000FCE700BF09CF0000014B0360002070476F
:1011800028C8000070B5114B0D461C68DCB1104B2F
:10119000196800238B4202DB6FF0010070BD22460C
:1011A00012F8106B864202D014460133F2E7E06871
:1011B00010B96FF01200F1E70AF09AFC0028F8D09D
:1011C00000202C60EAE76FF00C00E7E750030020F6
:1011D0006CC800002DE9F7430D46DDE90A8691460B
:1011E0001F46044620B96FF00D0003B0BDE8F08340
:1011F0000029F8D0002AF6D0009300230846019376
:1012000008F067FCB7FBF0F303FB10700028EAD18D
:101210006A462846124909F0B7F8019B002BE2D034
:1012200008EB06029342DED3284608F052FCB8FBD6
:10123000F0F303FB10800028D5D1C4E90097E560E6
:101240002061A060C4F8148016B9019EA6EB0806C0
:101250000C9B0020E3614FF0FF33A6612362C4E7DB
:10126000DF9A0000F0B40C4B0C4E5F6A0C4BB3429B
:1012700003D36FF08500F0BC70475D68BD4209D3B1
:101280001C693CB195F802C00579AC4502D12346F2
:10129000F0BC18472433EAE7380A0020E0060020B3
:1012A000740600202DE9F04705460E461746124CFD
:1012B000DFF84880DFF84890444503D36FF085009D
:1012C000BDE8F0876268D9F824309A4212D3A36946
:1012D00083B190782979884205D13A46314628462B
:1012E000BDE8F04718475279012A03D13A46314602
:1012F000284698472434DFE774060020E0060020E3
:10130000380A00202DE9F04105460E4617460A4CE2
:10131000DFF82880444502D36FF0850009E0636957
:101320000BB92434F6E73A46314628469847002858
:10133000F7D1BDE8F08100BF74060020E006002070
:1013400010B5044608F047FE10F1780F00D050B9F0
:10135000204608F07BFC044AD2F8C43023EA00039C
:101360000020C2F8C43010BD380A00200822002135
:10137000014808F0F4BD00BFF30A002070B50B4B24
:101380000B4CA34201D3002070BD0022196A1E7FBE
:101390000439D5B2AE4201D82433F2E7013211F854
:1013A00032508542F5D10120EEE700BF74060020DF
:1013B000E006002008B509480378C3F341130A3357
:1013C00050F823303BB100F1080200F110019847BA
:1013D000C043C00F08BD1846FCE700BF380A002014
:1013E00004282DE9F14F04460F46DFF8949016D0FB
:1013F00001282DD1DFF88C8098F8B93043B300F084
:1014000033FE214D4D4520D24FF0000AD5F820B0D3
:101410002B7F5FFA8AF6B34204D82435F2E7FFF750
:10142000A5FFE7E70BEBC606307908F0D4FD0246CE
:10143000307908F00BFCD8F8C430002A23EA000306
:10144000C8F8C4300AF1010AE2DA002388F8B9309A
:101450000D4D4D4508D30B4B1B6A6BB139462046E9
:1014600001B0BDE8F04F1847EB681BB13A46214682
:10147000284698472435ECE701B0BDE8F08F00BF5F
:10148000E0060020380A00207406002073B5C4B2BC
:1014900063060D468DF8074007D02046FFF76EFF24
:1014A00078B10D4B93F8BA0058B120460A4E55B1A9
:1014B00002F01EFCF3691BB108200DF107019847EB
:1014C000012002B070BD02F03BFCF369002BF7D0A5
:1014D00009200DF10701F2E7380A002073B586787C
:1014E0001E4C8DF800600379427943EA0223ADF87F
:1014F0000230C378304603F003038DF8043008F05F
:10150000A5FBD4F8C430054618420BD0304600F095
:101510008DFD3046FFF714FF0AF043FB10B996200B
:1015200007F064F9684602F0BFFB10F1780F03D0B2
:1015300010B1002002B070BD9DF8000002F03CFC2C
:1015400010F1780F01D00028F3D10120D4F8C43075
:1015500084F8B9002B43C4F8C430EBE7380A002004
:101560002DE9F047A34E0446B3690F461546FBB973
:10157000237803F01F03012B00F09D80022B00F065
:10158000048133BB94F900002A680028617834DABA
:10159000062912D008292BD0D9B901235170137014
:1015A00096F8C3305B0043F00103137002232AE175
:1015B00098470028DCD100200DE06288100A011F46
:1015C0000129844605D9072803D8716AD2B20C785C
:1015D0001CB96FF01500BDE8F0874E78664503D161
:1015E0009A4200F00B8101332144F0E70B780AE1C5
:1015F00096F8BA301370012305E101390829E8D8BB
:1016000001A353F821F000BFA1160000D31500007C
:10161000AF160000D31500002D160000D3150000F2
:10162000D3150000D315000039160000A07802F091
:1016300029FB0028BFD0CCE76388756A63BBFFF73E
:1016400095FE638886F8BA30F369002BB3D0032087
:1016500069499847AFE76B78042B10D0052B11D060
:10166000022B04D16F796388BB4208BF01202B781D
:101670001D442B78002BEED10028AAD0DFE795F887
:101680000380F4E76388BB42F1D1B8F1000FEED1DB
:101690002846FFF723FFEAE7FF270020B846E8E7E0
:1016A0006388012B95D1002386F8C33083E76388D4
:1016B000012B8ED1F8E796F8BA30D5F800C0002B90
:1016C00087D0756AA3882A4694F804E01078002829
:1016D0003FF47FAF5178022904D192F80480F0459D
:1016E00000F293800244F1E78CF800208CF801208E
:1016F000396060E7154494E00B2A7FF46AAF002755
:101700004FF0FF08BA46C14606E06B78042B0FD0B5
:10171000052B21D02B781D442B78002BF5D1F369B4
:1017200013B1514607209847002F7FF444AF50E78C
:1017300095F80280A38895F803909845EAD16388CC
:101740009945E7D1B8F1070F1CD806EB0803AA4664
:10175000012783F8BB90DDE7A3884345DAD1A3785E
:101760004B450AD0AF78384600F060FC3846FFF7AA
:10177000E7FDB0FA80F77F09CCE72846FFF7AEFE19
:101780000746C7E7AA460027C4E794F90020637814
:10179000002A18DA002B7FF41CAF24792D68630629
:1017A0000AD02046FFF7EAFD00283FF412AF96F872
:1017B000BA30002B3FF40DAF2946204602F0E0FA84
:1017C00000236B70F2E6012B08D0032B7FF401AFEE
:1017D0006388002B7FF4FDAE012103E061880029BE
:1017E0007FF4F7AEA088FFF751FE00287FF4E3AE48
:1017F000EFE600BF380A0020F20A00200228296024
:101800007FF4F4AE4B883B60D5E694F90000627833
:101810000028BFF671AF002A3FF466AF0A2A7FF4B2
:10182000D8AE2A78002A3FF4D4AE697804297FF430
:1018300061AFA9788B427FF45DAF072B8EBF002389
:101840009B1993F8BB308CF80030D4E670B5164D78
:1018500095F8B830FBB102F0F5F9002822DB00F072
:1018600003FC0024D5F8C430E6B2E340DA0714D410
:10187000D5F8C43004F11002D340DB0705D546F09B
:101880008000FFF75DFD00280CDB0134102CE9D14E
:10189000002385F8B830002004E03046FFF750FD03
:1018A0000028E5DA70BD00BF380A002013B5164CD9
:1018B000237DF3B9E26801AB8020A168019208F0B2
:1018C000D4F9019AA3681344A360E3689B1AE36008
:1018D0006BB962B12369E2889A4208DD94F8C820A6
:1018E00093FBF2F102FB11330BB90123237502B014
:1018F00010BD002380201A461946237502B0BDE8AA
:10190000104002F083BA00BF380A0020002330B52F
:1019100085B002460D460193002858D1002935D1E3
:1019200008220B460DEB020108F06EFB002804DADA
:10193000802002F0DDF905B030BD2A4C029AC4E9DE
:1019400003552260039ABDF80E30626004F138023C
:10195000A2609DF908202575002A0ADB802B04D996
:10196000802002F0C5F90020E3E713B1C4E9033396
:10197000E1E7FFF71FFD0028DAD0E28823699A42E9
:10198000D4BFE260E360FFF791FFD4E7154C01ABF1
:10199000D4E90215002D04DC08F036FB0028CADA71
:1019A000C6E72A4608F030FB0028D9DB019AA36875
:1019B0001344A360E3689B1AE360002BBBD104F1DE
:1019C0003803A360FFF7F6FC0028DCD1B0E78028DD
:1019D000B1D1044BDA68002AD5D11B7D002BD2D1BE
:1019E000A9E700BF380A0020054B064A58629A62F0
:1019F000054A0020DA62054A1A63054A9A6170476F
:101A0000380A00206115000065120000051300006F
:101A1000A512000010B5084B93F8B84034B900F097
:101A2000E3F830B1FFF7E0FF204610BD6FF077001C
:101A3000FBE74FF0FF30F8E7380A00202DE9F341CB
:101A4000414D04466F6A4FF0FF324FF0FF333F487D
:101A500006F050F995F8B860002E6ED13C482C6223
:101A6000E86102F0EDFA02F0BBF8041E49DB00F079
:101A70001FFB041E45DB7B78012B61D1FB79002B1A
:101A80005ED0684685F8C830ADF802308DF8046045
:101A90008DF8006002F008F9041E32DB80276846EA
:101AA0008DF8007002F000F9041E2ADB3046294947
:101AB00002F0B2FA041E24DB3846264902F0ACFAE2
:101AC000041E1EDB244CDFF89480444520D3002004
:101AD00002F072F9041E14DBD5F8C430802043F004
:101AE0000103C5F8C43002F067F9041E09DBD5F81C
:101AF000C430002443F48033C5F8C430012385F892
:101B0000B830124806F0BAF8204602B0BDE8F081BD
:101B10000026276A227FF3B29A4201D82434D4E700
:101B200007EBC30257F83310107902F075FA01364B
:101B30000028EFD04FF0FF34E3E76FF07704E0E7E1
:101B40006FF01504DDE700BF380A0020F80400201C
:101B5000E11300000D19000074060020E0060020CB
:101B600030B51F4B8BB005AA03F110051446186859
:101B70005968083303C4AB422246F7D11B781022C0
:101B80002370002101A808F0EAF91222002115486B
:101B900008F0E5F9102101A808F022FC00281BDD5F
:101BA0000828B8BF082001AB09381A1800200D49D1
:101BB00012F8013F0AAC04EB131403F00F032833AF
:101BC0006B4414F8144C13F8143C013008280C70C2
:101BD0004B7001F10201EBD102480BB030BD00BFE8
:101BE00032CF0000343900202DE9F04F4FF0000BC8
:101BF0006E4C87B000264FF0011AB0463546B1460C
:101C000023782BB96A4B02349C42F3D1674832E007
:101C10006378052B1BD8DFE803F08E03C68E1D3BCF
:101C2000402304A88DF810B0ADF812308DF814B030
:101C300008F0BCF940B1082304A8ADF8123008F050
:101C4000B5F908B1ADF812B0BDF81230E3712378E0
:101C50001C44D5E7E378002BF9D1A37873B108F1E0
:101C600001085FFA88F8F2E76A68944209D02435DF
:101C70009D42F9D3002007B0BDE8F08F4D4D4E4B8B
:101C8000F6E7AB68002BEAD0414620469847E6E7E6
:101C9000002DEFD000222B7F9A42EBD2296AA07848
:101CA00001EBC2010B79984201D00132F3E7012721
:101CB000E078FBB200F003008DF81400207994F86E
:101CC00005C040EA0C20ADF8120094F9020000288B
:101CD00026DA4FF0010C07F110000CFA00F010EAC0
:101CE0000A0F24D143F080008DF8100004A8CDE93C
:101CF0000213019208F05AF9DDE90121039BB0B902
:101D00009DF8102012F0800FA2700A714FF00102AE
:101D10001DBF1033DBB29A40BA404AEA020A96E786
:101D20000120B84010EA0A0F01D11846DCE701375C
:101D3000102FBDD1B9E7032E1DD1FFF711FF0746C4
:101D400068B108F0D3F8019048B11C4808F0CEF80B
:101D5000019A824203D13946A01C08F0F5F86FF0D1
:101D600002012378091BE21804EB5303D14213D577
:101D70000136F6B26BE7002EF1D1B9F1000F3FF456
:101D800079AFA4EB090389F80230C3F3072389F87C
:101D9000033089F80480EBE702F801BC13F801096D
:101DA00002F8020DE2E7A14651E700BF3C05002022
:101DB0007406002074060020E006002032CF0000E8
:101DC000094B00211A4610B51C78844205D15C6885
:101DD0001CB1482303FB012010BD0131042903F18C
:101DE0004803F1D10020F7E7040B00202DE9F3416F
:101DF00050F8303C0446103310F8346C0AD10369B3
:101E000050F8282C980736D5D2B9590715D5002394
:101E100044F8303C54F8303C10330BD054E9097589
:101E200054F81C8C09F0BDFE00284FD021462E48E6
:101E300009F0C7FF02B0BDE8F08143F0040323615D
:101E4000304654F82C1C01AB07F00FFF10B16FF0B7
:101E50001503DDE7019A54F82C3C134444F82C3C5C
:101E600054F8283C9B1A44F8283C54F8243C13446A
:101E700044F8243CCEE7304654F82C1C01AB02F069
:101E800041F80028E3D1019D54F82C3C2B4444F840
:101E90002C3C54F8283C5B1B44F8283C54F8243C68
:101EA0002B4444F8243C002DB1D0304602F0CEF84B
:101EB000B5FBF0F303FB1055002DA8D154F8283CD6
:101EC000002BA4D0304602F065F8A3E744F8200CBC
:101ED000A4F1180005F0BCFF002DABD042463946F6
:101EE0003046A847A6E700BF100700204B1E012B75
:101EF00073B506460D460FD8FFF762FF044668B972
:101F0000012D09D101AB012230460DF1030101F091
:101F1000F9FF019B002BF5D102B070BD09F041FE25
:101F200004F1340108B1012D05D1084602B0BDE825
:101F30007040FFF75BBF034802B0BDE8704009F096
:101F400040BF00BF100700202DE9F74F804617461D
:101F50009946009107F0CFFE044600285DD14FF06E
:101F60002003EFF3118B83F31288BFF36F8F2C499B
:101F7000002208460023019105F090FF019968B9FD
:101F800048226243DFF89CA00AEB02056E6816F156
:101F9000100F12D1084605F05BFF06E00134042C57
:101FA00001F14801E4D16FF00B068BF31188BFF308
:101FB0006F8F304603B0BDE8F08F0AF802800C9AAC
:101FC000009B6A610D9A2861AA616FF00F0240467A
:101FD000C5E90237C5F844906A6002F037F858B195
:101FE000404602F033F8B7FBF0F202FB10771FB166
:101FF0006A6C42F004026A6419F0020F08D04822A9
:1020000002FB04A10848343109F0DBFE0026CCE7CE
:10201000404601F0BFFF0646C7E76FF00F06C8E76E
:10202000200B0020040B00201007002010B54FF0FB
:102030002003EFF3118483F31288BFF36F8FFFF750
:10204000BFFE50B14368103307D16FF08B0300F12E
:1020500034014360034809F0B4FE84F31188BFF3F0
:102060006F8F10BD1007002070B504250E4C4FF087
:102070002003EFF3118683F31288BFF36F8F636839
:10208000103307D16FF08B030848636004F134010B
:1020900009F097FE86F31188BFF36F8F013D04F1BD
:1020A0004804E4D170BD00BF040B002010070020DD
:1020B00070B50025094C0A4E3146204609F064FEF1
:1020C0000122A4F118001146013509F00DFE042D7E
:1020D00004F14804F0D1002070BD00BF380B00208F
:1020E000ED1D000070B504460E46017912481546F4
:1020F00007F0DEFDE8B194F900206378002A11DBD7
:10210000202B04D0222B09D06FF0850005E0072298
:102110002968103807F018FF002070BD638800F8A8
:10212000093CF9E7212BEFD10723103828603360F1
:10213000F2E76FF01200F0E7240C0020014608B52A
:10214000034807F0C2FD10B1012300F8073C08BDA9
:10215000240C00200123016981F84B300B6833B156
:1021600091F849301BB10248083109F02ABE704786
:10217000100700200123016981F84A300B6833B150
:1021800091F848301BB10248083109F01ABE704777
:1021900010070020012370B582F8483013680D46FF
:1021A00014463BB192F84A3023B10E4802F10801BF
:1021B00009F007FED4F890309A681B699A4205D15D
:1021C0007DB904F1180140F6CD4204E004F1180194
:1021D000002DF8D00022BDE870400023014805F032
:1021E000B3BF70BD1007002038B5056995F89E0093
:1021F00088B195F89F307BB985F84830D5F89000C4
:1022000007F0CAFB044600220023044805F1180128
:1022100005F09AFF204638BD0020FCE7100700209B
:10222000002103460C4AA0F84810106883F89C105F
:10223000C3F8940090889279A3F8980083F89A20C4
:1022400083F89B104022A3F89E1083F8A01003F19E
:102250004C0007F084BE00BF00C80000F0B5D0F805
:102260008C3004465B6885B01B6A1F7D384607F0DA
:1022700042FD0646F8B994F88630E3B14FF4806227
:10228000A06F03A907F0A7FB0546A0B18306A4F140
:10229000180384F830600193084B08BF00F1FF3544
:1022A000039900932A4602233846FFF74DFE29463C
:1022B000A06F07F0ACFB05B0F0BD00BF952100009A
:1022C000002310B50469C4F8A8300C4BC4F8A4006E
:1022D000596804F1A80269B9C3E9002204F10800B1
:1022E000074909F051FD04F11800064909F07AFD8B
:1022F000002010BD0A605A60F0E700BF240C0020E7
:10230000219D00005D220000002313B504698DF8B3
:10231000071084F848300122D4F890000DF107012D
:1023200007F03AFB10B909F03CFC40B12122002330
:1023300004F11801064805F007FF02B010BD94F83B
:10234000A130002BF2D00021212006F035FAE2E77F
:102350001007002037B514460A1E054620DDD4F8C4
:102360008C0004F14C0107F017FB012384F849307D
:1023700023683BB194F84B3023B1114804F10801B4
:1023800009F01FFDD4F88C104B684A699A1ACB6982
:102390009B1A3F2B04D8012384F8A03003B030BD32
:1023A00094F89E30002BF9D0064B4022009328462B
:1023B0000123019404F14C01FFF7C6FDEEE700BFD5
:1023C0001007002055230000F7B50D4601461D48B3
:1023D00007F063FC044610B3064656F8A439691E9C
:1023E0005F6805291BD8DFE801F01C1A031C2226B0
:1023F00010F8061C99B9012300F8063C3B6A3246E6
:10240000187BFFF7A7FF14F85C2C42B93B6A114612
:10241000187D0D4B019600930223FFF795FD03B045
:10242000F0BD304603B0BDE8F040FFF7F9BE012330
:1024300004F8053CF3E710F8053C002BEFD000232F
:10244000F6E700BF240C002095210000014B997095
:10245000704700BF9905002037B590F90020044669
:10246000002A03781DDB03F01F03012B19D14378E9
:102470000B2B0FD14388A3B902200B4D01A9287063
:10248000FEF780FE50B9019883686B6007F002FB8D
:102490006388EB606FF0150003B030BD6FF004008F
:1024A000FAE76FF08500F7E710010020002310B570
:1024B000064C04F11000A360A4F83A3207F0D4FCF3
:1024C00018B140F60A63A4F8383210BD100100209C
:1024D00010B50A4C94F83832012B0DD101F0B2FB43
:1024E0000223074884F83832064B1860FFF77CFA5D
:1024F000BDE8104001F074BB10BD00BF100100200A
:10250000F10500209806002037B50E490E4809F065
:102510003BFC0E480E4D09F049FF0E490E4809F0EC
:1025200061FC287801A9FEF72DFE044638B9019810
:1025300083686B6007F0AEFA204603B030BD6FF0E1
:102540000404F9E75D2500002C0C00203C0C002061
:1025500010010020D1240000E006002038B5184BFF
:1025600093F88020022A01D0052A0FD1B3F88250B7
:102570001349B5FA85F32A4612485B0907F033FC84
:10258000114C20B140F20A33A4F8383238BD95B965
:10259000062384F83832FFF789FF284607F0EBFC62
:1025A00018B140F20A33A4F838320021BDE83840AF
:1025B000064806F003BB052384F83832E6E700BF7F
:1025C000901F002020010020100100203C0C002062
:1025D00070B5144690F900200646002A437833DA95
:1025E000032B0BD0052B28D0022B44D140F60A72C6
:1025F000464B6FF08500A3F838221DE0434B93F85B
:10260000382293F83902062A04BF022283F83822BE
:1026100022681070B3F83C2220684270120A82705F
:1026200000222068C270206893F838320371236852
:102630005A7106230B60002070BD344A236892F85B
:1026400038221A700123F5E7062B14D8DFE803F0CF
:102650004D1F1313161304002C4C94F83832012B21
:1026600005D9FFF723FF0223A4F83832E3E700225D
:10267000264B83F838226FF01500DDE7234B93F8E3
:102680003822012AF3D90222A3F83822D3E71F4DBA
:1026900095F83832012BEAD9022B08D0052B13D03C
:1026A00040F60A63A5F83832FFF700FFE3E7FFF7CB
:1026B000FDFE174809F07FFE2B78022B04D040F274
:1026C0000A33A5F83832B6E70422124885F83822D2
:1026D00080F88030F288A0F88220216807F034FC6E
:1026E0000D490E4809F06DFBA5E7084B93F8382219
:1026F000002ABCD101220A4983F83822074840F653
:10270000CD42002305F04AFD95E700BF10010020EF
:102710003C0C0020901F00202C0C002010070020F3
:10272000E006002073B5174E02460B46684609F0D6
:10273000B1FCDDE9004522462B46684609F0CEFC97
:10274000DDE90023134301D102B070BD96F83832A1
:10275000043B012B05D9002140F2676006F02CF8FC
:10276000E9E700220121084B084809F0F5FD4FF088
:10277000FF324FF0FF330121044802B0BDE8704042
:1027800006F0C0B9100100203C0C00204C0C0020C9
:1027900037B50024084D4FF0FF334FF480622846D0
:1027A0000649009405F098FC0549284609F0FFF910
:1027B000204603B030BD00BF10070020783900204C
:1027C00051CF0000014806F0C3BA00BFF0C80000B6
:1027D00038B5044618B90F4B0F485B6898476168D5
:1027E000B1F5683F10D0B1F5680F0DD00B4DA9427F
:1027F0000AD011F46861206807D00146084809F042
:10280000AAF900232360656038BD142207F0A7FBF6
:10281000F9E700BF200400205ACF00002C5F5CA91C
:102820006011002008B560B34368B3F5683F0ED06F
:10283000B3F5680F18D0144A934220D000684FF0C7
:10284000FF324FF0FF3305F055FA58B115E0012281
:102850000368D3E8EF1F002903D1C3E8E02F002865
:10286000F7D10AD1002008BD0368084A1B7803F598
:10287000807352F82330002BF4D00548F3E7054865
:10288000F1E76FF4E040EEE72C5F5CA90000035035
:10289000E98FFFFFEA8FFFFF08B520B34368B3F568
:1028A000683F09D0B3F5680F13D0114A93421DD089
:1028B000006805F0E3F914E000220368D3E8EF1F95
:1028C000012903D1C3E8E02F0028F7D109D0094836
:1028D00008BD00210368084A1B7803F5807342F89D
:1028E00023100020F4E76FF4E040F1E70348EFE73E
:1028F0002C5F5CA9E98FFFFF00000350EA8FFFFF08
:1029000010B5044618B91D4B1D485B6898476368AD
:10291000B3F5683F2FD0B3F5680F2CD0194A934216
:1029200019D1236803BB4FF0FF324FF0FF3321462C
:10293000154805F0CDF808B923681BB90F4B1348AB
:102940005B68984714220021206807F008FB4FF4C9
:102950006863636008E0B3F5683F0DD83A2B03D095
:1029600040F6BA629342DED1206809F039F9636813
:1029700043F03A03636010BD054AF3E720040020EA
:102980005ACF00002C5F5CA96011002080CF0000AE
:102990003A00003A08B5064940231422054809F0D8
:1029A000CCF8BDE808400449044806F043BA00BF2B
:1029B000600C002060110020F8C800000CC9000065
:1029C00030BFFFF7FDBF00BF044B996858698842CC
:1029D00003D003494FF080520A607047801D0020E9
:1029E00004ED00E0154B9A6A12F0007F9A6A14BF5A
:1029F0001E201D2012F0807F9A6A18BF1F2012F43B
:102A0000801F9A6A18BF022012F4002F9A6A18BF1A
:102A1000212012F4802F9A6A18BF222012F4003F5E
:102A20009A6A18BF232012F4803F9A6A18BF2420A4
:102A30006FEA02426FEA12429A62704700ED00E0CC
:102A400010B5194B0246986A9C6A10F4805F14BF57
:102A50001720162014F4006F9C6A18BF1820A405D4
:102A600009D5986B986A000404D51AB19A6A22F4C1
:102A700000429A6219200C4B9A6A12F4806F9A6A8B
:102A800018BF1A20D2050CD49B6A13F4005F18BF3C
:102A90001C20054A936A43F47F43936200230B7022
:102AA00010BD1B20F5E700BF00ED00E010B51C4B8A
:102AB0000246986A9C6A10F0100F14BF1120102073
:102AC00014F0080F9C6A18BF1220A40709D5586B90
:102AD000986A000604D51AB19A6A22F080029A62B6
:102AE00013200F4B9A6A12F0010F9A6A18BF142034
:102AF00012F0200F9A6A18BF1520D40658BF9B6A9F
:102B0000074B9A6A920642BF5A6A22F400525A62EE
:102B10009A6A42F0FF029A6200230B7010BD00BF58
:102B200000ED00E070B5444B06465B6800258AB0B6
:102B3000C3F3080385F31188BFF36F8F02F07F4062
:102B4000B0F17F4F11D102F00C0008280DD0100712
:102B50004CBF0E4601250022033B8DF80720032BB6
:102B600005D8DFE803F01E5C60592E46F3E7002429
:102B70009DF807309BB92022314602A807F0E4F9FE
:102B8000099B002D53D0C3F3080222B96FEA5323E7
:102B90006FEA43230993204602A907F06CF90AB0B3
:102BA00070BD254BDA6A9107E1D4DA6A002ADEDBD0
:102BB000DA6A5200DBD55A69B16942F480725A610F
:102BC000BFF34F8FBFF36F8F5A6931F8021C22F4A5
:102BD00080725A61BFF34F8FBFF36F8F4DF6027251
:102BE000914209D09A6AD2B242B101200DF1070197
:102BF000FFF75CFF0446BBE73468B9E79A6A12F452
:102C00007F4F05D001200DF10701FFF719FFF1E714
:102C10009B6AB3F5803FAAD3FFF7E4FEEAE7002002
:102C20000DF10701E4E700200DF10701EDE723F4C2
:102C3000FF7323F00103ADE700ED00E0044B5A6998
:102C400042F010025A615A6942F480625A61704738
:102C500000ED00E0EFF30880EFF3098101B5724663
:102C6000FFF760FF01BD00BF002080F31488BFF3B1
:102C70006F8F002080F30A8880F30B8800F03EFC01
:102C800000200E490860BFF34F8F0D4880F308887D
:102C900000F03EF8202080F311880A484FF40061CC
:102CA000401880F30988EFF314800221084380F371
:102CB0001488BFF36F8F00F001F9000094ED00E07D
:102CC000B872002078410020BFF34F8F0549064BB2
:102CD000CA6802F4E0621343CB60BFF34F8F00BFBA
:102CE000FDE700BF00ED00E00400FA0500231846F0
:102CF0000649D1F89020C2F30722934200DB7047C7
:102D0000C1F89830C1F8A0000133F6E700ED00E00B
:102D100010B572B6002484F31388FFF7E7FF23464B
:102D20004FF0FF300C4A03F120010133102B42F821
:102D30002100F8D100234FF0FF30074A03F1600172
:102D40000133102B42F82100F8D162B6BFF34F8F48
:102D5000BFF36F8F10BD00BF00E100E0084B9B6820
:102D600083420BD1EFF3058343B1064B5A6842F01F
:102D700080525A605A6A22F400425A6209F02CB911
:102D8000801D002000ED00E06FF00A01084A936802
:102D9000D967084998674B6843F080534B6000231C
:102DA00083F31188BFF36F8F9368D86F704700BFAC
:102DB000801D002000ED00E013498A684FF03000CC
:102DC0001044EFF3098C80E8F01F202080F3128874
:102DD000BFF36F8F0D4F4FF000664A698A603E6007
:102DE000906F0023936780F3118802F1300090E820
:102DF000F01F8CF3098802F1000004B507F04CF8CD
:102E0000BDE8044070470000801D002004ED00E094
:102E10001EF0040F0CBFEFF30880EFF30980816907
:102E200011F8021C0229FFD001B507F026F801BDF8
:102E300040B2002807DB01234109034A00F01F00CC
:102E4000834042F82130704700E100E040B20028A2
:102E50000CDB01220649430900F01F0082402033A9
:102E600041F82320BFF34F8FBFF36F8F704700BF30
:102E700000E100E0054B420953F82220012300F055
:102E80001F0003FA00F01040704700BF00E100E0AF
:102E900040B2002801F10101ACBF00F16040064BD7
:102EA0004FEA4111C9B2ABBF00F5614000F00F001D
:102EB00080F800131954704714ED00E00B4A08B570
:102EC0000B4B22F07F029A60BFF34F8FBFF36F8FDF
:102ED000D3F8882022F47002C3F8882004F02EFD75
:102EE00005F0B6FC00F072F804F072FD000000007E
:102EF00000ED00E042F8203C009B0B4942F81C3CEE
:102F0000019B21F0010142F8183C029B42F8081C89
:102F100042F8143C4FF0807342F8043C0023203AFE
:102F200002658367704700BF4B910000084B9860B3
:102F3000836E83F30B88104681F30988002163B602
:102F400081F31188BFF36F8F0022002306F0FDF894
:102F5000801D0020014910220A60704710ED00E03A
:102F600072B6404080F31188BFF36F8F01B500F057
:102F700081FA00280AD0BFF34F8F30BF00BF00BFD7
:102F800000BF00BF00BF00BF00BF00BFBDE80140E1
:102F900062B6BFF36F8F704772B6494081F31188F4
:102FA00001B500F067FA00280AD0BFF34F8F20BFA9
:102FB00000BF00BF00BF00BF00BF00BF00BF00BF19
:102FC000BDE8014080F3118862B6704700232021DC
:102FD0000348C2180133452B82F80013F9D170471A
:102FE00000E100E001B5EFF30580A0F110004FEA29
:102FF000C0000449014409C99847BDE8014002499D
:1030000008470000A0C50000C92900001FB5094CF1
:10301000094A23460121094800F0EAF800230393F6
:10302000074B0121E41A01A80193029400F0EAF889
:1030300004B010BD00000720000000201CC90000E3
:10304000E006002010B50C7A0B6804F01F0223F094
:103050001F031A43CB68640923F01F03054943EAA1
:10306000440343F00103C1F89800C1F89C20C1F863
:10307000A03010BD00ED00E02DE9F04F0F461446E2
:1030800006464FF000084E4D85B0B84580F294805A
:10309000D6F80490B9F1000F36D0B9F11F0F40F205
:1030A000898019F01F0F40F08580D6F800A01AF033
:1030B0001F0F7FD1504606F0F3FE834609EB0A004E
:1030C000013806F0EDFE834574D11BF1160F71D067
:1030D0005C456FDDC5F898B0D5F89C10C5F898B080
:1030E000D5F8A03021F01F0143F01F0AD6E90032C5
:1030F0001A44994202F1FF391ED1CA4508D131461E
:103100005FFA8BF006F0D5FE08F101080C36BCE73B
:103110003146C5F898B0D5F89C3022F01F0203F074
:103120001F031343C5F89C30E0B206F0C2FE10F155
:10313000160F3FD0441CE7E7C5F898B0D5F8A0209B
:10314000013B23F01F0302F01F021343CA4531461F
:10315000E0B2C5F8A030E8D006F0ABFE10F1160FD3
:1031600028D0C5F898B0D5F89C209DF808300AF111
:10317000FF3A62F304038DF80830D5F8A0309DF8CB
:1031800008205B0863F347128DF80820D6E9003267
:103190001344009323F01F03411C5344A3EB090382
:1031A000C8B223F01F030728039303D86946FFF72B
:1031B00049FFBFE76FF01504204605B0BDE8F08F6A
:1031C00000ED00E00522044BC3F89420BFF34F8FBD
:1031D000BFF36F8F704700BF00ED00E0BFF35F8F5C
:1031E0000022024BC3F89420704700BF00ED00E0BE
:1031F00010B5034C2278FFF73FFF207010BD00BFD1
:10320000463900202DE9F74F294D8A4606464FF0F2
:103210000008AB46274FD0451BDAD6F80490B9F129
:10322000000F3FD031680846019106F039FE019940
:10323000044609EB0100013806F032FE84424FF0EB
:1032400014021D4B08D002FB08F36FF015024BF877
:10325000032003B0BDE8F08F14F1160F2C60F8D0F6
:103260001978A142F5DD02FB08B0C7F89840C7F80D
:103270009840D7F89C4000F10801007B64F30400FB
:103280000871D7F8A0000C79400860F347140C715E
:10329000D7F89C1021F01F016960D7F8A01021F029
:1032A0001F01296108F1010814350C36B3E700BF8E
:1032B0007C11002000ED00E046390020F0B5384DCB
:1032C00087B02C68082C67D80020FFF787FF354BA4
:1032D000354AC3F8C02084420DD1344D01A82C706A
:1032E000FDF74AFF00240646314FA6420AD1FFF7F8
:1032F00069FF00204EE0696801EB0011FFF7A2FEB4
:103300000130E8E70199200101EB0413DA683A4043
:10331000B2F5001F22D0B2F5800F2CD0B2F5801F7D
:1033200036D15A689B680958013B22F01F000344BC
:103330000120844623F01F0340EA4C108DF8100052
:103340002878CDE902210728059321D802A9FFF7A3
:1033500079FE2B78013401332B70C6E75A689B68DD
:103360000958013B22F01F0003444FF0020C0120DA
:1033700023F01F03E0E75A689B680958013B22F0DD
:103380001F0003444FF0000C022023F01F03D3E77B
:103390006FF0150007B0F0BD4FF0FF30FAE700BF47
:1033A00028C9000000ED00E0AAFF440046390020D3
:1033B0000000F0FF014B1860704700BF740300204D
:1033C00007B50DF1070008F0BFFA114B98421CD168
:1033D0004FF480620F4B1049C3F8B8254FF40062D8
:1033E000C3F83C259DF8070008F0A2FA0B499DF8A8
:1033F000070008F098FA01209DF80730984003F084
:10340000AFFC002003B05DF804FB6FF00B00F9E7A0
:103410000000AD0B00A002502CA0025028A10250C9
:10342000054B03EB8000D0F8003223F0E04343F07B
:103430004053C0F80032704700258450012208B57F
:103440000A4B0B49C3F8002502230020C1F8D036EF
:10345000FFF7E6FF1046FFF7E3FFC1F80427C1F8C6
:103460000429C1F8002B002008BD00BF0010005047
:1034700000400050052370B5144D154E2C780134D2
:10348000B4FBF3F303EB8303E41A07F04DF9114A9D
:10349000137823B156F82430C01A072814D94FF0F6
:1034A0005023D3F8141141B10021C3F81411D3F8FB
:1034B00014312C700CB9012313702C7807F034F9F7
:1034C00046F82400012070BD0020FCE748390020A8
:1034D000901100204739002048B1054B054A1B6870
:1034E000B3FBF2F35843044B43F001031847704712
:1034F0000804002040420F0010C8000003F02EBB5B
:10350000020600F07F0312D5082B05D1010700F059
:103510000F0306D50E48704710F0780F12D100F057
:103520000F034C2000EB43100A4B18447047082B44
:1035300005D1020700F00F0306D50748704710F0C9
:10354000780FF6D000207047044800EB4310704716
:10355000F0120020A41100201014002010130020ED
:103560000149024808F02DBCCC110020B007002012
:103570000146014808F0ADBB2405002000220023CD
:10358000014804F031BC00BF2405002013B500221F
:1035900001213720FFF77CFC3720FFF749FC124858
:1035A00000F002FE114B98421AD10024104803F09B
:1035B00013FD104804F02CF94FF0FF334FF48062F4
:1035C0000D490E48009404F087FD0D490B4808F0A2
:1035D000EEFA0C480C4908F0D7FB204602B010BDAB
:1035E0006FF00400FAE700BFE93700000000AD0B00
:1035F000CACF000050C90000783D0020B00700206D
:10360000BCCF0000CC11002005390000002310B50C
:103610000B49D1E8EF2F012A03D1C1E8E03F002890
:10362000F7D10CD151F8044C1439204606F039F981
:10363000783004D12046BDE8104006F00DB910BD29
:10364000C411002038B5002464F07F00C0B2FFF739
:1036500057FF013406F093FC082CF5D100240E4DE1
:10366000E0B2FFF74DFF036903B90561013406F0CD
:1036700086FC082C05F14005F2D1084806F07FFCD5
:10368000074BD3F87C2212B9064AC3F87C220648BD
:1036900006F075FC002038BD34180020F012002020
:1036A000A4110020341400201014002010B5054C83
:1036B000FFF764FF20B14168204608F04CFAF7E7B5
:1036C00010BD00BF8C04002007B5002300220E4867
:1036D00001A904F0FDF990B1FFF7E8FF00220023F3
:1036E000094801A904F0F4F938B9042301984060AD
:1036F0000374FFF73DFFFFF733FF002001E001985F
:10370000406003B05DF804FB8C040020022810B573
:1037100011D8094B1C5CFFF7D7FF60B1002204727F
:103720000274FFF725FF054B93F824301BB1BDE869
:103730001040FFF715BF10BDC7CF0000A411002037
:10374000F8B5877806463846FFF7DAFE3B060446AA
:10375000F57812D5002D43D1FFF7B6FF03460028B8
:103760003ED00122A5770274032202739C60FFF70A
:10377000FFFEBDE8F840FFF7F3BE4DB1012D2FD19C
:10378000FFF7A2FF034658B3657705740573EDE7AD
:10379000FFF79AFF20B3B278124B12F0800F02F0BD
:1037A000080111D041B1D3F8A836E36001230374B6
:1037B000022384600373DAE7142102F00F0201FB95
:1037C0000233D3F80836F0E711B1D3F8A837ECE7A5
:1037D000142102F00F0201FB0233D3F80837E4E7AB
:1037E000F8BD00BF00600350F0B5064689B0142252
:1037F000002103A806F0B3FB3378013B052B21D849
:10380000DFE803F07A0314146A16032300248DF80A
:103810001430FFF759FF0346A0B100F10802047409
:10382000DDE9050182E8030018461DE00423EDE709
:10383000B7783846FFF764FE837A044623B1013B2C
:10384000022B43D909B0F0BD3B06F57813D5002D06
:10385000F8D1FFF739FF03460028F3D00122A577FE
:103860000274032202739C60FFF782FE09B0BDE878
:10387000F040FFF775BE55B1012DE3D1FFF724FFEE
:1038800003460028DED0657705740573EBE7FFF784
:103890001BFF07460028D5D0012303740223846050
:1038A000037304F10C01B07806F0CAFB134AE16817
:1038B000B2F88C328B4206D95B1AA2F88C3200F037
:1038C000BDFF3846D0E7A2F88C52FAE7304609B07F
:1038D000BDE8F040FFF734BF01A800F089FF9DF874
:1038E0000530052B04D19DF8043013F0600FA9D0EA
:1038F000034B012405938CE702248AE7A4110020DE
:10390000101300202DE9F0438046A54CDFF8949277
:1039100085B0FFF733FE064610B905B0BDE8F08369
:1039200094F82530327C3BB9002A00F08880716819
:103930009C4808F010F9ECE7042A44D8DFE812F0BC
:103940007F000500FE0014013E01337BB568032BA8
:1039500039D8DFE803F0023F5C616F69082200217B
:10396000384606F0FCFA904B9048D3F880243A7021
:10397000D3F884247A70D3F88824D3F88C1442EADC
:1039800001227A80D3F89024D3F8941442EA0122D9
:10399000BA80D3F89824D3F89C34394642EA0323FA
:1039A0000822FB80EA6006F0CFFA2B680021687AD3
:1039B000984797F90030002B08DBFB8833B1A4F857
:1039C0008C3200F03BFF48467168B2E70023A4F850
:1039D0008C32F8E76B7F002BF5D02B7F002BF2D0D9
:1039E00000274FF0FF326F774FF0FF3370482F778B
:1039F00006F0D8FA6B6901A901936B68CDE902372B
:103A0000687A00F027FC6A4806F0CEFADBE701216D
:103A10002B68687A9847D6E7AB7A6BB9EB7F5BB9CE
:103A200063484FF0FF324FF0FF3306F0BBFA00F06F
:103A30000BFF5F4806F0B8FA02212B68E9E7327AFB
:103A4000042AC0D8DFE802F055031F636F0000F0BE
:103A500077FB05460028B6D100F024FB0123554929
:103A6000D1E8EF2F002A03D1C1E8E03F0028F7D1C9
:103A7000A9D141F8085C41F8105CE0691439636130
:103A800005F092FE9FE7002565F07F00C0B2FFF7CA
:103A900037FD037A13B1407A01F03CF80135082D67
:103AA000F2D194F854311BB194F8550101F032F879
:103AB0000025E8B2FFF724FD037A13B1407A01F044
:103AC00029F80135082DF4D194F874321BB194F81B
:103AD000750201F01FF8002000F016FB012384F8A6
:103AE00025302368002B3FF46EAF00210220984759
:103AF00069E7002584F8255000F074FFFFF786FD84
:103B00002368002B3FF45FAF29460420EFE7002B2A
:103B10003FF459AF00F01EFB2368002B3FF453AF76
:103B200000210520E3E72268002A3FF44CAF002B78
:103B30003FF449AF00210620904744E708F1100503
:103B40004FF0FF334FF0FF32284606F02BFAFFF715
:103B500079FD284606F028FA58F8283C002B3FF457
:103B600032AF00210120C2E794F874327BB1012505
:103B700084F8895284F88852FFF7A6FD38B10E4ABE
:103B8000057405738260FFF7F3FCFFF7E9FC58F852
:103B9000283C002B3FF417AF00210A20A7E700BF05
:103BA000A41100208C04002000600350A811002004
:103BB000DC110020C41100201014002003F010FEBE
:103BC00000F010FF00F064FAFFF770FDFFF73AFD18
:103BD00003F0FEFD014800F0E7FAF4E6E9370000E3
:103BE00038B5154D95F8244024BB05F1380007F091
:103BF000F7FF022001F0E0F822460121E8613620BB
:103C0000FFF746F903F0E4FDFFF71CFD044610B989
:103C1000012385F82430094B1B680BB1FFF7A0FC8A
:103C2000074BD3F80034DB0702D50020FFF76EFD09
:103C3000204638BD0024FBE7A41100202405002005
:103C40000070035010B54FF0FF324FF0FF330B48B8
:103C500006F0A8F9FFF72AFD00F072FA08B100F0AB
:103C6000C1FE0024FFF7D2FC03F0BAFD044880F83F
:103C70002440383006F098F9204610BDDC110020B1
:103C8000A4110020074B93F824203AB193F8253073
:103C9000002B14BF00206FF0120070476FF012006D
:103CA000704700BFA411002038B5104B044693F8AC
:103CB0002430C3B105782846FFF722FC10B96FF015
:103CC000150038BD4572237983726388436020787C
:103CD000618810F0080F02D14B1E0B42EFD106F0A5
:103CE000AAF90020EDE76FF01200EAE7A411002026
:103CF00038B5124B054693F82420CAB193F8253005
:103D0000B3B1FFF7FDFB0446A8B1837A012B12D0B3
:103D100007D9023B012B07D900206369E060A3614A
:103D200038BD00F097FDF7E7284600F035FDF3E7D2
:103D30006FF01200F4E76FF01500F1E7A411002016
:103D400038B50E4B054693F8242082B193F8253000
:103D50006BB1FFF7D5FB68B115F008040AD128460E
:103D600000F03CFD284600F00FFF204638BD6FF004
:103D70001200FBE76FF01500F8E700BFA411002068
:103D800038B50C4B054693F824200C4662B193F8E5
:103D900025304BB1FFF7B4FB48B144B1284600F0E1
:103DA00003FD2070002038BD6FF01200FBE76FF0BC
:103DB0001500F8E7A411002070B5134E044696F8DC
:103DC0002430C3B1FFF79CFB0546B8B1230705D4E7
:103DD000204600F003FD204600F0D6FE2B7A83B982
:103DE00001232B7296F825300BB9002070BD2046B8
:103DF00000F090FEF9E76FF01200F7E76FF01500A2
:103E0000F4E76FF07700F1E7A41100202DE9F0430B
:103E1000DFF8E4801E4698F82430074689461546A8
:103E200085B0002B61D098F82530002B5DD00306BB
:103E30005ED5FFF765FB0446002859D0037A002BB6
:103E400056D04FF0FF334FF0FF3208F1380006F044
:103E5000A9F8A37F4BB108F1380006F0A5F86FF080
:103E60000A04204605B0BDE8F083A37AC5B13BB390
:103E700001234FF00008A377384601A9CDE9019549
:103E8000CDF80C8000F0E6F91C4B984229D084F85C
:103E90001E801EBB6FF00404194806F085F8E0E7A9
:103EA000E27F02B1E577002BE2D100F0D9FCB84205
:103EB000DED000F0C9FC124806F076F80024D0E706
:103EC000B8F80A30AB42F0D96268B5FBF2F302FBF6
:103ED0001353002BE9D10123E377E6E7C6F800800E
:103EE000D8E706B135600024D6E76FF01204B8E7D2
:103EF0006FF01504B5E700BFA41100200000AD0B62
:103F0000DC1100202DE9F0411D46204B174693F8A7
:103F100024200E46002A33D093F8253083B30306BD
:103F200031D401B97FBBFFF7EBFA044658B3037AEB
:103F30004BB34FF0FF334FF0FF32154806F032F825
:103F4000E368B8469F4228BF984646B93FB905B1D5
:103F50002B600F4806F028F80020BDE8F0814246AB
:103F60003046A16905F0F0FFA3694344A361E3680B
:103F7000A3EB0803E360002DEBD0C5F80080E8E771
:103F80006FF01200E9E76FF01500E6E7A4110020DA
:103F9000DC11002070B51E4D034695F8242082B335
:103FA00095F825206AB31B062ED4FFF7A9FA04461C
:103FB00050B3037A43B34FF0FF334FF0FF3205F1B4
:103FC000380005F0EFFFE368B3B90126636926778F
:103FD000A361637F83B1FFF777FB30B905F1380048
:103FE00005F0E2FF6FF00B0070BD0674846006738D
:103FF000FFF7BEFAFFF7B4FA064805F0D5FF002038
:10400000F2E76FF01200EFE76FF01500ECE700BF8A
:10401000A4110020DC11002010B5084B0C4693F8C9
:1040200024302BB1FFF76CFA28B10460002010BDDA
:104030006FF01200FBE76FF01500F8E7A411002005
:10404000014B1860704700BFA411002008B5074B52
:1040500093F8243023B1FFF753FA20B1406808BD2C
:104060006FF01200FBE76FF01500F8E7A4110020D5
:10407000064B10F0800FA3F1D80208BF1346182298
:1040800000F00F0002FB0030704700BF4C1B002007
:104090000023024A1360024A137070472C1C002050
:1040A0004D3900204FF40062114BC3F80024012267
:1040B000C3F80025D3F800241205FBD54FF40062A5
:1040C000C3F800248022C3F81C250122C3F8302540
:1040D00040F2FF12074B1A600023074A1360074A99
:1040E0001370074A13700222064B1A70704700BF04
:1040F00000600350281C0020241C002049390020A7
:104100004B3900204D3900200022094B10B51A70A0
:10411000084A094B094C002808BF13463620C4F84A
:104120000033FEF785FE0123C4F8043510BD00BF3F
:104130004C390020FDFFDF01FDFFFF01006003504F
:10414000034B1878012894BF00200120704700BF5E
:104150004D39002010B54FF02003EFF3118183F3A8
:104160001288BFF36F8F0E4B1B7803F0FF0083B1F3
:104170000C4BD3F8002412F400720AD10124C3F8C6
:104180002C45D3F82C45D3F80044A40502D5C3F838
:104190002C25002081F31188BFF36F8F10BD00BF65
:1041A0004C39002000600350F8B51C4B1C7894BBC0
:1041B0001B4A40F2FF171060012226461A7064F075
:1041C0007F0514F0080FEDB214BF39464021284690
:1041D00005F031FF2846FFF74BFF0134092C8675A7
:1041E00006730661EBD1002440F2FF17254614F058
:1041F000080FE6B214BF39464021304605F01BFFD8
:104200003046FFF735FF0134092C857505730561CC
:10421000EDD10448F8BD0448FCE700BF4D3900204B
:104220002C1C00200000AD0B0500AD0B084B10F05E
:10423000800F14BFD3F81025D3F81425012300F004
:104240000F018B40134214BF01200020704700BFB4
:104250000060035002462DE9F8434FF02003EFF3CE
:10426000118783F31288BFF36F8F030703D1194BB4
:104270001B7883422AD1184B10461C684FF0010965
:10428000E44305F0D0FE154EA4B2356809FA00F8F3
:104290002C4314EA08041BD11046FFF7E9FE03463D
:1042A00080F80C9007C983E807004FF480021C6176
:1042B0009C750B4B45EA08050A483560C3F8042194
:1042C00087F31188BFF36F8FBDE8F8830648F7E7DF
:1042D0000648F5E74B390020281C0020241C00204C
:1042E00000E100E00000AD0B0A00AD0B0B00AD0BD0
:1042F00010F0080F074B06D0D3F8C00410F4803F2D
:1043000018BF0020704700F00F0000F5947053F8BC
:1043100020007047006003502DE9F74FA74BD3F8FA
:10432000604134B10022C3F86021D3F86C44C3F873
:104330006C44D3F828214AB10022C3F82821A04BAD
:10434000187805F070FE012383401C439D4F9E4E5C
:104350003D7897F9008015F0080141D1B8F1000FC0
:1043600005F00F032CDA994A52F8230010B342F8F3
:1043700023101422534303F1A04303F55833D3F819
:104380000836934A03F0010311784B4013709148AB
:1043900003F05EFD2846FFF76BFE837D032B37D1CC
:1043A000284605F040FE012303FA00F0336823EAB3
:1043B000000333600125DFF82092DFF820825FE000
:1043C000874A52F823000028F4D042F82310142220
:1043D000534303F1A04303F55833D3F80837D0E72C
:1043E000B8F1000F754B09DBD3F85021002AE1D05A
:1043F0000022C3F85021D3F8A837C2E7D3F82C2104
:10440000002AD7D00022C3F82C21D3F8A836B8E769
:10441000037BDBB9284605F006FE012303FA00F012
:104420003368B8F1000F23EA0003336001DA882D06
:10443000C0D106238DF8043000238DF80730674B78
:104440008DF806501B6801A89847B3E7002DB1D13D
:1044500001225A4BDA64ADE794FAA4F0B0FA80F086
:10446000D9F8002005FA00F31A430F28C9F80020F4
:1044700024EA0304326840F3B780134200F0C58099
:10448000002CE9D14D4BD3F800215AB1C3F80041BB
:10449000544B01A81C704A4B1C70012301934F4BD5
:1044A0001B689847454BD3F85421EAB10022C3F862
:1044B0005421D3F80413890216D58DF80420D3F8BB
:1044C000202501A8ADF80620D3F8C034002B14BF76
:1044D0004FF001224FF48072D9F800301343C9F82D
:1044E00000303E4B1B689847344BD3F85821002AC4
:1044F0002ED00022C3F85821D3F80044C3F800445A
:10450000E30508D50122374B01A81A700223019355
:10451000324B1B689847A50508D50022314B01A8EE
:104520001A70032301932D4B1B68984760050FD524
:104530002C4B1A7862B100221A7001221F4B01A87D
:10454000C3F808259A6504230193244B1B689847F8
:104550001A4BD3F85C310BB31E4B9B6813B93B78F5
:1045600059061BD00022154B01A8C3F85C21D3F8D3
:104570008034134A23F07F031370336823F0011350
:104580003360D9F8003023F4803343F00103C9F8D5
:10459000003005230193114B1B6898473268D9F806
:1045A00000301A4207D0002200230A4803F076FCAC
:1045B000002800F09F8003B0BDE8F08F006003503A
:1045C0004B3900204A390020241C00200861035088
:1045D000493900200C050020281C00202C1C00203C
:1045E000306103504C39002013407FF449AF06225C
:1045F00060F07F018DF804208DF806108DF80730EB
:10460000D8F8003001A898473AE70623A0F1100136
:104610008DF804308DF806108DF80750F0E718F08B
:10462000012314BF93FAA3F898FAA8F8B8FA88F807
:10463000B8F10F0F18D9A8F11005EDB22846FFF711
:1046400017FD04462846FFF753FE6368B4F814C00C
:104650009842226830D81B1A00EB020E114682469F
:104660006360C4F800E02AE048F080052846FFF7C0
:10467000FFFC4368B0F814A001689A4528BF9A4629
:1046800001F06043B3F1005F044604D052463E4857
:1046900005F05AFC3C492268636852442260A268D3
:1046A000A3EB0A03D20768B2636033D5BAF1000FF7
:1046B00032D1002323732FE011464FF0000A6045EA
:1046C00025D1003B18BF01231AB3504521D901233E
:1046D00003FA08F32BEA03033360062302228DF862
:1046E00004302A4BA2751B688DF806508DF8072000
:1046F00001A89847D6F800B0D9F800301BEA0308A3
:104700008DD1234803B0BDE8F04F03F0A1BB0023D7
:10471000DAE768B2002BCCD00122D9F8003002FAD7
:1047200008F823EA0803C9F80030236915F0080FD8
:10473000534423613D70174B17D100284FF01400EC
:1047400005F00F0500FB0530B5BF03EB85030A3507
:10475000C0F80016C0F80017B5BFC0F804A6C0F82E
:1047600004A75A6043F8252025E70028B5BFC3F801
:10477000A016C3F8A017C3F8A4A6C3F8A4A7B4BF93
:104780005A629A6417E700BF341A00202C1C0020DC
:104790000C05002000600350024B40F48070C3F809
:1047A0001805704700600350030713D400F00F038F
:1047B00010F0800F084A0BBF03F5887303F584736C
:1047C00002EB830252F8230008BF5068003818BF7C
:1047D000012070470020704700600350034BC3F86E
:1047E0000C0540F48070C3F80C057047006003505E
:1047F00010B504460822002105F0B1FB0E4BD3F89A
:1048000080242270D3F884246270D3F88824D3F8EB
:104810008C1442EA01226280D3F89024D3F89414D5
:1048200042EA0122A280D3F89824D3F89C3442EAC9
:104830000323E38010BD00BF006003500122014B41
:10484000DA647047006003500122014B1A6570471B
:10485000006003500122014B5A657047006003500D
:10486000014B1878704700BF4B390020024610B545
:104870004FF02003EFF3118483F31288BFF36F8F9F
:1048800005F0D1FB01230B4903FA00F00B6823EA82
:1048900000030B6012F0080101BF02F00F02064B8B
:1048A00002F5947243F8221084F31188BFF36F8FDE
:1048B00010BD00BF281C002000600350F7B5014662
:1048C0004FF02003EFF3118583F31288BFF36F8F4E
:1048D000FFF7CEFB0646084605F0A5FB012211F0C6
:1048E000800F02FA00F22E4818D1036832EA03045E
:1048F0000AD00846FFF7BAFF0323B37585F3118882
:10490000BFF36F8F03B0F0BD264923EA02030360B3
:104910000B68347323EA02030B60EDE70B0715D431
:104920008029214B2FD001F00F0404F2DA34640007
:10493000C3F80048D3F80448D3F80478E4B244F04C
:1049400002043C43C3F80448D3F80438154F046804
:104950003B6864EA030C1CEA020FCFD013433B60B0
:1049600000233373032324EA02040622B3758DF86F
:1049700007300E4B04601B688DF804208DF806107C
:1049800001A89847BAE740F2B474C3F80048D3F8D6
:104990000448D3F80478E4B244F00404D1E700BF3B
:1049A000241C0020281C0020006003502C1C002028
:1049B00038B50446094D4FF0FF324FF0FF3328461B
:1049C00003F06CFA2046FFF779FF284603F040FA1F
:1049D0004FF48002024BC3F8042138BD0C050020BF
:1049E00000E100E0F8B54FF0FF324FF0FF332A4806
:1049F00003F054FA4FF48002284B3620C3F8842188
:104A0000FEF738FA98B10127254E264B34681B680B
:104A1000240C24041C4354BB40F2FF13224D33608A
:104A20003620C5F80445FEF711FAC5F800431F4AC1
:104A300013788BB100211C4BC3F808110121C3F876
:104A40000026C3F804165960D3F808110029FBD0DA
:104A50000021C3F8081111700022134BC3F8002580
:104A60000D4803F0F5F90122114B1A70F8BD94FAC4
:104A7000A4F5B5FA85F528460F2DC6BFA5F110009F
:104A8000C0B240F08000030701D4FFF717FF07FA18
:104A900005F524EA0504BEE70C05002000E100E06E
:104AA000281C0020241C00200060035049390020ED
:104AB0004D39002010B504464FF0FF324FF0FF3360
:104AC000114803F0EBF92046FFF7F8FE012304F04C
:104AD0000F029340DB430D4A14F0800F15BFD2F84C
:104AE0001015D2F814150B400B4014BFC2F8103546
:104AF000C2F81435044803F0ABF94FF48002044BBC
:104B0000C3F8042110BD00BF0C0500200060035055
:104B100000E100E070B50446FFF788FB68B90125A5
:104B200004F00F0214F0800F154B05FA02F205D0C5
:104B3000D3F810150A43C3F8102570BDD3F8141527
:104B40000A43C3F81425631E062BF6D84FF0200342
:104B5000EFF3118683F31288BFF36F8F2046FFF7C0
:104B600085FE204605F05FFA064A8540136823EA71
:104B70000503136086F31188BFF36F8FDDE700BF75
:104B800000600350241C0020030610B5044605D421
:104B9000FFF70AFE10B12046FFF768FE014BC3F88D
:104BA000184510BD00600350084B70B5C31A0D4680
:104BB00007499B10044659434022064805F073FA02
:104BC0002B4601462046BDE870401847441C002093
:104BD000B76DDBB63CC50000402373B50B4C0093AA
:104BE000041B0B460D460A49A41061430646094AB8
:104BF000094805F084FA011E05DA30462B4602B05A
:104C0000BDE87040184702B070BD00BF441C0020D2
:104C1000B76DDBB669A100003CC500002DE9F84383
:104C20000022012106460520FEF732F9114802F064
:104C30009DF8114B984219D102F0A8F800244FF0CA
:104C40001C090C27DFF834803569414609FB045004
:104C500004F097FD002807DB012307FB04551C44E3
:104C6000042CAB67F0D10020BDE8F8836FF004009E
:104C7000FAE700BFB54C00000000AD0B58C90000BA
:104C800001460C2300224B4370B50848C418783302
:104C90001844D4E91C56226705F0F2F92DB13246CA
:104CA0002B46BDE870400248184770BD441C0020E8
:104CB0003CC50000062812D8DFE800F0040F1111EF
:104CC000110D0B00064B986F10F0070007D1FFF78E
:104CD000D7BF0220FBE70320F9E70120F7E7704781
:104CE000441C002008B54FF02003EFF3118183F33B
:104CF0001288BFF36F8F124A136843F002001060EE
:104D0000DA0708D481F31188BFF36F8FBDE808403C
:104D1000012002F057B84FF05023D3F80C24D3F8F9
:104D20000C34DB07EED5074805F0AAF981F31188AA
:104D3000BFF36F8FBDE808400020FFF7A1BF00BFA1
:104D4000E41C0020BC1C00207FB500220123CDE91B
:104D5000022304ABCDE90433094A6B46CDF800D0F9
:104D6000CDF804D005F0F9F9002805DB4FF48042B6
:104D70000023684603F092F807B05DF804FB00BF1B
:104D80009FA1000010B54FF02003EFF3118483F3CF
:104D90001288BFF36F8F074A136823F00201DB0705
:104DA000116002D4012006F082FE84F31188BFF363
:104DB0006F8F10BDE41C0020C3B21C20014A03FB0E
:104DC00000207047441C00202DE9F04101220746D5
:104DD0003749D1E8EF3FC1E8E02F0028F9D133B9D6
:104DE000344935484B60CB608A6004F0DDFC7B1EA3
:104DF000012B2BD8012F07D14FF05023D3F81C34AF
:104E000003F00303022B21D006F0CBFE0546F8B9D0
:104E10002A4B1B78E3B14FF0502302220646C3F819
:104E200008234FF05024DFF89880D4F81824D4F8E1
:104E30001834D20316D503F00303022B01D0012F3F
:104E400010D175B386F31188BFF36F8FBDE8F08181
:104E50004FF02003EFF3118683F31288BFF36F8FB7
:104E60000125DEE7C5B13046FEF796F8D4F81835CF
:104E7000DBB2012BD9D1D4F80421002AD5D00022ED
:104E8000C4F80421D4F804210222C4F818252022F1
:104E9000C8F88021A360C8E70021212003F08CFC22
:104EA000E4E74FF050230222C3F80423CEE700BF0B
:104EB000401C0020301C0020601C002072390020A3
:104EC00000E100E008B5074806F012FE38B10648D8
:104ED000FEF770FA0448FBF7F3FD002008BD6FF001
:104EE0001200FBE764C50000ED4E00000A2838B54B
:104EF0000446074D04D1AB680D2128465B689847EE
:104F0000AB6803485B68E1B29847204638BD00BFF4
:104F100064C5000000F1744000F5A6000A289ABF9D
:104F2000024B33F910006FF00F00704770CC000097
:104F3000024B0B6001231360704700BF30CA0000B2
:104F400000487047B0C900000268154BFF2A08BF2F
:104F50004FF0FF32C3F824254268FF2A08BF4FF004
:104F6000FF32C3F828258268FF2A08BF4FF0FF32BE
:104F7000C3F83025C268FF2A08BF4FF0FF32C3F8DC
:104F800034250269FF2A08BF4FF0FF32C3F83825E5
:104F90004269FF2A08BF4FF0FF32C3F83C25704733
:104FA00000B002502DE9F04F436891B05D6B804630
:104FB000002128460AAA05F029FA041E7ADB0A9B7A
:104FC0002A681979186800F0FDFA041E72DB0022C5
:104FD00001212B20FDF75CFF01254FF05023C3F882
:104FE000B855D8F80490D8F810204846564902F031
:104FF000B9FAFFF78FFF041E52DB544E00270FCE85
:105000000AAC0FC496E80300AB230DF1040A84E850
:1050100003000197CAE901778DF804304C4B0AA8C8
:10502000D3F8242504AED2B20492D3F82825D2B204
:105030000592D3F83025D2B20692D3F83425D2B2F5
:105040000792D3F83825D2B20892D3F83C35DBB2B8
:105050000993FFF779FF284602F0FAFA0146304635
:10506000FFF772FF3B4B994228D13946504605F075
:105070009FF8041E14DB232006F035FD4FF0030BD0
:105080009F2339460AA8CDE90A77CDF810A0CDF8BC
:1050900014B08DF828300C9605F08AF8041E10DA4A
:1050A0004FF050230222C3F8B82502F0EFFA08B1FE
:1050B00002F0DAFA204611B0BDE8F08F6FF0040478
:1050C000EEE75A46514609F1300004F016FF044657
:1050D000002833D1D8F80420537F023B012B05D997
:1050E000157F033D012D8CBF0025012505F091F8AA
:1050F000002826DBC2B2C0F380108542D0D0002346
:10510000012182F040020AA8ADF800300A938DF820
:105110000020CDF810D005910C938DF828100B9637
:1051200005F046F804460028BAD105F072F8041ECE
:1051300001DBE307F9D404EAE474B1E76FF0120489
:10514000AEE70446ACE700BFA5A10000D0C7000051
:1051500000B002500000AD0B054B994206D14FF054
:10516000FF324FF0FF33303002F098BE704700BF7F
:105170000000AD0B2DE9F84F07460E4692464568F4
:10518000C1F30B03002A59D0C2F30B0252EA030405
:1051900054D1002952DBEA6A01EB0A0393424DD84D
:1051A00005F081F82046D7F8048005F04DF8044654
:1051B000C8B9DFF89090D8F82C30534519D106F0D3
:1051C0008EFCD346054629463869FFF7C5FF4D4595
:1051D00024D1BAEB0B0A5E44EDD1012005F034F87E
:1051E000002C08BF0446384605F043F82046BDE8C9
:1051F000F88FBAF5803F09D3B3B2A3B93146012085
:1052000002F04EFA4FF4803B0546DCE7BAF5805FCA
:1052100009D20D493869FFF79FFF0B4D2846FFF76C
:1052200079FE0446D9E7C6F30B000028F1D13146D8
:1052300002F036FA4FF4805B0546C4E76FF01504C0
:10524000D4E700BF0000AD0B0400AD0B2DE9F34720
:105250000F4605461E4690464168002A79D0002B2D
:1052600077D0042B01D9B30773D117F0030470D1A1
:10527000002F6EDBCA6ABB1993426AD8284605F034
:1052800012F8204604F0E0FF044648B1012004F083
:10529000DBFF284604F0EDFF204602B0BDE8F087B2
:1052A000032E1ED804213A460DEB010006F014FC33
:1052B000044601462869FFF74FFF274B9C4235D132
:1052C0003246414601A804F03FFE04213A460DEB68
:1052D000010006F0FEFB044601462869FFF73CFF8B
:1052E00024E008F06043B3F1005F02D118F0030F2F
:1052F0002BD0DFF864A0042EB14628BF4FF004097C
:1053000041464A4601A804F01FFE3A46494601A814
:1053100006F0DFFB044601462869FFF71DFF5445F0
:1053200004D1B6EB0906C8444F44E4D12046FFF748
:10533000F1FD0446012004F087FF0646284604F0EC
:1053400098FF002C08BF3446A6E73A46314640464F
:10535000BFE76FF015049FE70000AD0B2DE9F04F9C
:10536000824688461C46174685B0002A00F08F808A
:10537000002B00F088800029C0F289804268CB1899
:10538000D26A934200F28380C8F1000505F003055C
:1053900004F089FFA54228BF25467B4203F00303A2
:1053A00007F0030658BF5E42764206F00306A642A7
:1053B00028BF2646631BA41B24F0030423F0030923
:1053C000A145C8BFA14603F0030BC8BFA3EB040B64
:1053D000B9F1000F18D0BB1908EB05024946184671
:1053E000019306F079FB04460146DAF81000FFF756
:1053F000B3FE284A94423DD1B54205D0019B4A46AE
:105400001946781904F089FDC5B1C5F104060421D7
:10541000A8EB060202A806F05FFB04460146DAF894
:105420001000FFF799FE1B4B9C4223D106F10803A5
:105430002A4638460DEB030104F086FDBBF1000F50
:1054400017D0082108EB05024A440DEB010006F0D5
:1054500043FB04460146DAF81000FFF77DFE0D4BD2
:105460009C4207D109EB05005A4602A9384404F0D2
:105470006BFD084C504604F0FCFE204605B0BDE82C
:10548000F04FFFF747BD184605B0BDE8F08F6FF04D
:105490001500F9E70000AD0B024B0B600123136010
:1054A000704700BFE81C0020004870474CCA00004D
:1054B00010B501220648114606F016FC06F0FFFA68
:1054C000044C206006F0F8FA6060002010BD00BFB8
:1054D000F01C0020E81C002070B50C46154606F0B4
:1054E000EBFA29460646204604F0F4FE08B3B4FB66
:1054F000F6F306FB1343E3B9B5FBF6F306FB1353D0
:10550000BBB9AE4201D9002070BD4FF0FF324FF061
:10551000FF33094802F0C2FC06F0CEFA06462046E8
:1055200001F02CFDAD1B3444F9D1034802F090FC8E
:10553000E9E76FF01500E7E7F01C0020F8B50E462C
:105540001946304617461C4604F0C4FE08B344EA28
:10555000060515F003051CD1A4B14FF0FF324FF042
:10556000FF330D4802F09AFC24F00304A54206EB39
:10557000050009D1094AD2F80034DB07FBD50648FB
:1055800002F066FC0020F8BD795901F015FD0435E4
:10559000ECE76FF01500F6E7F01C002000900350D8
:1055A000036803F01F025B09026004D0012B03486B
:1055B00018BF002070470248704700BF0028845081
:1055C000002584502DE9F04F15468246DFF894817E
:1055D000DFF8949185B000EB8101514503D10020A3
:1055E00005B0BDE8F08FDAF80030C3F34322082A93
:1055F00003F07F0400F2B0807F2C4FEA134308BF12
:105600004FF0FF3418F80270222B00F2A880DFE878
:1056100003F0122128412B3141A6A6A6A64975A662
:10562000A6A6A6A6A6A6A6A678838689A6A6A68CC2
:105630009295989B9E00C5F80C45601C0ED00126E3
:1056400003A80394FFF7ACFF039B06FA03F3836000
:10565000B34630E0601CC5F814457BD10AF1040A5A
:10566000BBE7C5F80845E8E7621CC5F80845F5D072
:10567000002604E0631CC5F80C45EFD001264FF06E
:10568000010B03A80394FFF78BFF039B0BFA03F3B3
:10569000C36010E0C5F81045631CDFD000264FF052
:1056A000000B08E0C5F80845002FF5D1671CD5D0E0
:1056B00000260627B346DAF8003003A803F40052A8
:1056C000002A1CBF01264FF0000B01930394FFF743
:1056D00067FF039A019B00EB8200D0F80022C3F31E
:1056E000C1143B0243EA840343EA0B0302EA0902C2
:1056F000134343EA4603C0F80032AFE7C5F80C4550
:10570000D2E7C5F86045661CDAF80030A6D0C3F3CE
:105710008033002BB2D092E7C5F86445F3E7C5F8B3
:105720006845F0E7C5F86C45EDE7C5F82445621C0F
:1057300094D00126B3E7C5F828457EE7C5F8304583
:10574000F5E7C5F83445F2E7C5F83845EFE7C5F8A1
:105750003C45ECE700267BE76FF0150040E76FF073
:1057600085003DE71BD00000F0F0FCFF2DE9F7437A
:1057700006464FF00008002201210820FDF788FBB3
:105780000820FDF755FB776835693C684146C4F849
:1057900000852E60D7F80C9001AA484604F036FE2A
:1057A00000283FDB019BD9F8002019791868FFF722
:1057B00009FF002836DB6B7AD6F810C0012B03D026
:1057C000032B2DD14FF01008AB7A032B28D195F87D
:1057D0000BE0BEF1000F02D0BEF1010F20D12A7AFA
:1057E000012A22D0022A24D0D2B910466B687168EF
:1057F000B3F5164F096800F0BA803AD8B3F5165FD2
:1058000000F0B88020D8B3F5966F00F0B58012D8BC
:10581000B3F5967F00F0B380B3F5167F00F0B28049
:105820006FF0850003B0BDE8F0834FF480700E2266
:10583000DCE70020FBE7B3F5166F00F0A680B3F5B8
:10584000965FEDD15D4B43E0B3F5E14F00F0A080F2
:1058500008D8B3F5615F00F09D80B3F5964FDFD1B6
:10586000574B35E047F612294B45D9D14FF4000389
:105870002EE0B3F5613F00F08F8015D8B3F5963F69
:1058800000F08D800AD84DF6C0294B4500F0898084
:10589000B3F5614FC4D14FF46B0319E0B3F5E13FA9
:1058A000BED14FF0EB7313E0B3F5612F7CD009D874
:1058B000DFF810914B457AD0B3F5E12FB0D14FF01E
:1058C000E86305E0DFF800914B45A9D14FF0805324
:1058D000C1F82435736840EA0E001B6842EA0802EA
:1058E0001043C3F86C050CF10403D5E9010183E80A
:1058F00003007B68990712D505F11C0001F022FB1B
:10590000324B984256D1287F04F10C0204F5907175
:1059100006F013F801202B7F984001F021FA0823AC
:10592000C4F800353B7A53B9C4F81031D4F81031BB
:10593000AB69C4F834350123C4F8383523607B687B
:1059400000209A075CBF4FF48073C4F804337B686F
:10595000DB0644BF4FF48003C4F804336B69C4F81A
:1059600044350123C4F84805A360E3605AE74FF4C7
:105970001D03ADE7164BABE74FF49E23A8E74FF4AA
:10598000A033A5E74FF41C33A2E74FF41D239FE794
:10599000104B9DE7104B9BE74FF06C7398E70F4B54
:1059A00096E74FF4650393E74FF0706390E74FF08D
:1059B00080638DE76FF0040034E700BF00B0130090
:1059C00000A04E0090D0030040420F000000AD0B3D
:1059D0000050270000C0750000F03A0000903A0126
:1059E000F8B504460D46076906F0DBF8B0B9214B5F
:1059F0001B789BB16426606804F0E2FD00BB0120C7
:105A000005F08FFF013EF6D10021212002F0D4FEE7
:105A1000F0E781F31188BFF36F8FF5E74FF02003B4
:105A2000EFF3118183F31288BFF36F8F60680E4626
:105A300004F0C6FD90B981F31188BFF36F8FEDE7D5
:105A40004FF02003EFF3118183F31288BFF36F8FC0
:105A500060680E4604F0B4FD0028DAD07B690122AC
:105A60001D702046796904F0EBFC86F31188BFF3C2
:105A70006F8FF8BD723900200123834070B5DC437D
:105A80000B4AD2E8EF1F01EA0405C2E8E65F002EE8
:105A9000F7D14FF4803282400648C0F80823BFF3A4
:105AA0005F8FBFF36F8F0B4214BF0120002070BDCA
:105AB0000C1D00200050015070B40E4922F07F46AA
:105AC000D1E90034D01AC31844F10004C1E900340C
:105AD000A6F50013B3F5400F09D2074B1B681A0A4D
